{
  "address": "0x6EB5055B15D1Bc756362145978e09050E9dCbEF3",
  "abi": [
    {
      "inputs": [
        {
          "internalType": "contract IVault",
          "name": "vault",
          "type": "address"
        },
        {
          "internalType": "string",
          "name": "name",
          "type": "string"
        },
        {
          "internalType": "string",
          "name": "symbol",
          "type": "string"
        },
        {
          "internalType": "contract IERC20[]",
          "name": "tokens",
          "type": "address[]"
        },
        {
          "internalType": "contract IRateProvider[]",
          "name": "rateProviders",
          "type": "address[]"
        },
        {
          "internalType": "uint256",
          "name": "amplificationParameter",
          "type": "uint256"
        },
        {
          "internalType": "uint256",
          "name": "swapFeePercentage",
          "type": "uint256"
        },
        {
          "internalType": "uint256",
          "name": "pauseWindowDuration",
          "type": "uint256"
        },
        {
          "internalType": "uint256",
          "name": "bufferPeriodDuration",
          "type": "uint256"
        },
        {
          "internalType": "address",
          "name": "owner",
          "type": "address"
        }
      ],
      "stateMutability": "nonpayable",
      "type": "constructor"
    },
    {
      "anonymous": false,
      "inputs": [
        {
          "indexed": false,
          "internalType": "uint256",
          "name": "startValue",
          "type": "uint256"
        },
        {
          "indexed": false,
          "internalType": "uint256",
          "name": "endValue",
          "type": "uint256"
        },
        {
          "indexed": false,
          "internalType": "uint256",
          "name": "startTime",
          "type": "uint256"
        },
        {
          "indexed": false,
          "internalType": "uint256",
          "name": "endTime",
          "type": "uint256"
        }
      ],
      "name": "AmpUpdateStarted",
      "type": "event"
    },
    {
      "anonymous": false,
      "inputs": [
        {
          "indexed": false,
          "internalType": "uint256",
          "name": "currentValue",
          "type": "uint256"
        }
      ],
      "name": "AmpUpdateStopped",
      "type": "event"
    },
    {
      "anonymous": false,
      "inputs": [
        {
          "indexed": true,
          "internalType": "address",
          "name": "owner",
          "type": "address"
        },
        {
          "indexed": true,
          "internalType": "address",
          "name": "spender",
          "type": "address"
        },
        {
          "indexed": false,
          "internalType": "uint256",
          "name": "value",
          "type": "uint256"
        }
      ],
      "name": "Approval",
      "type": "event"
    },
    {
      "anonymous": false,
      "inputs": [
        {
          "indexed": false,
          "internalType": "bool",
          "name": "paused",
          "type": "bool"
        }
      ],
      "name": "PausedStateChanged",
      "type": "event"
    },
    {
      "anonymous": false,
      "inputs": [
        {
          "indexed": false,
          "internalType": "uint256",
          "name": "swapFeePercentage",
          "type": "uint256"
        }
      ],
      "name": "SwapFeePercentageChanged",
      "type": "event"
    },
    {
      "anonymous": false,
      "inputs": [
        {
          "indexed": true,
          "internalType": "address",
          "name": "from",
          "type": "address"
        },
        {
          "indexed": true,
          "internalType": "address",
          "name": "to",
          "type": "address"
        },
        {
          "indexed": false,
          "internalType": "uint256",
          "name": "value",
          "type": "uint256"
        }
      ],
      "name": "Transfer",
      "type": "event"
    },
    {
      "inputs": [],
      "name": "DOMAIN_SEPARATOR",
      "outputs": [
        {
          "internalType": "bytes32",
          "name": "",
          "type": "bytes32"
        }
      ],
      "stateMutability": "view",
      "type": "function"
    },
    {
      "inputs": [
        {
          "internalType": "address",
          "name": "owner",
          "type": "address"
        },
        {
          "internalType": "address",
          "name": "spender",
          "type": "address"
        }
      ],
      "name": "allowance",
      "outputs": [
        {
          "internalType": "uint256",
          "name": "",
          "type": "uint256"
        }
      ],
      "stateMutability": "view",
      "type": "function"
    },
    {
      "inputs": [
        {
          "internalType": "address",
          "name": "spender",
          "type": "address"
        },
        {
          "internalType": "uint256",
          "name": "amount",
          "type": "uint256"
        }
      ],
      "name": "approve",
      "outputs": [
        {
          "internalType": "bool",
          "name": "",
          "type": "bool"
        }
      ],
      "stateMutability": "nonpayable",
      "type": "function"
    },
    {
      "inputs": [
        {
          "internalType": "address",
          "name": "account",
          "type": "address"
        }
      ],
      "name": "balanceOf",
      "outputs": [
        {
          "internalType": "uint256",
          "name": "",
          "type": "uint256"
        }
      ],
      "stateMutability": "view",
      "type": "function"
    },
    {
      "inputs": [],
      "name": "decimals",
      "outputs": [
        {
          "internalType": "uint8",
          "name": "",
          "type": "uint8"
        }
      ],
      "stateMutability": "view",
      "type": "function"
    },
    {
      "inputs": [
        {
          "internalType": "address",
          "name": "spender",
          "type": "address"
        },
        {
          "internalType": "uint256",
          "name": "amount",
          "type": "uint256"
        }
      ],
      "name": "decreaseAllowance",
      "outputs": [
        {
          "internalType": "bool",
          "name": "",
          "type": "bool"
        }
      ],
      "stateMutability": "nonpayable",
      "type": "function"
    },
    {
      "inputs": [
        {
          "internalType": "uint256",
          "name": "startIndex",
          "type": "uint256"
        },
        {
          "internalType": "uint256",
          "name": "endIndex",
          "type": "uint256"
        }
      ],
      "name": "dirtyUninitializedOracleSamples",
      "outputs": [],
      "stateMutability": "nonpayable",
      "type": "function"
    },
    {
      "inputs": [
        {
          "internalType": "uint256",
          "name": "balance0",
          "type": "uint256"
        },
        {
          "internalType": "uint256",
          "name": "balance1",
          "type": "uint256"
        }
      ],
      "name": "errorMethod",
      "outputs": [
        {
          "internalType": "uint256",
          "name": "",
          "type": "uint256"
        }
      ],
      "stateMutability": "nonpayable",
      "type": "function"
    },
    {
      "inputs": [
        {
          "internalType": "bytes4",
          "name": "selector",
          "type": "bytes4"
        }
      ],
      "name": "getActionId",
      "outputs": [
        {
          "internalType": "bytes32",
          "name": "",
          "type": "bytes32"
        }
      ],
      "stateMutability": "view",
      "type": "function"
    },
    {
      "inputs": [],
      "name": "getAuthorizer",
      "outputs": [
        {
          "internalType": "contract IAuthorizer",
          "name": "",
          "type": "address"
        }
      ],
      "stateMutability": "view",
      "type": "function"
    },
    {
      "inputs": [],
      "name": "getLargestSafeQueryWindow",
      "outputs": [
        {
          "internalType": "uint256",
          "name": "",
          "type": "uint256"
        }
      ],
      "stateMutability": "pure",
      "type": "function"
    },
    {
      "inputs": [
        {
          "internalType": "enum IPriceOracle.Variable",
          "name": "variable",
          "type": "uint8"
        }
      ],
      "name": "getLatest",
      "outputs": [
        {
          "internalType": "uint256",
          "name": "",
          "type": "uint256"
        }
      ],
      "stateMutability": "view",
      "type": "function"
    },
    {
      "inputs": [],
      "name": "getMiscDataTotalSupply",
      "outputs": [
        {
          "internalType": "int256",
          "name": "",
          "type": "int256"
        }
      ],
      "stateMutability": "view",
      "type": "function"
    },
    {
      "inputs": [],
      "name": "getOracleMiscData",
      "outputs": [
        {
          "internalType": "int256",
          "name": "logInvariant",
          "type": "int256"
        },
        {
          "internalType": "int256",
          "name": "logTotalSupply",
          "type": "int256"
        },
        {
          "internalType": "uint256",
          "name": "oracleSampleCreationTimestamp",
          "type": "uint256"
        },
        {
          "internalType": "uint256",
          "name": "oracleIndex",
          "type": "uint256"
        },
        {
          "internalType": "bool",
          "name": "oracleEnabled",
          "type": "bool"
        }
      ],
      "stateMutability": "view",
      "type": "function"
    },
    {
      "inputs": [],
      "name": "getOwner",
      "outputs": [
        {
          "internalType": "address",
          "name": "",
          "type": "address"
        }
      ],
      "stateMutability": "view",
      "type": "function"
    },
    {
      "inputs": [
        {
          "components": [
            {
              "internalType": "enum IPriceOracle.Variable",
              "name": "variable",
              "type": "uint8"
            },
            {
              "internalType": "uint256",
              "name": "ago",
              "type": "uint256"
            }
          ],
          "internalType": "struct IPriceOracle.OracleAccumulatorQuery[]",
          "name": "queries",
          "type": "tuple[]"
        }
      ],
      "name": "getPastAccumulators",
      "outputs": [
        {
          "internalType": "int256[]",
          "name": "results",
          "type": "int256[]"
        }
      ],
      "stateMutability": "view",
      "type": "function"
    },
    {
      "inputs": [],
      "name": "getPausedState",
      "outputs": [
        {
          "internalType": "bool",
          "name": "paused",
          "type": "bool"
        },
        {
          "internalType": "uint256",
          "name": "pauseWindowEndTime",
          "type": "uint256"
        },
        {
          "internalType": "uint256",
          "name": "bufferPeriodEndTime",
          "type": "uint256"
        }
      ],
      "stateMutability": "view",
      "type": "function"
    },
    {
      "inputs": [],
      "name": "getPoolId",
      "outputs": [
        {
          "internalType": "bytes32",
          "name": "",
          "type": "bytes32"
        }
      ],
      "stateMutability": "view",
      "type": "function"
    },
    {
      "inputs": [],
      "name": "getRate",
      "outputs": [
        {
          "internalType": "uint256",
          "name": "",
          "type": "uint256"
        }
      ],
      "stateMutability": "view",
      "type": "function"
    },
    {
      "inputs": [
        {
          "internalType": "uint256",
          "name": "index",
          "type": "uint256"
        }
      ],
      "name": "getSample",
      "outputs": [
        {
          "internalType": "int256",
          "name": "logPairPrice",
          "type": "int256"
        },
        {
          "internalType": "int256",
          "name": "accLogPairPrice",
          "type": "int256"
        },
        {
          "internalType": "int256",
          "name": "logBptPrice",
          "type": "int256"
        },
        {
          "internalType": "int256",
          "name": "accLogBptPrice",
          "type": "int256"
        },
        {
          "internalType": "int256",
          "name": "logInvariant",
          "type": "int256"
        },
        {
          "internalType": "int256",
          "name": "accLogInvariant",
          "type": "int256"
        },
        {
          "internalType": "uint256",
          "name": "timestamp",
          "type": "uint256"
        }
      ],
      "stateMutability": "view",
      "type": "function"
    },
    {
      "inputs": [],
      "name": "getSwapFeePercentage",
      "outputs": [
        {
          "internalType": "uint256",
          "name": "",
          "type": "uint256"
        }
      ],
      "stateMutability": "view",
      "type": "function"
    },
    {
      "inputs": [
        {
          "components": [
            {
              "internalType": "enum IPriceOracle.Variable",
              "name": "variable",
              "type": "uint8"
            },
            {
              "internalType": "uint256",
              "name": "secs",
              "type": "uint256"
            },
            {
              "internalType": "uint256",
              "name": "ago",
              "type": "uint256"
            }
          ],
          "internalType": "struct IPriceOracle.OracleAverageQuery[]",
          "name": "queries",
          "type": "tuple[]"
        }
      ],
      "name": "getTimeWeightedAverage",
      "outputs": [
        {
          "internalType": "uint256[]",
          "name": "results",
          "type": "uint256[]"
        }
      ],
      "stateMutability": "view",
      "type": "function"
    },
    {
      "inputs": [],
      "name": "getTotalSamples",
      "outputs": [
        {
          "internalType": "uint256",
          "name": "",
          "type": "uint256"
        }
      ],
      "stateMutability": "pure",
      "type": "function"
    },
    {
      "inputs": [],
      "name": "getVault",
      "outputs": [
        {
          "internalType": "contract IVault",
          "name": "",
          "type": "address"
        }
      ],
      "stateMutability": "view",
      "type": "function"
    },
    {
      "inputs": [
        {
          "internalType": "address",
          "name": "spender",
          "type": "address"
        },
        {
          "internalType": "uint256",
          "name": "addedValue",
          "type": "uint256"
        }
      ],
      "name": "increaseAllowance",
      "outputs": [
        {
          "internalType": "bool",
          "name": "",
          "type": "bool"
        }
      ],
      "stateMutability": "nonpayable",
      "type": "function"
    },
    {
      "inputs": [
        {
          "internalType": "address",
          "name": "account",
          "type": "address"
        },
        {
          "internalType": "uint256",
          "name": "amount",
          "type": "uint256"
        }
      ],
      "name": "mint",
      "outputs": [],
      "stateMutability": "nonpayable",
      "type": "function"
    },
    {
      "inputs": [],
      "name": "name",
      "outputs": [
        {
          "internalType": "string",
          "name": "",
          "type": "string"
        }
      ],
      "stateMutability": "view",
      "type": "function"
    },
    {
      "inputs": [
        {
          "internalType": "address",
          "name": "owner",
          "type": "address"
        }
      ],
      "name": "nonces",
      "outputs": [
        {
          "internalType": "uint256",
          "name": "",
          "type": "uint256"
        }
      ],
      "stateMutability": "view",
      "type": "function"
    },
    {
      "inputs": [
        {
          "internalType": "address",
          "name": "owner",
          "type": "address"
        },
        {
          "internalType": "address",
          "name": "spender",
          "type": "address"
        },
        {
          "internalType": "uint256",
          "name": "value",
          "type": "uint256"
        },
        {
          "internalType": "uint256",
          "name": "deadline",
          "type": "uint256"
        },
        {
          "internalType": "uint8",
          "name": "v",
          "type": "uint8"
        },
        {
          "internalType": "bytes32",
          "name": "r",
          "type": "bytes32"
        },
        {
          "internalType": "bytes32",
          "name": "s",
          "type": "bytes32"
        }
      ],
      "name": "permit",
      "outputs": [],
      "stateMutability": "nonpayable",
      "type": "function"
    },
    {
      "inputs": [
        {
          "internalType": "uint256",
          "name": "totalSupply",
          "type": "uint256"
        }
      ],
      "name": "setSupply",
      "outputs": [],
      "stateMutability": "nonpayable",
      "type": "function"
    },
    {
      "inputs": [
        {
          "internalType": "uint256",
          "name": "swapFeePercentage",
          "type": "uint256"
        }
      ],
      "name": "setSwapFeePercentage",
      "outputs": [],
      "stateMutability": "nonpayable",
      "type": "function"
    },
    {
      "inputs": [
        {
          "internalType": "uint256",
          "name": "rawEndValue",
          "type": "uint256"
        },
        {
          "internalType": "uint256",
          "name": "endTime",
          "type": "uint256"
        }
      ],
      "name": "startAmplificationParameterUpdate",
      "outputs": [],
      "stateMutability": "nonpayable",
      "type": "function"
    },
    {
      "inputs": [],
      "name": "stopAmplificationParameterUpdate",
      "outputs": [],
      "stateMutability": "nonpayable",
      "type": "function"
    },
    {
      "inputs": [],
      "name": "symbol",
      "outputs": [
        {
          "internalType": "string",
          "name": "",
          "type": "string"
        }
      ],
      "stateMutability": "view",
      "type": "function"
    },
    {
      "inputs": [],
      "name": "totalSupply",
      "outputs": [
        {
          "internalType": "uint256",
          "name": "",
          "type": "uint256"
        }
      ],
      "stateMutability": "view",
      "type": "function"
    },
    {
      "inputs": [
        {
          "internalType": "address",
          "name": "recipient",
          "type": "address"
        },
        {
          "internalType": "uint256",
          "name": "amount",
          "type": "uint256"
        }
      ],
      "name": "transfer",
      "outputs": [
        {
          "internalType": "bool",
          "name": "",
          "type": "bool"
        }
      ],
      "stateMutability": "nonpayable",
      "type": "function"
    },
    {
      "inputs": [
        {
          "internalType": "address",
          "name": "sender",
          "type": "address"
        },
        {
          "internalType": "address",
          "name": "recipient",
          "type": "address"
        },
        {
          "internalType": "uint256",
          "name": "amount",
          "type": "uint256"
        }
      ],
      "name": "transferFrom",
      "outputs": [
        {
          "internalType": "bool",
          "name": "",
          "type": "bool"
        }
      ],
      "stateMutability": "nonpayable",
      "type": "function"
    },
    {
      "inputs": [
        {
          "internalType": "uint256",
          "name": "lastChangeBlock",
          "type": "uint256"
        },
        {
          "internalType": "uint256",
          "name": "balance0",
          "type": "uint256"
        },
        {
          "internalType": "uint256",
          "name": "balance1",
          "type": "uint256"
        }
      ],
      "name": "updateOracle",
      "outputs": [
        {
          "internalType": "int256",
          "name": "",
          "type": "int256"
        },
        {
          "internalType": "int256",
          "name": "",
          "type": "int256"
        }
      ],
      "stateMutability": "view",
      "type": "function"
    }
  ],
  "transactionHash": "0x7f9c8619ec4911698f9e15fbf6f111240963e7385787c04c404651665b25b567",
  "args": [
    "0xd4f035C7d369e34efC3818A22755Ceda03B615A0",
    "Meta Pool",
    "meta-pool",
    [
      "0x8cfF101C10038083e4B06e6e292BDa1D91735b15",
      "0xd56241E7069a9a37C420258E02215ECE25221359"
    ],
    [
      "0x0000000000000000000000000000000000000000",
      "0x0000000000000000000000000000000000000000"
    ],
    "100",
    "8000000000000000",
    0,
    0,
    "0xABfB1a497fAa51B667Aa2bacA2c768255cb1725c"
  ],
  "numDeployments": 4,
  "solcInputHash": "7d02b5580ae6796f6474f5a5ac0c0aee",
  "bytecode": "0x6101c06040527f6e71edae12b1b97f4d1f60370fef10105fa2faae0126114a169c64845d6126c9610120523480156200003757600080fd5b5060405162003c2238038062003c228339810160408190526200005a9162000793565b8989898988888888888860008989898a516001600160401b03811180156200008157600080fd5b50604051908082528060200260200182016040528015620000ac578160200160208202803683370190505b5089898989828289898d8280604051806040016040528060018152602001603160f81b81525085858a336001600160a01b031660001b806080818152505050806001600160a01b031660a0816001600160a01b031660601b815250505081600390805190602001906200012192919062000551565b5080516200013790600490602084019062000551565b505060058054601260ff1990911617905550815160209283012060c052805191012060e052507f8b73c3c69bb8fe3d512ecc4cf759cc79239f7b179b0ffacaa9a75d522b39400f6101005260601b6001600160601b0319166101405250620001aa90506276a70083111561019462000344565b620001be62278d0082111561019562000344565b429091016101608190520161018052620001d88462000359565b6040516309b2760f60e01b81526000906001600160a01b038c16906309b2760f9062000209908d9060040162000934565b602060405180830381600087803b1580156200022457600080fd5b505af115801562000239573d6000803e3d6000fd5b505050506040513d601f19601f820116820180604052508101906200025f91906200077a565b604051633354e3e960e11b81529091506001600160a01b038c16906366a9c7d290620002949084908b908b9060040162000898565b600060405180830381600087803b158015620002af57600080fd5b505af1158015620002c4573d6000803e3d6000fd5b5050506101a09190915250620002ef9950505060018d1015965061012c955050620003449350505050565b6200030261138886111561012d62000344565b60006200031d866103e8620003e560201b620010f21760201c565b90506200032a8162000416565b5050505050505050505050505050505050505050620009be565b816200035557620003558162000455565b5050565b6200036e64e8d4a5100082101560cb62000344565b6200038667016345785d8a000082111560ca62000344565b620003a58160c0600854620004a860201b62001116179092919060201c565b6008556040517fa9ba3ffe0b6c366b81232caab38605a0699ad5398d6cce76f91ee809e322dafc90620003da90839062000949565b60405180910390a150565b60008282026200040d841580620004055750838583816200040257fe5b04145b600362000344565b90505b92915050565b6200042481804280620004bd565b7fa0d01593e47e69d07e0ccd87bece09411e07dd1ed40ca8f2e7af2976542a023381604051620003da919062000949565b62461bcd60e51b6000908152602060045260076024526642414c23000030600a808404818106603090810160081b95839006959095019082900491820690940160101b939093010160c81b604452606490fd5b6001600160401b03811b1992909216911b1790565b620004de816001600160401b031660c06200054d60201b6200112c1760201c565b620004ff836001600160401b031660806200054d60201b6200112c1760201c565b62000520856001600160401b031660406200054d60201b6200112c1760201c565b62000541876001600160401b031660006200054d60201b6200112c1760201c565b17171760095550505050565b1b90565b828054600181600116156101000203166002900490600052602060002090601f016020900481019282601f106200059457805160ff1916838001178555620005c4565b82800160010185558215620005c4579182015b82811115620005c4578251825591602001919060010190620005a7565b50620005d2929150620005d6565b5090565b5b80821115620005d25760008155600101620005d7565b80516200041081620009a5565b600082601f8301126200060b578081fd5b8151620006226200061c8262000979565b62000952565b8181529150602080830190848101818402860182018710156200064457600080fd5b60005b84811015620006705781516200065d81620009a5565b8452928201929082019060010162000647565b505050505092915050565b600082601f8301126200068c578081fd5b81516200069d6200061c8262000979565b818152915060208083019084810181840286018201871015620006bf57600080fd5b60005b8481101562000670578151620006d881620009a5565b84529282019290820190600101620006c2565b600082601f830112620006fc578081fd5b81516001600160401b0381111562000712578182fd5b602062000728601f8301601f1916820162000952565b925081835284818386010111156200073f57600080fd5b60005b828110156200075f57848101820151848201830152810162000742565b82811115620007715760008284860101525b50505092915050565b6000602082840312156200078c578081fd5b5051919050565b6000806000806000806000806000806101408b8d031215620007b3578586fd5b620007bf8c8c620005ed565b60208c0151909a506001600160401b0380821115620007dc578788fd5b620007ea8e838f01620006eb565b9a5060408d015191508082111562000800578788fd5b6200080e8e838f01620006eb565b995060608d015191508082111562000824578788fd5b620008328e838f01620005fa565b985060808d015191508082111562000848578788fd5b50620008578d828e016200067b565b96505060a08b0151945060c08b0151935060e08b015192506101008b01519150620008878c6101208d01620005ed565b90509295989b9194979a5092959850565b60006060820185835260206060818501528186518084526080860191508288019350845b81811015620008e457620008d1855162000999565b83529383019391830191600101620008bc565b505084810360408601528551808252908201925081860190845b81811015620009265762000913835162000999565b85529383019391830191600101620008fe565b509298975050505050505050565b60208101600383106200094357fe5b91905290565b90815260200190565b6040518181016001600160401b03811182821017156200097157600080fd5b604052919050565b60006001600160401b038211156200098f578081fd5b5060209081020190565b6001600160a01b031690565b6001600160a01b0381168114620009bb57600080fd5b50565b60805160a05160601c60c05160e05161010051610120516101405160601c61016051610180516101a0516131ec62000a36600039806109f75250806111e85250806111c4525080610d3b525080610f28525080611553525080611595525080611574525080610d17525080610cc752506131ec6000f3fe608060405234801561001057600080fd5b50600436106102925760003560e01c80636b84323911610160578063a9059cbb116100d8578063d505accf1161008c578063eb0f24d611610071578063eb0f24d614610517578063f30d74a31461051f578063ffd088eb1461054057610292565b8063d505accf146104f1578063dd62ed3e1461050457610292565b8063aaabadc5116100bd578063aaabadc5146104ce578063b10be739146104d6578063b48b5b40146104e957610292565b8063a9059cbb146104a8578063aa61a894146104bb57610292565b8063851c1bb31161012f5780638d928af8116101145780638d928af81461048557806395d89b411461048d578063a457c2d71461049557610292565b8063851c1bb31461045d578063893d20e81461047057610292565b80636b8432391461041c57806370a082311461042f5780637ecebe001461044257806380f099811461045557610292565b80633331bc361161020e5780633b4c4b25116101c257806355c67628116101a757806355c67628146103e657806360d1507c146103ee578063679aefce1461041457610292565b80633b4c4b25146103c057806340c10f19146103d357610292565b806338e9922e116101f357806338e9922e1461039257806338fff2d0146103a557806339509351146103ad57610292565b80633331bc36146103775780633644e5151461038a57610292565b80631dccd8301161026557806323b872dd1161024a57806323b872dd1461033a5780632f1a0bc91461034d578063313ce5671461036257610292565b80631dccd830146103015780631ed4eddc1461032157610292565b806306fdde0314610297578063095ea7b3146102b557806318160ddd146102d55780631c0de051146102ea575b600080fd5b61029f610548565b6040516102ac919061308e565b60405180910390f35b6102c86102c3366004612a19565b6105fc565b6040516102ac9190612eb3565b6102dd610613565b6040516102ac9190612ed6565b6102f2610619565b6040516102ac93929190612ebe565b61031461030f366004612bcf565b610642565b6040516102ac9190612e6f565b610329610766565b6040516102ac959493929190612fe1565b6102c8610348366004612964565b6107b8565b61036061035b366004612d51565b610866565b005b61036a610949565b6040516102ac91906130de565b610360610385366004612d51565b610952565b6102dd6109ca565b6103606103a0366004612d39565b6109d9565b6102dd6109f5565b6102c86103bb366004612a19565b610a19565b6103606103ce366004612d39565b610a61565b6103606103e1366004612a19565b610a8f565b6102dd610a99565b6104016103fc366004612d39565b610aaa565b6040516102ac9796959493929190612fb1565b6102dd610af3565b61031461042a366004612b10565b610bab565b6102dd61043d366004612910565b610c62565b6102dd610450366004612910565b610c8e565b6102dd610cb6565b6102dd61046b366004612caa565b610cc3565b610478610d15565b6040516102ac9190612e4e565b610478610d39565b61029f610d5d565b6102c86104a3366004612a19565b610ddc565b6102c86104b6366004612a19565b610e1a565b6102dd6104c9366004612d51565b610e27565b610478610e41565b6102dd6104e4366004612d06565b610e4b565b6102dd610ee0565b6103606104ff3660046129a4565b610ee6565b6102dd61051236600461292c565b611070565b61036061107c565b61053261052d366004612d72565b6110a8565b6040516102ac929190612fa3565b6102dd6110eb565b60038054604080516020601f60027fffffffffffffffffffffffffffffffffffffffffffffffffffffffffffffffff6101006001881615020190951694909404938401819004810282018101909252828152606093909290918301828280156105f25780601f106105c7576101008083540402835291602001916105f2565b820191906000526020600020905b8154815290600101906020018083116105d557829003601f168201915b5050505050905090565b6000610609338484611130565b5060015b92915050565b60025490565b60008060006106266111a5565b1592506106316111c2565b915061063b6111e6565b9050909192565b6060815167ffffffffffffffff8111801561065c57600080fd5b50604051908082528060200260200182016040528015610686578160200160208202803683370190505b509050600061069361120a565b905060005b835181101561075f5773Adcd9ccb1DEf8d98E14BBf0A7252B369dB2E9A156379eaef82600a8684815181106106c957fe5b6020026020010151856040518463ffffffff1660e01b81526004016106f093929190613052565b60206040518083038186803b15801561070857600080fd5b505af415801561071c573d6000803e3d6000fd5b505050506040513d601f19601f820116820180604052508101906107409190612d21565b83828151811061074c57fe5b6020908102919091010152600101610698565b5050919050565b60008060008060008061077761121c565b905061078281611222565b955061078d8161122e565b94506107988161123b565b93506107a381611248565b92506107ae81611255565b9150509091929394565b6000806107c58533611070565b90506107f63373ffffffffffffffffffffffffffffffffffffffff871614806107ee5750838210155b61019e611262565b610801858585611270565b3373ffffffffffffffffffffffffffffffffffffffff86161480159061084757507fffffffffffffffffffffffffffffffffffffffffffffffffffffffffffffffff8114155b15610859576108598533858403611130565b60019150505b9392505050565b61086e611391565b61087e600183101561012c611262565b61088f61138883111561012d611262565b600061089b82426113d7565b90506108af6201518082101561013d611262565b6000806108ba6113ed565b915091506108cb811561013e611262565b60006108d9866103e86110f2565b90506000838211610908576109036108f462015180866110f2565b6108fe84886110f2565b611461565b610922565b61092261091862015180846110f2565b6108fe86886110f2565b9050610934600282111561013f611262565b61094084834289611494565b50505050505050565b60055460ff1690565b61096d818310801561096657506104008211155b6064611262565b600061098260016000806000806000806114e3565b9050825b828110156109c4576000818152600a60205260409020546109a690611543565b6109bc576000818152600a602052604090208290555b600101610986565b50505050565b60006109d461154f565b905090565b6109e1611391565b6109e96115ec565b6109f281611601565b50565b7f000000000000000000000000000000000000000000000000000000000000000090565b33600081815260016020908152604080832073ffffffffffffffffffffffffffffffffffffffff871684529091528120549091610609918590610a5c9086611677565b611130565b6000610a6b61121c565b9050610a80610a7983611689565b82906116c9565b9050610a8b816116d7565b5050565b610a8b82826116ec565b6008546000906109d49060c06117a0565b6000806000806000806000610ac5610400891061013b611262565b6000610ad0896117ae565b9050610adb816117c0565b959f949e50929c50909a509850965090945092505050565b60006060610aff610d39565b73ffffffffffffffffffffffffffffffffffffffff1663f94d4668610b226109f5565b6040518263ffffffff1660e01b8152600401610b3e9190612ed6565b60006040518083038186803b158015610b5657600080fd5b505afa158015610b6a573d6000803e3d6000fd5b505050506040513d6000823e601f3d908101601f19168201604052610b929190810190612a44565b509150506000610ba06113ed565b506000935050505090565b6060815167ffffffffffffffff81118015610bc557600080fd5b50604051908082528060200260200182016040528015610bef578160200160208202803683370190505b5090506000610bfc61120a565b9050610c0661287c565b60005b8451811015610c5a57848181518110610c1e57fe5b60200260200101519150610c3b8260000151848460200151611823565b848281518110610c4757fe5b6020908102919091010152600101610c09565b505050919050565b73ffffffffffffffffffffffffffffffffffffffff81166000908152602081905260409020545b919050565b73ffffffffffffffffffffffffffffffffffffffff1660009081526006602052604090205490565b60006109d4600b5461122e565b60007f000000000000000000000000000000000000000000000000000000000000000082604051602001610cf8929190612de8565b604051602081830303815290604052805190602001209050919050565b7f000000000000000000000000000000000000000000000000000000000000000090565b7f000000000000000000000000000000000000000000000000000000000000000090565b60048054604080516020601f60027fffffffffffffffffffffffffffffffffffffffffffffffffffffffffffffffff6101006001881615020190951694909404938401819004810282018101909252828152606093909290918301828280156105f25780601f106105c7576101008083540402835291602001916105f2565b600080610de93385611070565b9050808310610e0357610dfe33856000611130565b610e10565b610e103385858403611130565b5060019392505050565b6000610609338484611270565b6000610e3661271084846110a8565b506000949350505050565b60006109d46118d5565b600073Adcd9ccb1DEf8d98E14BBf0A7252B369dB2E9A15630397bee0600a84610e7261120a565b6040518463ffffffff1660e01b8152600401610e9093929190613006565b60206040518083038186803b158015610ea857600080fd5b505af4158015610ebc573d6000803e3d6000fd5b505050506040513d601f19601f8201168201806040525081019061060d9190612d21565b61040090565b610ef48442111560d1611262565b73ffffffffffffffffffffffffffffffffffffffff87166000908152600660209081526040808320549051909291610f58917f0000000000000000000000000000000000000000000000000000000000000000918c918c918c9188918d9101612f0b565b6040516020818303038152906040528051906020012090506000610f7b8261195c565b9050600060018288888860405160008152602001604052604051610fa29493929190612f85565b6020604051602081039080840390855afa158015610fc4573d6000803e3d6000fd5b5050604051601f190151915061102d905073ffffffffffffffffffffffffffffffffffffffff82161580159061102557508b73ffffffffffffffffffffffffffffffffffffffff168273ffffffffffffffffffffffffffffffffffffffff16145b6101f8611262565b73ffffffffffffffffffffffffffffffffffffffff8b1660009081526006602052604090206001850190556110638b8b8b611130565b5050505050505050505050565b600061085f8383611978565b611084611391565b60008061108f6113ed565b9150915061109f81610140611262565b610a8b826119b0565b60008060006110b561121c565b905060006110c16113ed565b5090506000806110db8389896110d68861122e565b6119eb565b909a909950975050505050505050565b6201de2090565b600082820261085f84158061110f57508385838161110c57fe5b04145b6003611262565b67ffffffffffffffff811b1992909216911b1790565b1b90565b73ffffffffffffffffffffffffffffffffffffffff80841660008181526001602090815260408083209487168084529490915290819020849055517f8c5be1e5ebec7d5bd14f71427d1e84f3dd0314c0f7b2291e5b200ac8c7c3b92590611198908590612ed6565b60405180910390a3505050565b60006111af6111e6565b4211806109d457505060075460ff161590565b7f000000000000000000000000000000000000000000000000000000000000000090565b7f000000000000000000000000000000000000000000000000000000000000000090565b60006109d461121761121c565b611248565b60085490565b600061060d8282611a42565b600061060d826016611a42565b600061060d82602c611a85565b600061060d82604b611a8f565b600061060d826055611a97565b81610a8b57610a8b81611aa1565b61129473ffffffffffffffffffffffffffffffffffffffff84161515610198611262565b6112b873ffffffffffffffffffffffffffffffffffffffff83161515610199611262565b6112c3838383611b0e565b73ffffffffffffffffffffffffffffffffffffffff83166000908152602081905260409020546112f690826101a0611b13565b73ffffffffffffffffffffffffffffffffffffffff80851660009081526020819052604080822093909355908416815220546113329082611677565b73ffffffffffffffffffffffffffffffffffffffff80841660008181526020819052604090819020939093559151908516907fddf252ad1be2c89b69c2b068fc378daa952ba7f163c4a11628f55a4df523b3ef90611198908590612ed6565b60006113c06000357fffffffff0000000000000000000000000000000000000000000000000000000016610cc3565b90506109f26113cf8233611b29565b610191611262565b60006113e7838311156001611262565b50900390565b6000806000806000806113fe611c4d565b93509350935093508042101561145157600194508383111561143557818103824203858503028161142b57fe5b048401955061144c565b818103824203848603028161144657fe5b04840395505b611459565b600094508295505b505050509091565b60006114708215156004611262565b8261147d5750600061060d565b81600184038161148957fe5b04600101905061060d565b6114a084848484611ca4565b7f1835882ee7a34ac194f717a35e09bb1d24c82a3b9d854ab6c9749525b714cdf2848484846040516114d594939291906130c3565b60405180910390a150505050565b60006114ef828261112c565b6114fa84601f611d04565b611505866054611d15565b61151088606a611d04565b61151b8a609f611d15565b6115268c60b5611d04565b6115318e60ea611d15565b17171717171798975050505050505050565b600061060d8282611a85565b60007f00000000000000000000000000000000000000000000000000000000000000007f00000000000000000000000000000000000000000000000000000000000000007f00000000000000000000000000000000000000000000000000000000000000006115bc611d22565b306040516020016115d1959493929190612f4c565b60405160208183030381529060405280519060200120905090565b6115ff6115f76111a5565b610192611262565b565b61161464e8d4a5100082101560cb611262565b61162a67016345785d8a000082111560ca611262565b600854611639908260c0611116565b6008556040517fa9ba3ffe0b6c366b81232caab38605a0699ad5398d6cce76f91ee809e322dafc9061166c908390612ed6565b60405180910390a150565b600082820161085f8482101583611262565b60008061169583611d26565b905060008082136116ae57652d79883d200082036116b8565b652d79883d200082015b655af3107a40009005949350505050565b600061085f83836016611d8a565b6008546116e690826000611da1565b60085550565b6116f860008383611b0e565b6002546117059082611677565b60025573ffffffffffffffffffffffffffffffffffffffff82166000908152602081905260409020546117389082611677565b73ffffffffffffffffffffffffffffffffffffffff83166000818152602081905260408082209390935591519091907fddf252ad1be2c89b69c2b068fc378daa952ba7f163c4a11628f55a4df523b3ef90611794908590612ed6565b60405180910390a35050565b1c67ffffffffffffffff1690565b6000908152600a602052604090205490565b60008060008060008060006117d488611dcd565b96506117df88611dda565b95506117ea88611de7565b94506117f588611df4565b935061180088611e01565b925061180b88611e0e565b915061181688611543565b9050919395979092949650565b6040517f34171a8500000000000000000000000000000000000000000000000000000000815260009073Adcd9ccb1DEf8d98E14BBf0A7252B369dB2E9A15906334171a859061187d90600a90889088908890600401613027565b60206040518083038186803b15801561189557600080fd5b505af41580156118a9573d6000803e3d6000fd5b505050506040513d601f19601f820116820180604052508101906118cd9190612d21565b949350505050565b60006118df610d39565b73ffffffffffffffffffffffffffffffffffffffff1663aaabadc56040518163ffffffff1660e01b815260040160206040518083038186803b15801561192457600080fd5b505afa158015611938573d6000803e3d6000fd5b505050506040513d601f19601f820116820180604052508101906109d49190612cea565b600061196661154f565b82604051602001610cf8929190612e18565b73ffffffffffffffffffffffffffffffffffffffff918216600090815260016020908152604080832093909416825291909152205490565b6119bc81824242611ca4565b7fa0d01593e47e69d07e0ccd87bece09411e07dd1ed40ca8f2e7af2976542a02338160405161166c9190612ed6565b600080611a106040518060600160405280602d815260200161318a602d913986611e1b565b6000611a1d878787611e8e565b9050611a2b8187878761206b565b9150611a3681611689565b92505094509492505050565b600082821c623fffff16621fffff8113611a5c57806118cd565b7fffffffffffffffffffffffffffffffffffffffffffffffffffffffffffc00000179392505050565b1c637fffffff1690565b1c6103ff1690565b1c60019081161490565b7f08c379a0000000000000000000000000000000000000000000000000000000006000908152602060045260076024526642414c23000030600a808404818106603090810160081b95839006959095019082900491820690940160101b939093010160c81b604452606490fd5b505050565b6000611b228484111583611262565b5050900390565b600073ba1ba1ba1ba1ba1ba1ba1ba1ba1ba1ba1ba1ba1b611b48610d15565b73ffffffffffffffffffffffffffffffffffffffff1614158015611b705750611b7083612096565b15611bb257611b7d610d15565b73ffffffffffffffffffffffffffffffffffffffff163373ffffffffffffffffffffffffffffffffffffffff1614905061060d565b611bba6118d5565b73ffffffffffffffffffffffffffffffffffffffff16639be2a8848484306040518463ffffffff1660e01b8152600401611bf693929190612edf565b60206040518083038186803b158015611c0e57600080fd5b505afa158015611c22573d6000803e3d6000fd5b505050506040513d601f19601f82011682018060405250810190611c469190612c8a565b905061060d565b600080600080611c6960006009546117a090919063ffffffff16565b600954909450611c7a9060406117a0565b600954909350611c8b9060806117a0565b600954909250611c9c9060c06117a0565b905090919293565b611cb98167ffffffffffffffff1660c061112c565b611cce8367ffffffffffffffff16608061112c565b611ce38567ffffffffffffffff16604061112c565b611cf88767ffffffffffffffff16600061112c565b17171760095550505050565b661fffffffffffff91909116901b90565b623fffff91909116901b90565b4690565b6000611d36600083136064611262565b670c7d713b49da000082138015611d545750670f43fc2c04ee000082125b15611d7a57670de0b6b3a7640000611d6b83612104565b81611d7257fe5b059050610c89565b611d838261223b565b9050610c89565b623fffff828116821b90821b198416179392505050565b77ffffffffffffffffffffffffffffffffffffffffffffffff828116821b90821b198416179392505050565b600061060d8260ea611a42565b600061060d8260b56125db565b600061060d82609f611a42565b600061060d82606a6125db565b600061060d826054611a42565b600061060d82601f6125db565b610a8b8282604051602401611e319291906130a1565b60408051601f198184030181529190526020810180517bffffffffffffffffffffffffffffffffffffffffffffffffffffffff167fb60e72cc00000000000000000000000000000000000000000000000000000000179052612626565b6000611ece6040518060400160405280601081526020017f537461626c654f7261636c654d61746800000000000000000000000000000000815250612647565b6000611ee585611ede86866126b8565b6001612712565b9050611f096040518060600160405280602a8152602001613160602a913986611e1b565b60408051808201909152601581527f537461626c654f7261636c654d6174682061202573000000000000000000000060208201526103e8600287020490611f509082611e1b565b6000611f6683611f6085856110f2565b906113d7565b9050611fa76040518060400160405280601581526020017f537461626c654f7261636c654d6174682062202573000000000000000000000081525082611e1b565b6000611fc086611fba856002028a6110f2565b9061276c565b90506120016040518060400160405280601881526020017f537461626c654f7261636c654d6174682061787932202573000000000000000081525082611e1b565b6000612028612010848961276c565b611f606120218a611fba898d6110f2565b8590611677565b90506000612051612039858b61276c565b611f6061204a8c611fba8a8f6110f2565b8690611677565b905061205d8282612798565b9a9950505050505050505050565b60008061207b61204a87866127ef565b9050600061208882611689565b939093039695505050505050565b60006120c17f2f1a0bc900000000000000000000000000000000000000000000000000000000610cc3565b8214806120f557506120f27feb0f24d600000000000000000000000000000000000000000000000000000000610cc3565b82145b8061060d575061060d82612849565b670de0b6b3a7640000026000806ec097ce7bc90715b34b9f1000000000808401907fffffffffffffffffffffffffffffffffff3f68318436f8ea4cb460f0000000008501028161215057fe5b05905060006ec097ce7bc90715b34b9f100000000082800205905081806ec097ce7bc90715b34b9f100000000081840205915060038205016ec097ce7bc90715b34b9f100000000082840205915060058205016ec097ce7bc90715b34b9f100000000082840205915060078205016ec097ce7bc90715b34b9f100000000082840205915060098205016ec097ce7bc90715b34b9f1000000000828402059150600b8205016ec097ce7bc90715b34b9f1000000000828402059150600d8205016ec097ce7bc90715b34b9f1000000000828402059150600f826002919005919091010295945050505050565b6000670de0b6b3a76400008212156122785761226e826ec097ce7bc90715b34b9f10000000008161226857fe5b0561223b565b6000039050610c89565b60007e1600ef3172e58d2e933ec884fde10064c63b5372d805e203c000000000000083126122c957770195e54c5dd42177f53a27172fa9ec630262827000000000830592506806f05b59d3b2000000015b73011798004d755d3c8bc8e03204cf44619e0000008312612301576b1425982cf597cd205cef7380830592506803782dace9d9000000015b606492830292026e01855144814a7ff805980ff00840008312612349576e01855144814a7ff805980ff008400068056bc75e2d63100000840205925068ad78ebc5ac62000000015b6b02df0ab5a80a22c61ab5a7008312612384576b02df0ab5a80a22c61ab5a70068056bc75e2d6310000084020592506856bc75e2d631000000015b693f1fce3da636ea5cf85083126123bb57693f1fce3da636ea5cf85068056bc75e2d631000008402059250682b5e3af16b18800000015b690127fa27722cc06cc5e283126123f257690127fa27722cc06cc5e268056bc75e2d6310000084020592506815af1d78b58c400000015b68280e60114edb805d0383126124275768280e60114edb805d0368056bc75e2d631000008402059250680ad78ebc5ac6200000015b680ebc5fb41746121110831261245257680ebc5fb4174612111068056bc75e2d631000009384020592015b6808f00f760a4b2db55d8312612487576808f00f760a4b2db55d68056bc75e2d6310000084020592506802b5e3af16b1880000015b6806f5f177578893793783126124bc576806f5f177578893793768056bc75e2d63100000840205925068015af1d78b58c40000015b6806248f33704b28660383126124f0576806248f33704b28660368056bc75e2d63100000840205925067ad78ebc5ac620000015b6805c548670b9510e7ac8312612524576805c548670b9510e7ac68056bc75e2d6310000084020592506756bc75e2d6310000015b600068056bc75e2d63100000840168056bc75e2d63100000808603028161254757fe5b059050600068056bc75e2d63100000828002059050818068056bc75e2d63100000818402059150600382050168056bc75e2d63100000828402059150600582050168056bc75e2d63100000828402059150600782050168056bc75e2d63100000828402059150600982050168056bc75e2d63100000828402059150600b820501600202606485820105979650505050505050565b600082821c661fffffffffffff16660fffffffffffff81136125fd57806118cd565b7fffffffffffffffffffffffffffffffffffffffffffffffffffe0000000000000179392505050565b80516a636f6e736f6c652e6c6f67602083016000808483855afa5050505050565b6109f28160405160240161265b919061308e565b60408051601f198184030181529190526020810180517bffffffffffffffffffffffffffffffffffffffffffffffffffffffff167f41304fac00000000000000000000000000000000000000000000000000000000179052612626565b604080516002808252606080830184529260208301908036833701905050905082816000815181106126e657fe5b602002602001018181525050818160018151811061270057fe5b60200260200101818152505092915050565b81516000908190815b818110156127535761274986828151811061273257fe5b60200260200101518461167790919063ffffffff16565b925060010161271b565b50816127645760009250505061085f565b50905061085f565b600082820261278684158061110f57508385838161110c57fe5b670de0b6b3a764000090049392505050565b60006127a78215156004611262565b826127b45750600061060d565b670de0b6b3a7640000838102906127d7908583816127ce57fe5b04146005611262565b8260018203816127e357fe5b0460010191505061060d565b600082820261280984158061110f57508385838161110c57fe5b8061281857600091505061060d565b670de0b6b3a76400007fffffffffffffffffffffffffffffffffffffffffffffffffffffffffffffffff82016127e3565b60006128747f38e9922e00000000000000000000000000000000000000000000000000000000610cc3565b909114919050565b604080518082019091526000808252602082015290565b600082601f8301126128a3578081fd5b81516128b66128b182613113565b6130ec565b8181529150602080830190848101818402860182018710156128d757600080fd5b60005b848110156128f6578151845292820192908201906001016128da565b505050505092915050565b80356003811061060d57600080fd5b600060208284031215612921578081fd5b813561085f8161313d565b6000806040838503121561293e578081fd5b82356129498161313d565b915060208301356129598161313d565b809150509250929050565b600080600060608486031215612978578081fd5b83356129838161313d565b925060208401356129938161313d565b929592945050506040919091013590565b600080600080600080600060e0888a0312156129be578283fd5b87356129c98161313d565b965060208801356129d98161313d565b95506040880135945060608801359350608088013560ff811681146129fc578384fd5b9699959850939692959460a0840135945060c09093013592915050565b60008060408385031215612a2b578182fd5b8235612a368161313d565b946020939093013593505050565b600080600060608486031215612a58578081fd5b835167ffffffffffffffff80821115612a6f578283fd5b818601915086601f830112612a82578283fd5b8151612a906128b182613113565b80828252602080830192508086018b828387028901011115612ab0578788fd5b8796505b84871015612adb578051612ac78161313d565b845260019690960195928101928101612ab4565b508901519097509350505080821115612af2578283fd5b50612aff86828701612893565b925050604084015190509250925092565b60006020808385031215612b22578182fd5b823567ffffffffffffffff811115612b38578283fd5b8301601f81018513612b48578283fd5b8035612b566128b182613113565b818152838101908385016040808502860187018a1015612b74578788fd5b8795505b84861015612bc15780828b031215612b8e578788fd5b612b97816130ec565b612ba18b84612901565b815282880135888201528452600195909501949286019290810190612b78565b509098975050505050505050565b60006020808385031215612be1578182fd5b823567ffffffffffffffff811115612bf7578283fd5b8301601f81018513612c07578283fd5b8035612c156128b182613113565b818152838101908385016060808502860187018a1015612c33578788fd5b8795505b84861015612bc15780828b031215612c4d578788fd5b612c56816130ec565b612c608b84612901565b81528288013588820152604080840135908201528452600195909501949286019290810190612c37565b600060208284031215612c9b578081fd5b8151801515811461085f578182fd5b600060208284031215612cbb578081fd5b81357fffffffff000000000000000000000000000000000000000000000000000000008116811461085f578182fd5b600060208284031215612cfb578081fd5b815161085f8161313d565b600060208284031215612d17578081fd5b61085f8383612901565b600060208284031215612d32578081fd5b5051919050565b600060208284031215612d4a578081fd5b5035919050565b60008060408385031215612d63578182fd5b50508035926020909101359150565b600080600060608486031215612d86578081fd5b505081359360208301359350604090920135919050565b60008151808452815b81811015612dc257602081850181015186830182015201612da6565b81811115612dd35782602083870101525b50601f01601f19169290920160200192915050565b9182527fffffffff0000000000000000000000000000000000000000000000000000000016602082015260240190565b7f190100000000000000000000000000000000000000000000000000000000000081526002810192909252602282015260420190565b73ffffffffffffffffffffffffffffffffffffffff91909116815260200190565b6020808252825182820181905260009190848201906040850190845b81811015612ea757835183529284019291840191600101612e8b565b50909695505050505050565b901515815260200190565b92151583526020830191909152604082015260600190565b90815260200190565b92835273ffffffffffffffffffffffffffffffffffffffff918216602084015216604082015260600190565b95865273ffffffffffffffffffffffffffffffffffffffff94851660208701529290931660408501526060840152608083019190915260a082015260c00190565b94855260208501939093526040840191909152606083015273ffffffffffffffffffffffffffffffffffffffff16608082015260a00190565b93845260ff9290921660208401526040830152606082015260800190565b918252602082015260400190565b968752602087019590955260408601939093526060850191909152608084015260a083015260c082015260e00190565b9485526020850193909352604084019190915260608301521515608082015260a00190565b8381526060810161301684613133565b602082019390935260400152919050565b8481526080810161303785613133565b84602083015283604083015282606083015295945050505050565b838152825160a082019061306581613133565b806020840152506020840151604083015260408401516060830152826080830152949350505050565b60006020825261085f6020830184612d9d565b6000604082526130b46040830185612d9d565b90508260208301529392505050565b93845260208401929092526040830152606082015260800190565b60ff91909116815260200190565b60405181810167ffffffffffffffff8111828210171561310b57600080fd5b604052919050565b600067ffffffffffffffff821115613129578081fd5b5060209081020190565b600381106109f257fe5b73ffffffffffffffffffffffffffffffffffffffff811681146109f257600080fdfe537461626c654f7261636c654d61746820616d706c696669636174696f6e506172616d657465722025736c6f67427074546f74616c537570706c79202573202c20616d706c696669636174696f6e506172616d65746572a2646970667358221220c82f174f85772469aeded042e6fd6843a3974b274c1da95020f29b332808db7a64736f6c63430007010033",
  "deployedBytecode": "0x608060405234801561001057600080fd5b50600436106102925760003560e01c80636b84323911610160578063a9059cbb116100d8578063d505accf1161008c578063eb0f24d611610071578063eb0f24d614610517578063f30d74a31461051f578063ffd088eb1461054057610292565b8063d505accf146104f1578063dd62ed3e1461050457610292565b8063aaabadc5116100bd578063aaabadc5146104ce578063b10be739146104d6578063b48b5b40146104e957610292565b8063a9059cbb146104a8578063aa61a894146104bb57610292565b8063851c1bb31161012f5780638d928af8116101145780638d928af81461048557806395d89b411461048d578063a457c2d71461049557610292565b8063851c1bb31461045d578063893d20e81461047057610292565b80636b8432391461041c57806370a082311461042f5780637ecebe001461044257806380f099811461045557610292565b80633331bc361161020e5780633b4c4b25116101c257806355c67628116101a757806355c67628146103e657806360d1507c146103ee578063679aefce1461041457610292565b80633b4c4b25146103c057806340c10f19146103d357610292565b806338e9922e116101f357806338e9922e1461039257806338fff2d0146103a557806339509351146103ad57610292565b80633331bc36146103775780633644e5151461038a57610292565b80631dccd8301161026557806323b872dd1161024a57806323b872dd1461033a5780632f1a0bc91461034d578063313ce5671461036257610292565b80631dccd830146103015780631ed4eddc1461032157610292565b806306fdde0314610297578063095ea7b3146102b557806318160ddd146102d55780631c0de051146102ea575b600080fd5b61029f610548565b6040516102ac919061308e565b60405180910390f35b6102c86102c3366004612a19565b6105fc565b6040516102ac9190612eb3565b6102dd610613565b6040516102ac9190612ed6565b6102f2610619565b6040516102ac93929190612ebe565b61031461030f366004612bcf565b610642565b6040516102ac9190612e6f565b610329610766565b6040516102ac959493929190612fe1565b6102c8610348366004612964565b6107b8565b61036061035b366004612d51565b610866565b005b61036a610949565b6040516102ac91906130de565b610360610385366004612d51565b610952565b6102dd6109ca565b6103606103a0366004612d39565b6109d9565b6102dd6109f5565b6102c86103bb366004612a19565b610a19565b6103606103ce366004612d39565b610a61565b6103606103e1366004612a19565b610a8f565b6102dd610a99565b6104016103fc366004612d39565b610aaa565b6040516102ac9796959493929190612fb1565b6102dd610af3565b61031461042a366004612b10565b610bab565b6102dd61043d366004612910565b610c62565b6102dd610450366004612910565b610c8e565b6102dd610cb6565b6102dd61046b366004612caa565b610cc3565b610478610d15565b6040516102ac9190612e4e565b610478610d39565b61029f610d5d565b6102c86104a3366004612a19565b610ddc565b6102c86104b6366004612a19565b610e1a565b6102dd6104c9366004612d51565b610e27565b610478610e41565b6102dd6104e4366004612d06565b610e4b565b6102dd610ee0565b6103606104ff3660046129a4565b610ee6565b6102dd61051236600461292c565b611070565b61036061107c565b61053261052d366004612d72565b6110a8565b6040516102ac929190612fa3565b6102dd6110eb565b60038054604080516020601f60027fffffffffffffffffffffffffffffffffffffffffffffffffffffffffffffffff6101006001881615020190951694909404938401819004810282018101909252828152606093909290918301828280156105f25780601f106105c7576101008083540402835291602001916105f2565b820191906000526020600020905b8154815290600101906020018083116105d557829003601f168201915b5050505050905090565b6000610609338484611130565b5060015b92915050565b60025490565b60008060006106266111a5565b1592506106316111c2565b915061063b6111e6565b9050909192565b6060815167ffffffffffffffff8111801561065c57600080fd5b50604051908082528060200260200182016040528015610686578160200160208202803683370190505b509050600061069361120a565b905060005b835181101561075f5773__$470f64fcc77b98a3bea928d9934b875640$__6379eaef82600a8684815181106106c957fe5b6020026020010151856040518463ffffffff1660e01b81526004016106f093929190613052565b60206040518083038186803b15801561070857600080fd5b505af415801561071c573d6000803e3d6000fd5b505050506040513d601f19601f820116820180604052508101906107409190612d21565b83828151811061074c57fe5b6020908102919091010152600101610698565b5050919050565b60008060008060008061077761121c565b905061078281611222565b955061078d8161122e565b94506107988161123b565b93506107a381611248565b92506107ae81611255565b9150509091929394565b6000806107c58533611070565b90506107f63373ffffffffffffffffffffffffffffffffffffffff871614806107ee5750838210155b61019e611262565b610801858585611270565b3373ffffffffffffffffffffffffffffffffffffffff86161480159061084757507fffffffffffffffffffffffffffffffffffffffffffffffffffffffffffffffff8114155b15610859576108598533858403611130565b60019150505b9392505050565b61086e611391565b61087e600183101561012c611262565b61088f61138883111561012d611262565b600061089b82426113d7565b90506108af6201518082101561013d611262565b6000806108ba6113ed565b915091506108cb811561013e611262565b60006108d9866103e86110f2565b90506000838211610908576109036108f462015180866110f2565b6108fe84886110f2565b611461565b610922565b61092261091862015180846110f2565b6108fe86886110f2565b9050610934600282111561013f611262565b61094084834289611494565b50505050505050565b60055460ff1690565b61096d818310801561096657506104008211155b6064611262565b600061098260016000806000806000806114e3565b9050825b828110156109c4576000818152600a60205260409020546109a690611543565b6109bc576000818152600a602052604090208290555b600101610986565b50505050565b60006109d461154f565b905090565b6109e1611391565b6109e96115ec565b6109f281611601565b50565b7f000000000000000000000000000000000000000000000000000000000000000090565b33600081815260016020908152604080832073ffffffffffffffffffffffffffffffffffffffff871684529091528120549091610609918590610a5c9086611677565b611130565b6000610a6b61121c565b9050610a80610a7983611689565b82906116c9565b9050610a8b816116d7565b5050565b610a8b82826116ec565b6008546000906109d49060c06117a0565b6000806000806000806000610ac5610400891061013b611262565b6000610ad0896117ae565b9050610adb816117c0565b959f949e50929c50909a509850965090945092505050565b60006060610aff610d39565b73ffffffffffffffffffffffffffffffffffffffff1663f94d4668610b226109f5565b6040518263ffffffff1660e01b8152600401610b3e9190612ed6565b60006040518083038186803b158015610b5657600080fd5b505afa158015610b6a573d6000803e3d6000fd5b505050506040513d6000823e601f3d908101601f19168201604052610b929190810190612a44565b509150506000610ba06113ed565b506000935050505090565b6060815167ffffffffffffffff81118015610bc557600080fd5b50604051908082528060200260200182016040528015610bef578160200160208202803683370190505b5090506000610bfc61120a565b9050610c0661287c565b60005b8451811015610c5a57848181518110610c1e57fe5b60200260200101519150610c3b8260000151848460200151611823565b848281518110610c4757fe5b6020908102919091010152600101610c09565b505050919050565b73ffffffffffffffffffffffffffffffffffffffff81166000908152602081905260409020545b919050565b73ffffffffffffffffffffffffffffffffffffffff1660009081526006602052604090205490565b60006109d4600b5461122e565b60007f000000000000000000000000000000000000000000000000000000000000000082604051602001610cf8929190612de8565b604051602081830303815290604052805190602001209050919050565b7f000000000000000000000000000000000000000000000000000000000000000090565b7f000000000000000000000000000000000000000000000000000000000000000090565b60048054604080516020601f60027fffffffffffffffffffffffffffffffffffffffffffffffffffffffffffffffff6101006001881615020190951694909404938401819004810282018101909252828152606093909290918301828280156105f25780601f106105c7576101008083540402835291602001916105f2565b600080610de93385611070565b9050808310610e0357610dfe33856000611130565b610e10565b610e103385858403611130565b5060019392505050565b6000610609338484611270565b6000610e3661271084846110a8565b506000949350505050565b60006109d46118d5565b600073__$470f64fcc77b98a3bea928d9934b875640$__630397bee0600a84610e7261120a565b6040518463ffffffff1660e01b8152600401610e9093929190613006565b60206040518083038186803b158015610ea857600080fd5b505af4158015610ebc573d6000803e3d6000fd5b505050506040513d601f19601f8201168201806040525081019061060d9190612d21565b61040090565b610ef48442111560d1611262565b73ffffffffffffffffffffffffffffffffffffffff87166000908152600660209081526040808320549051909291610f58917f0000000000000000000000000000000000000000000000000000000000000000918c918c918c9188918d9101612f0b565b6040516020818303038152906040528051906020012090506000610f7b8261195c565b9050600060018288888860405160008152602001604052604051610fa29493929190612f85565b6020604051602081039080840390855afa158015610fc4573d6000803e3d6000fd5b5050604051601f190151915061102d905073ffffffffffffffffffffffffffffffffffffffff82161580159061102557508b73ffffffffffffffffffffffffffffffffffffffff168273ffffffffffffffffffffffffffffffffffffffff16145b6101f8611262565b73ffffffffffffffffffffffffffffffffffffffff8b1660009081526006602052604090206001850190556110638b8b8b611130565b5050505050505050505050565b600061085f8383611978565b611084611391565b60008061108f6113ed565b9150915061109f81610140611262565b610a8b826119b0565b60008060006110b561121c565b905060006110c16113ed565b5090506000806110db8389896110d68861122e565b6119eb565b909a909950975050505050505050565b6201de2090565b600082820261085f84158061110f57508385838161110c57fe5b04145b6003611262565b67ffffffffffffffff811b1992909216911b1790565b1b90565b73ffffffffffffffffffffffffffffffffffffffff80841660008181526001602090815260408083209487168084529490915290819020849055517f8c5be1e5ebec7d5bd14f71427d1e84f3dd0314c0f7b2291e5b200ac8c7c3b92590611198908590612ed6565b60405180910390a3505050565b60006111af6111e6565b4211806109d457505060075460ff161590565b7f000000000000000000000000000000000000000000000000000000000000000090565b7f000000000000000000000000000000000000000000000000000000000000000090565b60006109d461121761121c565b611248565b60085490565b600061060d8282611a42565b600061060d826016611a42565b600061060d82602c611a85565b600061060d82604b611a8f565b600061060d826055611a97565b81610a8b57610a8b81611aa1565b61129473ffffffffffffffffffffffffffffffffffffffff84161515610198611262565b6112b873ffffffffffffffffffffffffffffffffffffffff83161515610199611262565b6112c3838383611b0e565b73ffffffffffffffffffffffffffffffffffffffff83166000908152602081905260409020546112f690826101a0611b13565b73ffffffffffffffffffffffffffffffffffffffff80851660009081526020819052604080822093909355908416815220546113329082611677565b73ffffffffffffffffffffffffffffffffffffffff80841660008181526020819052604090819020939093559151908516907fddf252ad1be2c89b69c2b068fc378daa952ba7f163c4a11628f55a4df523b3ef90611198908590612ed6565b60006113c06000357fffffffff0000000000000000000000000000000000000000000000000000000016610cc3565b90506109f26113cf8233611b29565b610191611262565b60006113e7838311156001611262565b50900390565b6000806000806000806113fe611c4d565b93509350935093508042101561145157600194508383111561143557818103824203858503028161142b57fe5b048401955061144c565b818103824203848603028161144657fe5b04840395505b611459565b600094508295505b505050509091565b60006114708215156004611262565b8261147d5750600061060d565b81600184038161148957fe5b04600101905061060d565b6114a084848484611ca4565b7f1835882ee7a34ac194f717a35e09bb1d24c82a3b9d854ab6c9749525b714cdf2848484846040516114d594939291906130c3565b60405180910390a150505050565b60006114ef828261112c565b6114fa84601f611d04565b611505866054611d15565b61151088606a611d04565b61151b8a609f611d15565b6115268c60b5611d04565b6115318e60ea611d15565b17171717171798975050505050505050565b600061060d8282611a85565b60007f00000000000000000000000000000000000000000000000000000000000000007f00000000000000000000000000000000000000000000000000000000000000007f00000000000000000000000000000000000000000000000000000000000000006115bc611d22565b306040516020016115d1959493929190612f4c565b60405160208183030381529060405280519060200120905090565b6115ff6115f76111a5565b610192611262565b565b61161464e8d4a5100082101560cb611262565b61162a67016345785d8a000082111560ca611262565b600854611639908260c0611116565b6008556040517fa9ba3ffe0b6c366b81232caab38605a0699ad5398d6cce76f91ee809e322dafc9061166c908390612ed6565b60405180910390a150565b600082820161085f8482101583611262565b60008061169583611d26565b905060008082136116ae57652d79883d200082036116b8565b652d79883d200082015b655af3107a40009005949350505050565b600061085f83836016611d8a565b6008546116e690826000611da1565b60085550565b6116f860008383611b0e565b6002546117059082611677565b60025573ffffffffffffffffffffffffffffffffffffffff82166000908152602081905260409020546117389082611677565b73ffffffffffffffffffffffffffffffffffffffff83166000818152602081905260408082209390935591519091907fddf252ad1be2c89b69c2b068fc378daa952ba7f163c4a11628f55a4df523b3ef90611794908590612ed6565b60405180910390a35050565b1c67ffffffffffffffff1690565b6000908152600a602052604090205490565b60008060008060008060006117d488611dcd565b96506117df88611dda565b95506117ea88611de7565b94506117f588611df4565b935061180088611e01565b925061180b88611e0e565b915061181688611543565b9050919395979092949650565b6040517f34171a8500000000000000000000000000000000000000000000000000000000815260009073__$470f64fcc77b98a3bea928d9934b875640$__906334171a859061187d90600a90889088908890600401613027565b60206040518083038186803b15801561189557600080fd5b505af41580156118a9573d6000803e3d6000fd5b505050506040513d601f19601f820116820180604052508101906118cd9190612d21565b949350505050565b60006118df610d39565b73ffffffffffffffffffffffffffffffffffffffff1663aaabadc56040518163ffffffff1660e01b815260040160206040518083038186803b15801561192457600080fd5b505afa158015611938573d6000803e3d6000fd5b505050506040513d601f19601f820116820180604052508101906109d49190612cea565b600061196661154f565b82604051602001610cf8929190612e18565b73ffffffffffffffffffffffffffffffffffffffff918216600090815260016020908152604080832093909416825291909152205490565b6119bc81824242611ca4565b7fa0d01593e47e69d07e0ccd87bece09411e07dd1ed40ca8f2e7af2976542a02338160405161166c9190612ed6565b600080611a106040518060600160405280602d815260200161318a602d913986611e1b565b6000611a1d878787611e8e565b9050611a2b8187878761206b565b9150611a3681611689565b92505094509492505050565b600082821c623fffff16621fffff8113611a5c57806118cd565b7fffffffffffffffffffffffffffffffffffffffffffffffffffffffffffc00000179392505050565b1c637fffffff1690565b1c6103ff1690565b1c60019081161490565b7f08c379a0000000000000000000000000000000000000000000000000000000006000908152602060045260076024526642414c23000030600a808404818106603090810160081b95839006959095019082900491820690940160101b939093010160c81b604452606490fd5b505050565b6000611b228484111583611262565b5050900390565b600073ba1ba1ba1ba1ba1ba1ba1ba1ba1ba1ba1ba1ba1b611b48610d15565b73ffffffffffffffffffffffffffffffffffffffff1614158015611b705750611b7083612096565b15611bb257611b7d610d15565b73ffffffffffffffffffffffffffffffffffffffff163373ffffffffffffffffffffffffffffffffffffffff1614905061060d565b611bba6118d5565b73ffffffffffffffffffffffffffffffffffffffff16639be2a8848484306040518463ffffffff1660e01b8152600401611bf693929190612edf565b60206040518083038186803b158015611c0e57600080fd5b505afa158015611c22573d6000803e3d6000fd5b505050506040513d601f19601f82011682018060405250810190611c469190612c8a565b905061060d565b600080600080611c6960006009546117a090919063ffffffff16565b600954909450611c7a9060406117a0565b600954909350611c8b9060806117a0565b600954909250611c9c9060c06117a0565b905090919293565b611cb98167ffffffffffffffff1660c061112c565b611cce8367ffffffffffffffff16608061112c565b611ce38567ffffffffffffffff16604061112c565b611cf88767ffffffffffffffff16600061112c565b17171760095550505050565b661fffffffffffff91909116901b90565b623fffff91909116901b90565b4690565b6000611d36600083136064611262565b670c7d713b49da000082138015611d545750670f43fc2c04ee000082125b15611d7a57670de0b6b3a7640000611d6b83612104565b81611d7257fe5b059050610c89565b611d838261223b565b9050610c89565b623fffff828116821b90821b198416179392505050565b77ffffffffffffffffffffffffffffffffffffffffffffffff828116821b90821b198416179392505050565b600061060d8260ea611a42565b600061060d8260b56125db565b600061060d82609f611a42565b600061060d82606a6125db565b600061060d826054611a42565b600061060d82601f6125db565b610a8b8282604051602401611e319291906130a1565b60408051601f198184030181529190526020810180517bffffffffffffffffffffffffffffffffffffffffffffffffffffffff167fb60e72cc00000000000000000000000000000000000000000000000000000000179052612626565b6000611ece6040518060400160405280601081526020017f537461626c654f7261636c654d61746800000000000000000000000000000000815250612647565b6000611ee585611ede86866126b8565b6001612712565b9050611f096040518060600160405280602a8152602001613160602a913986611e1b565b60408051808201909152601581527f537461626c654f7261636c654d6174682061202573000000000000000000000060208201526103e8600287020490611f509082611e1b565b6000611f6683611f6085856110f2565b906113d7565b9050611fa76040518060400160405280601581526020017f537461626c654f7261636c654d6174682062202573000000000000000000000081525082611e1b565b6000611fc086611fba856002028a6110f2565b9061276c565b90506120016040518060400160405280601881526020017f537461626c654f7261636c654d6174682061787932202573000000000000000081525082611e1b565b6000612028612010848961276c565b611f606120218a611fba898d6110f2565b8590611677565b90506000612051612039858b61276c565b611f6061204a8c611fba8a8f6110f2565b8690611677565b905061205d8282612798565b9a9950505050505050505050565b60008061207b61204a87866127ef565b9050600061208882611689565b939093039695505050505050565b60006120c17f2f1a0bc900000000000000000000000000000000000000000000000000000000610cc3565b8214806120f557506120f27feb0f24d600000000000000000000000000000000000000000000000000000000610cc3565b82145b8061060d575061060d82612849565b670de0b6b3a7640000026000806ec097ce7bc90715b34b9f1000000000808401907fffffffffffffffffffffffffffffffffff3f68318436f8ea4cb460f0000000008501028161215057fe5b05905060006ec097ce7bc90715b34b9f100000000082800205905081806ec097ce7bc90715b34b9f100000000081840205915060038205016ec097ce7bc90715b34b9f100000000082840205915060058205016ec097ce7bc90715b34b9f100000000082840205915060078205016ec097ce7bc90715b34b9f100000000082840205915060098205016ec097ce7bc90715b34b9f1000000000828402059150600b8205016ec097ce7bc90715b34b9f1000000000828402059150600d8205016ec097ce7bc90715b34b9f1000000000828402059150600f826002919005919091010295945050505050565b6000670de0b6b3a76400008212156122785761226e826ec097ce7bc90715b34b9f10000000008161226857fe5b0561223b565b6000039050610c89565b60007e1600ef3172e58d2e933ec884fde10064c63b5372d805e203c000000000000083126122c957770195e54c5dd42177f53a27172fa9ec630262827000000000830592506806f05b59d3b2000000015b73011798004d755d3c8bc8e03204cf44619e0000008312612301576b1425982cf597cd205cef7380830592506803782dace9d9000000015b606492830292026e01855144814a7ff805980ff00840008312612349576e01855144814a7ff805980ff008400068056bc75e2d63100000840205925068ad78ebc5ac62000000015b6b02df0ab5a80a22c61ab5a7008312612384576b02df0ab5a80a22c61ab5a70068056bc75e2d6310000084020592506856bc75e2d631000000015b693f1fce3da636ea5cf85083126123bb57693f1fce3da636ea5cf85068056bc75e2d631000008402059250682b5e3af16b18800000015b690127fa27722cc06cc5e283126123f257690127fa27722cc06cc5e268056bc75e2d6310000084020592506815af1d78b58c400000015b68280e60114edb805d0383126124275768280e60114edb805d0368056bc75e2d631000008402059250680ad78ebc5ac6200000015b680ebc5fb41746121110831261245257680ebc5fb4174612111068056bc75e2d631000009384020592015b6808f00f760a4b2db55d8312612487576808f00f760a4b2db55d68056bc75e2d6310000084020592506802b5e3af16b1880000015b6806f5f177578893793783126124bc576806f5f177578893793768056bc75e2d63100000840205925068015af1d78b58c40000015b6806248f33704b28660383126124f0576806248f33704b28660368056bc75e2d63100000840205925067ad78ebc5ac620000015b6805c548670b9510e7ac8312612524576805c548670b9510e7ac68056bc75e2d6310000084020592506756bc75e2d6310000015b600068056bc75e2d63100000840168056bc75e2d63100000808603028161254757fe5b059050600068056bc75e2d63100000828002059050818068056bc75e2d63100000818402059150600382050168056bc75e2d63100000828402059150600582050168056bc75e2d63100000828402059150600782050168056bc75e2d63100000828402059150600982050168056bc75e2d63100000828402059150600b820501600202606485820105979650505050505050565b600082821c661fffffffffffff16660fffffffffffff81136125fd57806118cd565b7fffffffffffffffffffffffffffffffffffffffffffffffffffe0000000000000179392505050565b80516a636f6e736f6c652e6c6f67602083016000808483855afa5050505050565b6109f28160405160240161265b919061308e565b60408051601f198184030181529190526020810180517bffffffffffffffffffffffffffffffffffffffffffffffffffffffff167f41304fac00000000000000000000000000000000000000000000000000000000179052612626565b604080516002808252606080830184529260208301908036833701905050905082816000815181106126e657fe5b602002602001018181525050818160018151811061270057fe5b60200260200101818152505092915050565b81516000908190815b818110156127535761274986828151811061273257fe5b60200260200101518461167790919063ffffffff16565b925060010161271b565b50816127645760009250505061085f565b50905061085f565b600082820261278684158061110f57508385838161110c57fe5b670de0b6b3a764000090049392505050565b60006127a78215156004611262565b826127b45750600061060d565b670de0b6b3a7640000838102906127d7908583816127ce57fe5b04146005611262565b8260018203816127e357fe5b0460010191505061060d565b600082820261280984158061110f57508385838161110c57fe5b8061281857600091505061060d565b670de0b6b3a76400007fffffffffffffffffffffffffffffffffffffffffffffffffffffffffffffffff82016127e3565b60006128747f38e9922e00000000000000000000000000000000000000000000000000000000610cc3565b909114919050565b604080518082019091526000808252602082015290565b600082601f8301126128a3578081fd5b81516128b66128b182613113565b6130ec565b8181529150602080830190848101818402860182018710156128d757600080fd5b60005b848110156128f6578151845292820192908201906001016128da565b505050505092915050565b80356003811061060d57600080fd5b600060208284031215612921578081fd5b813561085f8161313d565b6000806040838503121561293e578081fd5b82356129498161313d565b915060208301356129598161313d565b809150509250929050565b600080600060608486031215612978578081fd5b83356129838161313d565b925060208401356129938161313d565b929592945050506040919091013590565b600080600080600080600060e0888a0312156129be578283fd5b87356129c98161313d565b965060208801356129d98161313d565b95506040880135945060608801359350608088013560ff811681146129fc578384fd5b9699959850939692959460a0840135945060c09093013592915050565b60008060408385031215612a2b578182fd5b8235612a368161313d565b946020939093013593505050565b600080600060608486031215612a58578081fd5b835167ffffffffffffffff80821115612a6f578283fd5b818601915086601f830112612a82578283fd5b8151612a906128b182613113565b80828252602080830192508086018b828387028901011115612ab0578788fd5b8796505b84871015612adb578051612ac78161313d565b845260019690960195928101928101612ab4565b508901519097509350505080821115612af2578283fd5b50612aff86828701612893565b925050604084015190509250925092565b60006020808385031215612b22578182fd5b823567ffffffffffffffff811115612b38578283fd5b8301601f81018513612b48578283fd5b8035612b566128b182613113565b818152838101908385016040808502860187018a1015612b74578788fd5b8795505b84861015612bc15780828b031215612b8e578788fd5b612b97816130ec565b612ba18b84612901565b815282880135888201528452600195909501949286019290810190612b78565b509098975050505050505050565b60006020808385031215612be1578182fd5b823567ffffffffffffffff811115612bf7578283fd5b8301601f81018513612c07578283fd5b8035612c156128b182613113565b818152838101908385016060808502860187018a1015612c33578788fd5b8795505b84861015612bc15780828b031215612c4d578788fd5b612c56816130ec565b612c608b84612901565b81528288013588820152604080840135908201528452600195909501949286019290810190612c37565b600060208284031215612c9b578081fd5b8151801515811461085f578182fd5b600060208284031215612cbb578081fd5b81357fffffffff000000000000000000000000000000000000000000000000000000008116811461085f578182fd5b600060208284031215612cfb578081fd5b815161085f8161313d565b600060208284031215612d17578081fd5b61085f8383612901565b600060208284031215612d32578081fd5b5051919050565b600060208284031215612d4a578081fd5b5035919050565b60008060408385031215612d63578182fd5b50508035926020909101359150565b600080600060608486031215612d86578081fd5b505081359360208301359350604090920135919050565b60008151808452815b81811015612dc257602081850181015186830182015201612da6565b81811115612dd35782602083870101525b50601f01601f19169290920160200192915050565b9182527fffffffff0000000000000000000000000000000000000000000000000000000016602082015260240190565b7f190100000000000000000000000000000000000000000000000000000000000081526002810192909252602282015260420190565b73ffffffffffffffffffffffffffffffffffffffff91909116815260200190565b6020808252825182820181905260009190848201906040850190845b81811015612ea757835183529284019291840191600101612e8b565b50909695505050505050565b901515815260200190565b92151583526020830191909152604082015260600190565b90815260200190565b92835273ffffffffffffffffffffffffffffffffffffffff918216602084015216604082015260600190565b95865273ffffffffffffffffffffffffffffffffffffffff94851660208701529290931660408501526060840152608083019190915260a082015260c00190565b94855260208501939093526040840191909152606083015273ffffffffffffffffffffffffffffffffffffffff16608082015260a00190565b93845260ff9290921660208401526040830152606082015260800190565b918252602082015260400190565b968752602087019590955260408601939093526060850191909152608084015260a083015260c082015260e00190565b9485526020850193909352604084019190915260608301521515608082015260a00190565b8381526060810161301684613133565b602082019390935260400152919050565b8481526080810161303785613133565b84602083015283604083015282606083015295945050505050565b838152825160a082019061306581613133565b806020840152506020840151604083015260408401516060830152826080830152949350505050565b60006020825261085f6020830184612d9d565b6000604082526130b46040830185612d9d565b90508260208301529392505050565b93845260208401929092526040830152606082015260800190565b60ff91909116815260200190565b60405181810167ffffffffffffffff8111828210171561310b57600080fd5b604052919050565b600067ffffffffffffffff821115613129578081fd5b5060209081020190565b600381106109f257fe5b73ffffffffffffffffffffffffffffffffffffffff811681146109f257600080fdfe537461626c654f7261636c654d61746820616d706c696669636174696f6e506172616d657465722025736c6f67427074546f74616c537570706c79202573202c20616d706c696669636174696f6e506172616d65746572a2646970667358221220c82f174f85772469aeded042e6fd6843a3974b274c1da95020f29b332808db7a64736f6c63430007010033",
  "libraries": {
    "QueryProcessor": "0xAdcd9ccb1DEf8d98E14BBf0A7252B369dB2E9A15"
  },
  "devdoc": {
    "details": "StablePool suitable for assets with proportional prices (i.e. with slow-changing exchange rates between them). Requires an external feed of these exchange rates. It additionally features a price oracle.",
    "kind": "dev",
    "methods": {
      "DOMAIN_SEPARATOR()": {
        "details": "See {IERC20Permit-DOMAIN_SEPARATOR}."
      },
      "allowance(address,address)": {
        "details": "Override to grant the Vault infinite allowance, causing for Pool Tokens to not require approval. This is sound as the Vault already provides authorization mechanisms when initiation token transfers, which this contract inherits."
      },
      "approve(address,uint256)": {
        "details": "See {IERC20-approve}. Requirements: - `spender` cannot be the zero address."
      },
      "balanceOf(address)": {
        "details": "See {IERC20-balanceOf}."
      },
      "decimals()": {
        "details": "Returns the number of decimals used to get its user representation. For example, if `decimals` equals `2`, a balance of `505` tokens should be displayed to a user as `5,05` (`505 / 10 ** 2`). Tokens usually opt for a value of 18, imitating the relationship between Ether and Wei. This is the value {ERC20} uses, unless {_setupDecimals} is called. NOTE: This information is only used for _display_ purposes: it in no way affects any of the arithmetic of the contract, including {IERC20-balanceOf} and {IERC20-transfer}."
      },
      "decreaseAllowance(address,uint256)": {
        "details": "Override to allow decreasing allowance by more than the current amount (setting it to zero)"
      },
      "dirtyUninitializedOracleSamples(uint256,uint256)": {
        "details": "Manually dirty oracle sample storage slots with dummy data, to reduce the gas cost of the future swaps that will initialize them. This function is only useful before the oracle has been fully initialized. `endIndex` is non-inclusive."
      },
      "getActionId(bytes4)": {
        "details": "Returns the action identifier associated with the external function described by `selector`."
      },
      "getLargestSafeQueryWindow()": {
        "details": "Returns largest time window that can be safely queried, where 'safely' means the Oracle is guaranteed to be able to produce a result and not revert. If a query has a non-zero `ago` value, then `secs + ago` (the oldest point in time) must be smaller than this value for 'safe' queries."
      },
      "getLatest(uint8)": {
        "details": "Returns latest sample of `variable`. Prices are represented as 18 decimal fixed point values."
      },
      "getPastAccumulators((uint8,uint256)[])": {
        "details": "Returns the accumulators corresponding to each of `queries`."
      },
      "getPausedState()": {
        "details": "Returns the current contract pause status, as well as the end times of the Pause Window and Buffer Period."
      },
      "getPoolId()": {
        "details": "Called by the Vault when a user calls `IVault.exitPool` to remove liquidity from this Pool. Returns how many tokens the Vault should deduct from the Pool's balances, as well as the amount of protocol fees the Pool owes to the Vault. The Vault will then take tokens from the Pool's balances and send them to `recipient`, as well as collect the reported amount in protocol fees, which the Pool should calculate based on `protocolSwapFeePercentage`. Protocol fees are charged on exit events to guarantee that users exiting the Pool have paid their share. `sender` is the account performing the exit (typically the pool shareholder), and `recipient` is the account to which the Vault will send the proceeds. `balances` contains the total token balances for each token the Pool registered in the Vault, in the same order that `IVault.getPoolTokens` would return. `lastChangeBlock` is the last block in which *any* of the Pool's registered tokens last changed its total balance. `userData` contains any pool-specific instructions needed to perform the calculations, such as the type of exit (e.g., proportional given an amount of pool shares, single-asset, multi-asset, etc.) Contracts implementing this function should check that the caller is indeed the Vault before performing any state-changing operations, such as burning pool shares."
      },
      "getRate()": {
        "details": "This function returns the appreciation of one BPT relative to the underlying tokens. This starts at 1 when the pool is created and grows over time"
      },
      "getSample(uint256)": {
        "details": "Returns the raw data of the sample at `index`."
      },
      "getTimeWeightedAverage((uint8,uint256,uint256)[])": {
        "details": "Returns the time average weighted price corresponding to each of `queries`. Prices are represented as 18 decimal fixed point values."
      },
      "getTotalSamples()": {
        "details": "Returns the total number of samples."
      },
      "increaseAllowance(address,uint256)": {
        "details": "Atomically increases the allowance granted to `spender` by the caller. This is an alternative to {approve} that can be used as a mitigation for problems described in {IERC20-approve}. Emits an {Approval} event indicating the updated allowance. Requirements: - `spender` cannot be the zero address."
      },
      "name()": {
        "details": "Returns the name of the token."
      },
      "nonces(address)": {
        "details": "See {IERC20Permit-nonces}."
      },
      "permit(address,address,uint256,uint256,uint8,bytes32,bytes32)": {
        "details": "See {IERC20Permit-permit}."
      },
      "startAmplificationParameterUpdate(uint256,uint256)": {
        "details": "Begins changing the amplification parameter to `rawEndValue` over time. The value will change linearly until `endTime` is reached, when it will be `rawEndValue`. NOTE: Internally, the amplification parameter is represented using higher precision. The values returned by `getAmplificationParameter` have to be corrected to account for this when comparing to `rawEndValue`."
      },
      "stopAmplificationParameterUpdate()": {
        "details": "Stops the amplification parameter change process, keeping the current value."
      },
      "symbol()": {
        "details": "Returns the symbol of the token, usually a shorter version of the name."
      },
      "totalSupply()": {
        "details": "See {IERC20-totalSupply}."
      },
      "transfer(address,uint256)": {
        "details": "See {IERC20-transfer}. Requirements: - `recipient` cannot be the zero address. - the caller must have a balance of at least `amount`."
      },
      "transferFrom(address,address,uint256)": {
        "details": "Override to allow for 'infinite allowance' and let the token owner use `transferFrom` with no self-allowance"
      },
      "updateOracle(uint256,uint256,uint256)": {
        "details": "Updates the Price Oracle based on the Pool's current state (balances, BPT supply and invariant). Must be called on *all* state-changing functions with the balances *before* the state change happens, and with `lastChangeBlock` as the number of the block in which any of the balances last changed."
      }
    },
    "version": 1
  },
  "userdoc": {
    "kind": "user",
    "methods": {},
    "version": 1
  },
  "storageLayout": {
    "storage": [
      {
        "astId": 2066,
        "contract": "contracts/StablePool/meta/MetaStablePool.sol:MetaStablePool",
        "label": "_balances",
        "offset": 0,
        "slot": "0",
        "type": "t_mapping(t_address,t_uint256)"
      },
      {
        "astId": 2072,
        "contract": "contracts/StablePool/meta/MetaStablePool.sol:MetaStablePool",
        "label": "_allowances",
        "offset": 0,
        "slot": "1",
        "type": "t_mapping(t_address,t_mapping(t_address,t_uint256))"
      },
      {
        "astId": 2074,
        "contract": "contracts/StablePool/meta/MetaStablePool.sol:MetaStablePool",
        "label": "_totalSupply",
        "offset": 0,
        "slot": "2",
        "type": "t_uint256"
      },
      {
        "astId": 2076,
        "contract": "contracts/StablePool/meta/MetaStablePool.sol:MetaStablePool",
        "label": "_name",
        "offset": 0,
        "slot": "3",
        "type": "t_string_storage"
      },
      {
        "astId": 2078,
        "contract": "contracts/StablePool/meta/MetaStablePool.sol:MetaStablePool",
        "label": "_symbol",
        "offset": 0,
        "slot": "4",
        "type": "t_string_storage"
      },
      {
        "astId": 2080,
        "contract": "contracts/StablePool/meta/MetaStablePool.sol:MetaStablePool",
        "label": "_decimals",
        "offset": 0,
        "slot": "5",
        "type": "t_uint8"
      },
      {
        "astId": 2558,
        "contract": "contracts/StablePool/meta/MetaStablePool.sol:MetaStablePool",
        "label": "_nonces",
        "offset": 0,
        "slot": "6",
        "type": "t_mapping(t_address,t_uint256)"
      },
      {
        "astId": 11481,
        "contract": "contracts/StablePool/meta/MetaStablePool.sol:MetaStablePool",
        "label": "_paused",
        "offset": 0,
        "slot": "7",
        "type": "t_bool"
      },
      {
        "astId": 922,
        "contract": "contracts/StablePool/meta/MetaStablePool.sol:MetaStablePool",
        "label": "_miscData",
        "offset": 0,
        "slot": "8",
        "type": "t_bytes32"
      },
      {
        "astId": 9260,
        "contract": "contracts/StablePool/meta/MetaStablePool.sol:MetaStablePool",
        "label": "_packedAmplificationData",
        "offset": 0,
        "slot": "9",
        "type": "t_bytes32"
      },
      {
        "astId": 6501,
        "contract": "contracts/StablePool/meta/MetaStablePool.sol:MetaStablePool",
        "label": "_samples",
        "offset": 0,
        "slot": "10",
        "type": "t_mapping(t_uint256,t_bytes32)"
      },
      {
        "astId": 10842,
        "contract": "contracts/StablePool/meta/MetaStablePool.sol:MetaStablePool",
        "label": "_miscData",
        "offset": 0,
        "slot": "11",
        "type": "t_bytes32"
      }
    ],
    "types": {
      "t_address": {
        "encoding": "inplace",
        "label": "address",
        "numberOfBytes": "20"
      },
      "t_bool": {
        "encoding": "inplace",
        "label": "bool",
        "numberOfBytes": "1"
      },
      "t_bytes32": {
        "encoding": "inplace",
        "label": "bytes32",
        "numberOfBytes": "32"
      },
      "t_mapping(t_address,t_mapping(t_address,t_uint256))": {
        "encoding": "mapping",
        "key": "t_address",
        "label": "mapping(address => mapping(address => uint256))",
        "numberOfBytes": "32",
        "value": "t_mapping(t_address,t_uint256)"
      },
      "t_mapping(t_address,t_uint256)": {
        "encoding": "mapping",
        "key": "t_address",
        "label": "mapping(address => uint256)",
        "numberOfBytes": "32",
        "value": "t_uint256"
      },
      "t_mapping(t_uint256,t_bytes32)": {
        "encoding": "mapping",
        "key": "t_uint256",
        "label": "mapping(uint256 => bytes32)",
        "numberOfBytes": "32",
        "value": "t_bytes32"
      },
      "t_string_storage": {
        "encoding": "bytes",
        "label": "string",
        "numberOfBytes": "32"
      },
      "t_uint256": {
        "encoding": "inplace",
        "label": "uint256",
        "numberOfBytes": "32"
      },
      "t_uint8": {
        "encoding": "inplace",
        "label": "uint8",
        "numberOfBytes": "1"
      }
    }
  }
}