{
  "address": "0x39eAd7b006d8A9467679Bc7db37E65a36A1718C3",
  "abi": [
    {
      "inputs": [
        {
          "internalType": "contract IVault",
          "name": "vault",
          "type": "address"
        }
      ],
      "stateMutability": "nonpayable",
      "type": "constructor"
    },
    {
      "anonymous": false,
      "inputs": [
        {
          "indexed": true,
          "internalType": "address",
          "name": "pool",
          "type": "address"
        }
      ],
      "name": "PoolCreated",
      "type": "event"
    },
    {
      "inputs": [
        {
          "internalType": "bytes",
          "name": "constructorArgs",
          "type": "bytes"
        }
      ],
      "name": "_getCreationCodeWithArgs",
      "outputs": [
        {
          "internalType": "bytes",
          "name": "code",
          "type": "bytes"
        }
      ],
      "stateMutability": "view",
      "type": "function"
    },
    {
      "inputs": [
        {
          "internalType": "string",
          "name": "name",
          "type": "string"
        },
        {
          "internalType": "string",
          "name": "symbol",
          "type": "string"
        },
        {
          "internalType": "contract IERC20[]",
          "name": "tokens",
          "type": "address[]"
        },
        {
          "internalType": "uint256",
          "name": "amplificationParameter",
          "type": "uint256"
        },
        {
          "internalType": "contract IRateProvider[]",
          "name": "rateProviders",
          "type": "address[]"
        },
        {
          "internalType": "uint256[]",
          "name": "priceRateCacheDuration",
          "type": "uint256[]"
        },
        {
          "internalType": "uint256",
          "name": "swapFeePercentage",
          "type": "uint256"
        },
        {
          "internalType": "address",
          "name": "owner",
          "type": "address"
        }
      ],
      "name": "create",
      "outputs": [
        {
          "internalType": "address",
          "name": "",
          "type": "address"
        }
      ],
      "stateMutability": "nonpayable",
      "type": "function"
    },
    {
      "inputs": [],
      "name": "getCreationCode",
      "outputs": [
        {
          "internalType": "bytes",
          "name": "",
          "type": "bytes"
        }
      ],
      "stateMutability": "view",
      "type": "function"
    },
    {
      "inputs": [],
      "name": "getCreationCodeContracts",
      "outputs": [
        {
          "internalType": "address",
          "name": "contractA",
          "type": "address"
        },
        {
          "internalType": "address",
          "name": "contractB",
          "type": "address"
        }
      ],
      "stateMutability": "view",
      "type": "function"
    },
    {
      "inputs": [],
      "name": "getPauseConfiguration",
      "outputs": [
        {
          "internalType": "uint256",
          "name": "pauseWindowDuration",
          "type": "uint256"
        },
        {
          "internalType": "uint256",
          "name": "bufferPeriodDuration",
          "type": "uint256"
        }
      ],
      "stateMutability": "view",
      "type": "function"
    },
    {
      "inputs": [],
      "name": "getVault",
      "outputs": [
        {
          "internalType": "contract IVault",
          "name": "",
          "type": "address"
        }
      ],
      "stateMutability": "view",
      "type": "function"
    },
    {
      "inputs": [
        {
          "internalType": "address",
          "name": "pool",
          "type": "address"
        }
      ],
      "name": "isPoolFromFactory",
      "outputs": [
        {
          "internalType": "bool",
          "name": "",
          "type": "bool"
        }
      ],
      "stateMutability": "view",
      "type": "function"
    }
  ],
  "transactionHash": "0xfa43a51a84e2117efb3c4d7e09a86ce7ecdacfa80731be740fece29db629d314",
  "args": [
    "0xb575F46B55703474c039AF0F8D46F41d617E9163"
  ],
  "numDeployments": 8,
  "solcInputHash": "4a26b830f728577c923ab37eaab8220a",
  "bytecode": "0x6101406040523480156200001257600080fd5b5060405162008945380380620089458339810160408190526200003591620001c3565b80604051806020016200004890620001b5565b601f1982820381018352601f909101166040528051819060006002820460a081905280830360e0819052818552909150836200009081620000f9602090811b620003ec17901c565b60601b6001600160601b0319166080528285018051838252620000bf82620000f9602090811b620003ec17901c565b6001600160601b0319606091821b811660c0529690935290529590951b90911661010052505050426276a700016101205250620001f39050565b80517f602038038060206000396000f3fefefefefefefefefefefefefefefefefefefe808352600091602081018484f09084529150620001476001600160a01b03831615156101ac6200014d565b50919050565b816200015e576200015e8162000162565b5050565b62461bcd60e51b6000908152602060045260076024526642414c23000030600a808404818106603090810160081b95839006959095019082900491820690940160101b939093010160c81b604452606490fd5b617a748062000ed183390190565b600060208284031215620001d5578081fd5b81516001600160a01b0381168114620001ec578182fd5b9392505050565b60805160601c60a05160c05160601c60e0516101005160601c61012051610c7c620002556000398061019152806101ba5250806103ca5250806102f75250806101685280610373525080610318525080610147528061034f5250610c7c6000f3fe608060405234801561001057600080fd5b506004361061007c5760003560e01c80634555fb8d1161005b5780634555fb8d146100cb5780636634b753146100eb57806374cc23da1461010b5780638d928af81461011e5761007c565b8062c194db14610081578063174481fa1461009f5780632da47c40146100b5575b600080fd5b610089610126565b6040516100969190610a8e565b60405180910390f35b6100a7610145565b604051610096929190610a5c565b6100bd61018b565b604051610096929190610bcc565b6100de6100d9366004610842565b6101f5565b6040516100969190610a3b565b6100fe6100f93660046107eb565b6102c4565b6040516100969190610a83565b610089610119366004610807565b6102ef565b6100de6103c8565b6060610140604051806020016040528060008152506102ef565b905090565b7f00000000000000000000000000000000000000000000000000000000000000007f00000000000000000000000000000000000000000000000000000000000000009091565b600080427f00000000000000000000000000000000000000000000000000000000000000008110156101e757807f000000000000000000000000000000000000000000000000000000000000000003925062278d0091506101f0565b60009250600091505b509091565b600080600061020261018b565b915091506102b560405180610180016040528061021d6103c8565b73ffffffffffffffffffffffffffffffffffffffff1681526020018d81526020018c81526020018b81526020018981526020018881526020018a81526020018781526020018481526020018381526020016000151581526020018673ffffffffffffffffffffffffffffffffffffffff168152506040516020016102a19190610aa1565b60405160208183030381529060405261044b565b9b9a5050505050505050505050565b73ffffffffffffffffffffffffffffffffffffffff1660009081526020819052604090205460ff1690565b8051604080517f00000000000000000000000000000000000000000000000000000000000000007f0000000000000000000000000000000000000000000000000000000000000000818101858101848101602090810190965280855293957f00000000000000000000000000000000000000000000000000000000000000009592947f000000000000000000000000000000000000000000000000000000000000000094938801866000828a3c846000888301883c50602089810190898501016103ba8183866104d6565b505050505050505050919050565b7f000000000000000000000000000000000000000000000000000000000000000090565b80517f602038038060206000396000f3fefefefefefefefefefefefefefefefefefefe808352600091602081018484f0908452915061044573ffffffffffffffffffffffffffffffffffffffff831615156101ac610550565b50919050565b60008061045783610562565b73ffffffffffffffffffffffffffffffffffffffff811660008181526020819052604080822080547fffffffffffffffffffffffffffffffffffffffffffffffffffffffffffffff001660011790555192935090917f83a48fbcfc991335314e74d0496aab6a1987e992ddc85dddbcc4d6dd6ef2e9fc9190a292915050565b5b602081106105145781518352602092830192909101907fffffffffffffffffffffffffffffffffffffffffffffffffffffffffffffffe0016104d7565b905182516020929092036101000a7fffffffffffffffffffffffffffffffffffffffffffffffffffffffffffffffff0180199091169116179052565b8161055e5761055e816105aa565b5050565b6000606061056f836102ef565b905060008151602083016000f0905073ffffffffffffffffffffffffffffffffffffffff81166105a3573d6000803e3d6000fd5b9392505050565b7f08c379a0000000000000000000000000000000000000000000000000000000006000908152602060045260076024526642414c23000030600a808404818106603090810160081b95839006959095019082900491820690940160101b939093010160c81b604452606490fd5b803561062281610c21565b92915050565b600082601f830112610638578081fd5b813561064b61064682610c01565b610bda565b81815291506020808301908481018184028601820187101561066c57600080fd5b60005b8481101561069457813561068281610c21565b8452928201929082019060010161066f565b505050505092915050565b600082601f8301126106af578081fd5b81356106bd61064682610c01565b8181529150602080830190848101818402860182018710156106de57600080fd5b60005b848110156106945781356106f481610c21565b845292820192908201906001016106e1565b600082601f830112610716578081fd5b813561072461064682610c01565b81815291506020808301908481018184028601820187101561074557600080fd5b60005b8481101561069457813584529282019290820190600101610748565b600082601f830112610774578081fd5b813567ffffffffffffffff81111561078a578182fd5b6107bb60207fffffffffffffffffffffffffffffffffffffffffffffffffffffffffffffffe0601f84011601610bda565b91508082528360208285010111156107d257600080fd5b8060208401602084013760009082016020015292915050565b6000602082840312156107fc578081fd5b81356105a381610c21565b600060208284031215610818578081fd5b813567ffffffffffffffff81111561082e578182fd5b61083a84828501610764565b949350505050565b600080600080600080600080610100898b03121561085e578384fd5b883567ffffffffffffffff80821115610875578586fd5b6108818c838d01610764565b995060208b0135915080821115610896578586fd5b6108a28c838d01610764565b985060408b01359150808211156108b7578586fd5b6108c38c838d01610628565b975060608b0135965060808b01359150808211156108df578586fd5b6108eb8c838d0161069f565b955060a08b0135915080821115610900578485fd5b5061090d8b828c01610706565b93505060c089013591506109248a60e08b01610617565b90509295985092959890939650565b73ffffffffffffffffffffffffffffffffffffffff169052565b6000815180845260208085019450808401835b8381101561099257815173ffffffffffffffffffffffffffffffffffffffff1687529582019590820190600101610960565b509495945050505050565b6000815180845260208085019450808401835b83811015610992578151875295820195908201906001016109b0565b15159052565b60008151808452815b818110156109f7576020818501810151868301820152016109db565b81811115610a085782602083870101525b50601f017fffffffffffffffffffffffffffffffffffffffffffffffffffffffffffffffe0169290920160200192915050565b73ffffffffffffffffffffffffffffffffffffffff91909116815260200190565b73ffffffffffffffffffffffffffffffffffffffff92831681529116602082015260400190565b901515815260200190565b6000602082526105a360208301846109d2565b600060208252610ab5602083018451610933565b6020830151610180806040850152610ad16101a08501836109d2565b915060408501517fffffffffffffffffffffffffffffffffffffffffffffffffffffffffffffffe080868503016060870152610b0d84836109d2565b93506060870151915080868503016080870152610b2a848361094d565b935060808701519150808685030160a0870152610b47848361094d565b935060a08701519150808685030160c087015250610b65838261099d565b60c087015160e0878101919091528701516101008088019190915287015161012080880191909152870151610140808801919091528701519093509050610160610bb1818701836109cc565b8601519050610bc285830182610933565b5090949350505050565b918252602082015260400190565b60405181810167ffffffffffffffff81118282101715610bf957600080fd5b604052919050565b600067ffffffffffffffff821115610c17578081fd5b5060209081020190565b73ffffffffffffffffffffffffffffffffffffffff81168114610c4357600080fd5b5056fea26469706673582212206e2eb974193d6cee8ad1b96dab479fc9aa6a56122a75ba34d906c66d468892a664736f6c634300070100336103606040527f6e71edae12b1b97f4d1f60370fef10105fa2faae0126114a169c64845d6126c9610120523480156200003757600080fd5b5060405162007a7438038062007a748339810160408190526200005a91620010a1565b805160208201516040830151606084015160c085015160e0860151610100870151610120880151610160890151855189906002146200009b5760006200009e565b60025b8989898a516001600160401b0381118015620000b957600080fd5b50604051908082528060200260200182016040528015620000e4578160200160208202803683370190505b5089898989828289898d8280604051806040016040528060018152602001603160f81b81525085858a336001600160a01b031660001b806080818152505050806001600160a01b031660a0816001600160a01b031660601b815250505081600390805190602001906200015992919062000de9565b5080516200016f90600490602084019062000de9565b505060058054601260ff1990911617905550815160209283012060c052805191012060e052507f8b73c3c69bb8fe3d512ecc4cf759cc79239f7b179b0ffacaa9a75d522b39400f6101005260601b6001600160601b0319166101405250620001e290506276a7008311156101946200084b565b620001f662278d008211156101956200084b565b429091016101608190520161018052855162000218906002111560c86200084b565b620002326200022662000860565b8751111560c96200084b565b62000248866200086560201b620015521760201c565b620002538462000871565b6040516309b2760f60e01b81526000906001600160a01b038c16906309b2760f9062000284908d90600401620012e7565b602060405180830381600087803b1580156200029f57600080fd5b505af1158015620002b4573d6000803e3d6000fd5b505050506040513d601f19601f82011682018060405250810190620002da919062001088565b604051633354e3e960e11b81529091506001600160a01b038c16906366a9c7d2906200030f9084908b908b906004016200124b565b600060405180830381600087803b1580156200032a57600080fd5b505af11580156200033f573d6000803e3d6000fd5b5050506101a091909152506200036a9950505060018d1015965061012c9550506200084b9350505050565b6200037d61138886111561012d6200084b565b85516101c0819052865187906000906200039357fe5b60200260200101516001600160a01b03166101e0816001600160a01b031660601b8152505086600181518110620003c657fe5b60200260200101516001600160a01b0316610200816001600160a01b031660601b8152505060028111620003fc57600062000413565b866002815181106200040a57fe5b60200260200101515b60601b6001600160601b0319166102205260038111620004355760006200044c565b866003815181106200044357fe5b60200260200101515b60601b6001600160601b03191661024052600481116200046e57600062000485565b866004815181106200047c57fe5b60200260200101515b6001600160a01b0316610260816001600160a01b031660601b81525050620004c887600081518110620004b457fe5b6020026020010151620008fd60201b60201c565b610280528651620004e19088906001908110620004b457fe5b6102a05260028111620004f657600062000508565b6200050887600281518110620004b457fe5b6102c052600381116200051d5760006200052f565b6200052f87600381518110620004b457fe5b6102e052600481116200054457600062000556565b6200055687600481518110620004b457fe5b6103008181525050600062000579876103e8620009d160201b6200155c1760201c565b9050620005868162000a02565b5050505050505050505050620005ac81606001515160021460d26200084b60201b60201c565b620005d38160600151518260800151518360a001515162000a4160201b620015801760201c565b60008160800151600081518110620005e757fe5b60209081029190910101516001600160601b0319606082901b166103205290506001600160a01b038116156200069e5760008062000645838560a001516000815181106200063157fe5b602002602001015162000a6160201b60201c565b9150915081600d8190555083606001516000815181106200066257fe5b60200260200101516001600160a01b031660008051602062007a3483398151915282604051620006939190620012fc565b60405180910390a250505b806001600160a01b03168260600151600081518110620006ba57fe5b60200260200101516001600160a01b031660008051602062007a548339815191528460a00151600081518110620006ed57fe5b6020026020010151604051620007049190620012fc565b60405180910390a3600082608001516001815181106200072057fe5b60209081029190910101516001600160601b0319606082901b166103405290506001600160a01b03811615620007c3576000806200076a838660a001516001815181106200063157fe5b9150915081600e8190555084606001516001815181106200078757fe5b60200260200101516001600160a01b031660008051602062007a3483398151915282604051620007b89190620012fc565b60405180910390a250505b806001600160a01b03168360600151600181518110620007df57fe5b60200260200101516001600160a01b031660008051602062007a548339815191528560a001516001815181106200081257fe5b6020026020010151604051620008299190620012fc565b60405180910390a3610140830151620008429062000b5f565b5050506200136e565b816200085c576200085c8162000bbd565b5050565b600590565b806200085c8162000c10565b6200088664e8d4a5100082101560cb6200084b565b6200089e67016345785d8a000082111560ca6200084b565b620008bd8160c060085462000c9a60201b6200159d179092919060201c565b6008556040517fa9ba3ffe0b6c366b81232caab38605a0699ad5398d6cce76f91ee809e322dafc90620008f2908390620012fc565b60405180910390a150565b60006001600160a01b038216301415620009215750670de0b6b3a7640000620009cc565b6000826001600160a01b031663313ce5676040518163ffffffff1660e01b815260040160206040518083038186803b1580156200095d57600080fd5b505afa15801562000972573d6000803e3d6000fd5b505050506040513d601f19601f820116820180604052508101906200099891906200121d565b60ff1690506000620009b760128362000caf60201b620015b31760201c565b905080600a0a670de0b6b3a764000002925050505b919050565b6000828202620009f9841580620009f1575083858381620009ee57fe5b04145b60036200084b565b90505b92915050565b62000a108180428062000cc7565b7fa0d01593e47e69d07e0ccd87bece09411e07dd1ed40ca8f2e7af2976542a023381604051620008f29190620012fc565b62000a5c828414801562000a5457508183145b60676200084b565b505050565b600080836001600160a01b031663679aefce6040518163ffffffff1660e01b815260040160206040518083038186803b15801562000a9e57600080fd5b505afa15801562000ab3573d6000803e3d6000fd5b505050506040513d601f19601f8201168201806040525081019062000ad9919062001088565b905062000aef600160801b82106101496200084b565b62000b128342016001600160401b031660c062000d5760201b620015c91760201c565b62000b33846001600160401b0316608062000d5760201b620015c91760201c565b62000b54836001600160801b0316600062000d5760201b620015c91760201c565b171791509250929050565b62000b8c62000b868262000b7262000d5b565b62000d6160201b620015cd1790919060201c565b62000d80565b7f3e350b41e86a8e10f804ade6d35340d620be35569cc75ac943e8bb14ab80ead181604051620008f2919062001240565b62461bcd60e51b6000908152602060045260076024526642414c23000030600a808404818106603090810160081b95839006959095019082900491820690940160101b939093010160c81b604452606490fd5b60028151101562000c215762000c97565b60008160008151811062000c3157fe5b602002602001015190506000600190505b825181101562000a5c57600083828151811062000c5b57fe5b6020026020010151905062000c8c816001600160a01b0316846001600160a01b03161060656200084b60201b60201c565b915060010162000c42565b50565b6001600160401b03811b1992909216911b1790565b600062000cc18383111560016200084b565b50900390565b62000ce8816001600160401b031660c062000d5760201b620015c91760201c565b62000d09836001600160401b0316608062000d5760201b620015c91760201c565b62000d2a856001600160401b0316604062000d5760201b620015c91760201c565b62000d4b876001600160401b0316600062000d5760201b620015c91760201c565b17171760095550505050565b1b90565b60085490565b6000620009f98260558562000da560201b620015d7179092919060201c565b62000d9f81600060085462000dce60201b620015fe179092919060201c565b60085550565b60006001821b198416828462000dbd57600062000dc0565b60015b60ff16901b17949350505050565b6001600160c01b03828116821b90821b198416179392505050565b828054600181600116156101000203166002900490600052602060002090601f016020900481019282601f1062000e2c57805160ff191683800117855562000e5c565b8280016001018555821562000e5c579182015b8281111562000e5c57825182559160200191906001019062000e3f565b5062000e6a92915062000e6e565b5090565b5b8082111562000e6a576000815560010162000e6f565b8051620009fc8162001358565b600082601f83011262000ea3578081fd5b815162000eba62000eb4826200132c565b62001305565b81815291506020808301908481018184028601820187101562000edc57600080fd5b60005b8481101562000f0857815162000ef58162001358565b8452928201929082019060010162000edf565b505050505092915050565b600082601f83011262000f24578081fd5b815162000f3562000eb4826200132c565b81815291506020808301908481018184028601820187101562000f5757600080fd5b60005b8481101562000f0857815162000f708162001358565b8452928201929082019060010162000f5a565b600082601f83011262000f94578081fd5b815162000fa562000eb4826200132c565b81815291506020808301908481018184028601820187101562000fc757600080fd5b60005b8481101562000f085781518452928201929082019060010162000fca565b80518015158114620009fc57600080fd5b600082601f8301126200100a578081fd5b81516001600160401b0381111562001020578182fd5b602062001036601f8301601f1916820162001305565b925081835284818386010111156200104d57600080fd5b60005b828110156200106d57848101820151848201830152810162001050565b828111156200107f5760008284860101525b50505092915050565b6000602082840312156200109a578081fd5b5051919050565b600060208284031215620010b3578081fd5b81516001600160401b0380821115620010ca578283fd5b8184019150610180808387031215620010e1578384fd5b620010ec8162001305565b9050620010fa868462000e85565b81526020830151828111156200110e578485fd5b6200111c8782860162000ff9565b60208301525060408301518281111562001134578485fd5b620011428782860162000ff9565b6040830152506060830151828111156200115a578485fd5b620011688782860162000e92565b60608301525060808301518281111562001180578485fd5b6200118e8782860162000f13565b60808301525060a083015182811115620011a6578485fd5b620011b48782860162000f83565b60a08301525060c0838101519082015260e08084015190820152610100808401519082015261012080840151908201526101409150620011f78683850162000fe8565b8282015261016091506200120e8683850162000e85565b91810191909152949350505050565b6000602082840312156200122f578081fd5b815160ff81168114620009f9578182fd5b901515815260200190565b60006060820185835260206060818501528186518084526080860191508288019350845b8181101562001297576200128485516200134c565b835293830193918301916001016200126f565b505084810360408601528551808252908201925081860190845b81811015620012d957620012c683516200134c565b85529383019391830191600101620012b1565b509298975050505050505050565b6020810160038310620012f657fe5b91905290565b90815260200190565b6040518181016001600160401b03811182821017156200132457600080fd5b604052919050565b60006001600160401b0382111562001342578081fd5b5060209081020190565b6001600160a01b031690565b6001600160a01b038116811462000c9757600080fd5b60805160a05160601c60c05160e05161010051610120516101405160601c61016051610180516101a0516101c0516101e05160601c6102005160601c6102205160601c6102405160601c6102605160601c610280516102a0516102c0516102e051610300516103205160601c6103405160601c6165a362001491600039806119ce5250806119aa525080613ae0525080613abc525080613a98525080613a74525080613a50525080613fb3525080613f71525080613f2f52508061191552806128dc52806135f15250806118ad52806128815280613585525080611fce525080610ca952508061186552508061184152508061107b525080611395525080611cf6525080611d38525080611d17525080611057525080610fe152506165a36000f3fe608060405234801561001057600080fd5b50600436106103415760003560e01c80636b843239116101bd578063a457c2d7116100f9578063b867ee5a116100a2578063dd62ed3e1161007c578063dd62ed3e146106e0578063eb0f24d6146106f3578063f30d74a3146106fb578063ffd088eb1461070e57610341565b8063b867ee5a14610698578063d505accf146106ba578063d5c096c4146106cd57610341565b8063b10be739116100d3578063b10be7391461066a578063b48b5b401461067d578063b77102511461068557610341565b8063a457c2d71461063c578063a9059cbb1461064f578063aaabadc51461066257610341565b806387ec68171161016657806395d89b411161014057806395d89b41146105f85780639b02cdde146106005780639d2c110c14610616578063a0daaed01461062957610341565b806387ec6817146105c8578063893d20e8146105db5780638d928af8146105f057610341565b806374f3b0091161019757806374f3b009146105815780637ecebe00146105a2578063851c1bb3146105b557610341565b80636b843239146105375780636daccffa1461055757806370a082311461056e57610341565b80632f1a0bc91161028c578063395093511161023557806355c676281161020f57806355c67628146104e05780636028bfd4146104e857806360d1507c14610509578063679aefce1461052f57610341565b806339509351146104a757806340c10f19146104ba57806350dd6ed9146104cd57610341565b80633644e515116102665780633644e5151461048457806338e9922e1461048c57806338fff2d01461049f57610341565b80632f1a0bc914610449578063313ce5671461045c5780633331bc361461047157610341565b80631dccd830116102ee578063238a2d59116102c8578063238a2d591461041957806323b872dd1461042e578063292c914a1461044157610341565b80631dccd830146103d85780631dd746ea146103f85780631ed4eddc1461040057610341565b806316c38b3c1161031f57806316c38b3c146103a457806318160ddd146103b95780631c0de051146103c157610341565b806301ec954a1461034657806306fdde031461036f578063095ea7b314610384575b600080fd5b610359610354366004615ee1565b610716565b6040516103669190616231565b60405180910390f35b610377610737565b60405161036691906163f2565b6103976103923660046159ac565b6107ec565b604051610366919061620e565b6103b76103b2366004615c1d565b610803565b005b610359610817565b6103c961081d565b60405161036693929190616219565b6103eb6103e6366004615b62565b610846565b60405161036691906161d6565b6103eb61096a565b610408610979565b604051610366959493929190616345565b6104216109cb565b6040516103669190616151565b61039761043c3660046158f7565b610a58565b6103b7610aec565b6103b7610457366004615fb6565b610b20565b610464610c03565b6040516103669190616487565b6103b761047f366004615fb6565b610c0c565b610359610c84565b6103b761049a366004615f9e565b610c8e565b610359610ca7565b6103976104b53660046159ac565b610ccb565b6103b76104c83660046159ac565b610d06565b6103b76104db366004615d54565b610d14565b610359610d2e565b6104fb6104f6366004615c55565b610d3f565b604051610366929190616427565b61051c610517366004615f9e565b610d76565b6040516103669796959493929190616315565b610359610dbf565b61054a610545366004615aa3565b610e9d565b604051610366919061619e565b61055f610f54565b60405161036693929190616440565b61035961057c3660046158a3565b610f6f565b61059461058f366004615c55565b610f8e565b6040516103669291906161e9565b6103596105b03660046158a3565b610fc2565b6103596105c3366004615cf8565b610fdd565b6104fb6105d6366004615c55565b61102f565b6105e3611055565b604051610366919061613d565b6105e3611079565b61037761109d565b61060861111c565b604051610366929190616307565b610359610624366004615f52565b611126565b6103b76106373660046158a3565b61113b565b61039761064a3660046159ac565b611177565b61039761065d3660046159ac565b6111b5565b6105e36111c2565b610359610678366004615ead565b6111cc565b610359611261565b6103b76106933660046159ac565b611267565b6106ab6106a63660046158a3565b611307565b60405161036693929190616456565b6103b76106c8366004615937565b611360565b6105946106db366004615c55565b6114a9565b6103596106ee3660046158bf565b6114d0565b6103b76114dc565b610608610709366004615fd7565b611508565b61035961154b565b600061072061162a565b61072c8585858561163a565b90505b949350505050565b60038054604080516020601f60027fffffffffffffffffffffffffffffffffffffffffffffffffffffffffffffffff6101006001881615020190951694909404938401819004810282018101909252828152606093909290918301828280156107e15780601f106107b6576101008083540402835291602001916107e1565b820191906000526020600020905b8154815290600101906020018083116107c457829003601f168201915b505050505090505b90565b60006107f93384846116d8565b5060015b92915050565b61080b611740565b61081481611786565b50565b60025490565b600080600061082a611822565b15925061083561183f565b915061083f611863565b9050909192565b6060815167ffffffffffffffff8111801561086057600080fd5b5060405190808252806020026020018201604052801561088a578160200160208202803683370190505b5090506000610897611887565b905060005b83518110156109635773Adcd9ccb1DEf8d98E14BBf0A7252B369dB2E9A156379eaef82600c8684815181106108cd57fe5b6020026020010151856040518463ffffffff1660e01b81526004016108f4939291906163b6565b60206040518083038186803b15801561090c57600080fd5b505af4158015610920573d6000803e3d6000fd5b505050506040513d601f19601f820116820180604052508101906109449190615ec9565b83828151811061095057fe5b602090810291909101015260010161089c565b5050919050565b6060610974611899565b905090565b60008060008060008061098a611962565b905061099581611968565b95506109a081611974565b94506109ab81611981565b93506109b68161198e565b92506109c18161199b565b9150509091929394565b60408051600280825260608083018452926020830190803683370190505090506109f36119a8565b81600081518110610a0057fe5b60200260200101906001600160a01b031690816001600160a01b031681525050610a286119cc565b81600181518110610a3557fe5b60200260200101906001600160a01b031690816001600160a01b03168152505090565b600080610a6585336114d0565b9050610a89336001600160a01b0387161480610a815750838210155b61019e6119f0565b610a948585856119fe565b336001600160a01b03861614801590610acd57507fffffffffffffffffffffffffffffffffffffffffffffffffffffffffffffffff8114155b15610adf57610adf85338584036116d8565b60019150505b9392505050565b610af4611ade565b610afc611740565b610b066001611af1565b6000610b10610817565b1115610b1e57610b1e611b3a565b565b610b28611740565b610b38600183101561012c6119f0565b610b4961138883111561012d6119f0565b6000610b5582426115b3565b9050610b696201518082101561013d6119f0565b600080610b74611b90565b91509150610b85811561013e6119f0565b6000610b93866103e861155c565b90506000838211610bc257610bbd610bae620151808661155c565b610bb8848861155c565b611c04565b610bdc565b610bdc610bd2620151808461155c565b610bb8868861155c565b9050610bee600282111561013f6119f0565b610bfa84834289611c37565b50505050505050565b60055460ff1690565b610c278183108015610c2057506104008211155b60646119f0565b6000610c3c6001600080600080600080611c86565b9050825b82811015610c7e576000818152600c6020526040902054610c6090611ce6565b610c76576000818152600c602052604090208290555b600101610c40565b50505050565b6000610974611cf2565b610c96611740565b610c9e611ade565b61081481611d8f565b7f000000000000000000000000000000000000000000000000000000000000000090565b3360008181526001602090815260408083206001600160a01b038716845290915281205490916107f9918590610d019086611dfa565b6116d8565b610d108282611e0c565b5050565b610d1c611740565b610d24611ade565b610d108282611ea6565b6008546000906109749060c0611fbe565b60006060610d558651610d50611fcc565b611ff0565b610d6a89898989898989611ffd6120676120c8565b97509795505050505050565b6000806000806000806000610d91610400891061013b6119f0565b6000610d9c89612258565b9050610da78161226a565b959f949e50929c50909a509850965090945092505050565b60006060610dcb611079565b6001600160a01b031663f94d4668610de1610ca7565b6040518263ffffffff1660e01b8152600401610dfd9190616231565b60006040518083038186803b158015610e1557600080fd5b505afa158015610e29573d6000803e3d6000fd5b505050506040513d6000823e601f3d908101601f19168201604052610e5191908101906159d7565b509150506000610e5f611b90565b509050610e7382610e6e611899565b6122cd565b6000610e818284600061232e565b9050610e95610e8e610817565b8290612388565b935050505090565b6060815167ffffffffffffffff81118015610eb757600080fd5b50604051908082528060200260200182016040528015610ee1578160200160208202803683370190505b5090506000610eee611887565b9050610ef861566d565b60005b8451811015610f4c57848181518110610f1057fe5b60200260200101519150610f2d82600001518484602001516123d9565b848281518110610f3957fe5b6020908102919091010152600101610efb565b505050919050565b6000806000610f61611b90565b90949093506103e892509050565b6001600160a01b0381166000908152602081905260409020545b919050565b606080610f9961162a565b610fa889898989898989612483565b9092509050610fb5611822565b15610d6a57610d6a611b3a565b6001600160a01b031660009081526006602052604090205490565b60007f0000000000000000000000000000000000000000000000000000000000000000826040516020016110129291906160c7565b604051602081830303815290604052805190602001209050919050565b600060606110408651610d50611fcc565b610d6a898989898989896125016125276120c8565b7f000000000000000000000000000000000000000000000000000000000000000090565b7f000000000000000000000000000000000000000000000000000000000000000090565b60048054604080516020601f60027fffffffffffffffffffffffffffffffffffffffffffffffffffffffffffffffff6101006001881615020190951694909404938401819004810282018101909252828152606093909290918301828280156107e15780601f106107b6576101008083540402835291602001916107e1565b600a54600b549091565b600061113061162a565b61072f848484612588565b611144816126e6565b1561115657611151612713565b610814565b61115f8161272b565b1561116c57611151612747565b61081461013561275a565b60008061118433856114d0565b905080831061119e57611199338560006116d8565b6111ab565b6111ab33858584036116d8565b5060019392505050565b60006107f93384846119fe565b60006109746127c7565b600073Adcd9ccb1DEf8d98E14BBf0A7252B369dB2E9A15630397bee0600c846111f3611887565b6040518463ffffffff1660e01b81526004016112119392919061636a565b60206040518083038186803b15801561122957600080fd5b505af415801561123d573d6000803e3d6000fd5b505050506040513d601f19601f820116820180604052508101906107fd9190615ec9565b61040090565b61126f611740565b611278826126e6565b156112dd5761128681612841565b61128e6119a8565b6001600160a01b0316826001600160a01b03167fca6c2c5b6b44b5f3f0c08f0e28e5b6deda1cb38c3fe1113e8031d926c1e8c6d0836040516112d09190616231565b60405180910390a3610d10565b6112e68261272b565b156112fc576112f481612863565b61128e6119cc565b610d1061013561275a565b60008060006113158461287f565b156113355761132a6113256128b1565b6128b7565b925092509250611359565b61133e846128da565b1561134e5761132a61132561290c565b61135961013561275a565b9193909250565b61136e8442111560d16119f0565b6001600160a01b03871660009081526006602090815260408083205490519092916113c5917f0000000000000000000000000000000000000000000000000000000000000000918c918c918c9188918d9101616259565b60405160208183030381529060405280519060200120905060006113e882612912565b905060006001828888886040516000815260200160405260405161140f94939291906162e9565b6020604051602081039080840390855afa158015611431573d6000803e3d6000fd5b5050604051601f190151915061147390506001600160a01b0382161580159061146b57508b6001600160a01b0316826001600160a01b0316145b6101f86119f0565b6001600160a01b038b16600090815260066020526040902060018501905561149c8b8b8b6116d8565b5050505050505050505050565b6060806114b461162a565b6114c38989898989898961292e565b9092509050610d6a611b3a565b6000610ae58383612a5a565b6114e4611740565b6000806114ef611b90565b915091506114ff816101406119f0565b610d1082612a85565b6000806000611515611962565b90506000611521611b90565b50905060008061153b83898961153688611974565b612ac0565b9150915050505050935093915050565b6201de2090565b80610d1081612b17565b6000828202610ae584158061157957508385838161157657fe5b04145b60036119f0565b611598828414801561159157508183145b60676119f0565b505050565b67ffffffffffffffff811b1992909216911b1790565b60006115c38383111560016119f0565b50900390565b1b90565b6000610ae5838360555b60006001821b19841682846115ed5760006115f0565b60015b60ff16901b17949350505050565b77ffffffffffffffffffffffffffffffffffffffffffffffff828116821b90821b198416179392505050565b611632612b90565b610b1e612bd0565b6000846080015161166761164c611079565b6001600160a01b0316336001600160a01b03161460cd6119f0565b61167c611672610ca7565b82146101f46119f0565b61168e8484611689611fcc565b612c0b565b6060611698611899565b90506000875160018111156116a957fe5b146116c0576116bb8787878785612c22565b6116cd565b6116cd8787878785612c99565b979650505050505050565b6001600160a01b0380841660008181526001602090815260408083209487168084529490915290819020849055517f8c5be1e5ebec7d5bd14f71427d1e84f3dd0314c0f7b2291e5b200ac8c7c3b92590611733908590616231565b60405180910390a3505050565b600061176f6000357fffffffff0000000000000000000000000000000000000000000000000000000016610fdd565b905061081461177e8233612cfd565b6101916119f0565b80156117a6576117a161179761183f565b42106101936119f0565b6117bb565b6117bb6117b1611863565b42106101a96119f0565b600780547fffffffffffffffffffffffffffffffffffffffffffffffffffffffffffffff00168215151790556040517f9e3a5e37224532dea67b89face185703738a228a6e8a23dee546960180d3be649061181790839061620e565b60405180910390a150565b600061182c611863565b42118061097457505060075460ff161590565b7f000000000000000000000000000000000000000000000000000000000000000090565b7f000000000000000000000000000000000000000000000000000000000000000090565b6000610974611894611962565b61198e565b60606118a3612ded565b90506118f46118d17f0000000000000000000000000000000000000000000000000000000000000000612f15565b826000815181106118de57fe5b6020026020010151612f6490919063ffffffff16565b8160008151811061190157fe5b6020026020010181815250506119466119397f0000000000000000000000000000000000000000000000000000000000000000612f15565b826001815181106118de57fe5b8160018151811061195357fe5b60200260200101818152505090565b60085490565b60006107fd8282612f90565b60006107fd826016612f90565b60006107fd82602c612fd3565b60006107fd82604b612fdd565b60006107fd826055612fe5565b7f000000000000000000000000000000000000000000000000000000000000000090565b7f000000000000000000000000000000000000000000000000000000000000000090565b81610d1057610d108161275a565b611a156001600160a01b03841615156101986119f0565b611a2c6001600160a01b03831615156101996119f0565b611a37838383611598565b6001600160a01b038316600090815260208190526040902054611a5d90826101a0612fef565b6001600160a01b038085166000908152602081905260408082209390935590841681522054611a8c9082611dfa565b6001600160a01b0380841660008181526020819052604090819020939093559151908516907fddf252ad1be2c89b69c2b068fc378daa952ba7f163c4a11628f55a4df523b3ef90611733908590616231565b610b1e611ae9611822565b6101926119f0565b611b0b611b0682611b00611962565b906115cd565b613005565b7f3e350b41e86a8e10f804ade6d35340d620be35569cc75ac943e8bb14ab80ead181604051611817919061620e565b6000611b44611962565b9050611b4f8161199b565b1561081457611b69611b62600a5461301a565b829061305a565b9050611b85611b7e611b79610817565b61301a565b8290613067565b905061081481613005565b600080600080600080611ba1613075565b935093509350935080421015611bf4576001945083831115611bd8578181038242038585030281611bce57fe5b0484019550611bef565b8181038242038486030281611be957fe5b04840395505b611bfc565b600094508295505b505050509091565b6000611c1382151560046119f0565b82611c20575060006107fd565b816001840381611c2c57fe5b0460010190506107fd565b611c43848484846130cc565b7f1835882ee7a34ac194f717a35e09bb1d24c82a3b9d854ab6c9749525b714cdf284848484604051611c78949392919061646c565b60405180910390a150505050565b6000611c9282826115c9565b611c9d84601f61312c565b611ca886605461313d565b611cb388606a61312c565b611cbe8a609f61313d565b611cc98c60b561312c565b611cd48e60ea61313d565b17171717171798975050505050505050565b60006107fd8282612fd3565b60007f00000000000000000000000000000000000000000000000000000000000000007f00000000000000000000000000000000000000000000000000000000000000007f0000000000000000000000000000000000000000000000000000000000000000611d5f61314a565b30604051602001611d7495949392919061628d565b60405160208183030381529060405280519060200120905090565b611da264e8d4a5100082101560cb6119f0565b611db867016345785d8a000082111560ca6119f0565b600854611dc7908260c061159d565b6008556040517fa9ba3ffe0b6c366b81232caab38605a0699ad5398d6cce76f91ee809e322dafc90611817908390616231565b6000828201610ae584821015836119f0565b611e1860008383611598565b600254611e259082611dfa565b6002556001600160a01b038216600090815260208190526040902054611e4b9082611dfa565b6001600160a01b0383166000818152602081905260408082209390935591519091907fddf252ad1be2c89b69c2b068fc378daa952ba7f163c4a11628f55a4df523b3ef90611e9a908590616231565b60405180910390a35050565b6000611eb0610ca7565b90506000611ebc611079565b6001600160a01b031663b05f8e4883866040518363ffffffff1660e01b8152600401611ee99291906162d2565b60806040518083038186803b158015611f0157600080fd5b505afa158015611f15573d6000803e3d6000fd5b505050506040513d601f19601f82011682018060405250810190611f399190616002565b6040517f18e736d40000000000000000000000000000000000000000000000000000000081529094506001600160a01b03851693506318e736d49250611f869150859087906004016162b9565b600060405180830381600087803b158015611fa057600080fd5b505af1158015611fb4573d6000803e3d6000fd5b5050505050505050565b1c67ffffffffffffffff1690565b7f000000000000000000000000000000000000000000000000000000000000000090565b610d1081831460676119f0565b600060608061200a611822565b1561204257612042878960008151811061202057fe5b60200260200101518a60018151811061203557fe5b602002602001015161314e565b6120528b8b8b8b8b8b8b8b6131e7565b9250925092505b985098509895505050505050565b60005b612072611fcc565b811015611598576120a983828151811061208857fe5b602002602001015183838151811061209c57fe5b6020026020010151612388565b8382815181106120b557fe5b602090810291909101015260010161206a565b3330146121b7576000306001600160a01b03166000366040516120ec9291906160f7565b6000604051808303816000865af19150503d8060008114612129576040519150601f19603f3d011682016040523d82523d6000602084013e61212e565b606091505b50509050806000811461213d57fe5b60046000803e6000517fffffffff00000000000000000000000000000000000000000000000000000000167f43adbafb000000000000000000000000000000000000000000000000000000008114612199573d6000803e3d6000fd5b506020600460003e604060205260243d03602460403e601c3d016000f35b60606121c1611899565b90506121cd87826122cd565b600060606121e58c8c8c8c8c8c898d8d63ffffffff16565b50915091506121f881848663ffffffff16565b8051601f1982018390526343adbafb7fffffffffffffffffffffffffffffffffffffffffffffffffffffffffffffffc08301526020027fffffffffffffffffffffffffffffffffffffffffffffffffffffffffffffffdc82016044820181fd5b6000908152600c602052604090205490565b600080600080600080600061227e8861327d565b96506122898861328a565b955061229488613297565b945061229f886132a4565b93506122aa886132b1565b92506122b5886132be565b91506122c088611ce6565b9050919395979092949650565b60005b6122d8611fcc565b8110156115985761230f8382815181106122ee57fe5b602002602001015183838151811061230257fe5b6020026020010151612f64565b83828151811061231b57fe5b60209081029190910101526001016122d0565b81516000908190815b8181101561236f5761236586828151811061234e57fe5b602002602001015184611dfa90919063ffffffff16565b9250600101612337565b508161238057600092505050610ae5565b509050610ae5565b600061239782151560046119f0565b826123a4575060006107fd565b670de0b6b3a7640000838102906123c7908583816123be57fe5b041460056119f0565b8281816123d057fe5b049150506107fd565b6040517f34171a8500000000000000000000000000000000000000000000000000000000815260009073Adcd9ccb1DEf8d98E14BBf0A7252B369dB2E9A15906334171a859061243390600c9088908890889060040161638b565b60206040518083038186803b15801561244b57600080fd5b505af415801561245f573d6000803e3d6000fd5b505050506040513d601f19601f8201168201806040525081019061072f9190615ec9565b6060808861249261164c611079565b61249d611672610ca7565b60606124a7611899565b90506124b388826122cd565b60006060806124c88e8e8e8e8e8e8a8f611ffd565b9250925092506124d88d846132cb565b6124e28285612067565b6124ec8185612067565b909550935050505b5097509795505050505050565b6000606080612517878960008151811061202057fe5b6120528b8b8b8b8b8b8b8b6132d5565b60005b612532611fcc565b8110156115985761256983828151811061254857fe5b602002602001015183838151811061255c57fe5b602002602001015161332e565b83828151811061257557fe5b602090810291909101015260010161252a565b6000836080015161259a61164c611079565b6125a5611672610ca7565b60006125b4866020015161337c565b905060006125c5876040015161337c565b90506000875160018111156125d657fe5b14156126665760006125eb88606001516133a1565b9050600081896060015103905061260f896020015161260a83876133c2565b6133ce565b6060890182905261262088856133c2565b975061262c87846133c2565b965061263c8960600151856133c2565b60608a0152600061264e8a8a8a6133e0565b905061265a8185613419565b965050505050506126de565b61267086836133c2565b955061267c85826133c2565b945061268c8760600151826133c2565b6060880152600061269e888888613425565b90506126aa8184613454565b905060006126b782613460565b9050600082820390506126d28a6020015161260a83886133c2565b5094506126de92505050565b509392505050565b60006126f18261287f565b80156107fd575060006127026119a8565b6001600160a01b0316141592915050565b610b1e6127266127216128b1565b613486565b612841565b6000612736826128da565b80156107fd575060006127026119cc565b610b1e61275561272161290c565b612863565b7f08c379a0000000000000000000000000000000000000000000000000000000006000908152602060045260076024526642414c23000030600a808404818106603090810160081b95839006959095019082900491820690940160101b939093010160c81b604452606490fd5b60006127d1611079565b6001600160a01b031663aaabadc56040518163ffffffff1660e01b815260040160206040518083038186803b15801561280957600080fd5b505afa15801561281d573d6000803e3d6000fd5b505050506040513d601f19601f820116820180604052508101906109749190615d38565b60008061285561284f6119a8565b84613493565b91509150611598828261357c565b60008061287161284f6119cc565b9150915061159882826135e8565b7f00000000000000000000000000000000000000000000000000000000000000006001600160a01b0390811691161490565b600d5490565b60008060006128c584613648565b92506128d084613654565b9395909450915050565b7f00000000000000000000000000000000000000000000000000000000000000006001600160a01b0390811691161490565b600e5490565b600061291c611cf2565b82604051602001611012929190616107565b6060808861293d61164c611079565b612948611672610ca7565b6060612952611899565b905061295c610817565b612a0a57600060606129718d8d8d868b613674565b9150915061298a612980613703565b83101560cc6119f0565b61299760006104c8613703565b6129aa8b6129a3613703565b8403610d06565b6129b48184612527565b806129bd611fcc565b67ffffffffffffffff811180156129d357600080fd5b506040519080825280602002602001820160405280156129fd578160200160208202803683370190505b50955095505050506124f4565b612a1488826122cd565b6000606080612a298e8e8e8e8e8e8a8f612501565b925092509250612a398c84610d06565b612a438285612527565b612a4d8185612067565b90955093506124f4915050565b6001600160a01b03918216600090815260016020908152604080832093909416825291909152205490565b612a91818242426130cc565b7fa0d01593e47e69d07e0ccd87bece09411e07dd1ed40ca8f2e7af2976542a0233816040516118179190616231565b600080612ae56040518060600160405280602d8152602001616541602d91398661370a565b6000612af287878761377d565b9050612b008187878761395a565b9150612b0b8161301a565b92505094509492505050565b600281511015612b2657610814565b600081600081518110612b3557fe5b602002602001015190506000600190505b8251811015611598576000838281518110612b5d57fe5b60200260200101519050612b86816001600160a01b0316846001600160a01b03161060656119f0565b9150600101612b46565b6000612b9a6119a8565b6001600160a01b031614610b1e57600080612bbb612bb66128b1565b613654565b9150915080421115610d1057610d1082612841565b6000612bda6119cc565b6001600160a01b031614610b1e57600080612bf6612bb661290c565b9150915080421115610d1057610d1082612863565b6115988184108015610c20575081831060646119f0565b6000612c2e85836122cd565b612c4f8660600151838581518110612c4257fe5b60200260200101516133c2565b60608701526000612c6287878787613985565b9050612c8181848781518110612c7457fe5b6020026020010151613454565b9050612c8c81613460565b9150505b95945050505050565b6000612ca886606001516133a1565b6060870152612cb785836122cd565b612ccb8660600151838681518110612c4257fe5b60608701526000612cde878787876139bd565b9050612c8c81848681518110612cf057fe5b6020026020010151613419565b600073ba1ba1ba1ba1ba1ba1ba1ba1ba1ba1ba1ba1ba1b612d1c611055565b6001600160a01b031614158015612d375750612d37836139e0565b15612d5f57612d44611055565b6001600160a01b0316336001600160a01b03161490506107fd565b612d676127c7565b6001600160a01b0316639be2a8848484306040518463ffffffff1660e01b8152600401612d969392919061623a565b60206040518083038186803b158015612dae57600080fd5b505afa158015612dc2573d6000803e3d6000fd5b505050506040513d601f19601f82011682018060405250810190612de69190615c39565b90506107fd565b60606000612df9611fcc565b905060608167ffffffffffffffff81118015612e1457600080fd5b50604051908082528060200260200182016040528015612e3e578160200160208202803683370190505b509050612e49613a4e565b81600081518110612e5657fe5b602002602001018181525050612e6a613a72565b81600181518110612e7757fe5b6020026020010181815250506002821115612eb257612e94613a96565b81600281518110612ea157fe5b602002602001018181525050612ebb565b91506107e99050565b6003821115612eb257612ecc613aba565b81600381518110612ed957fe5b6020026020010181815250506004821115612eb257612ef6613ade565b81600481518110612f0357fe5b60200260200101818152505091505090565b6000612f20826126e6565b15612f3c57612f35612f306128b1565b613648565b9050610f89565b612f458261272b565b15612f5557612f35612f3061290c565b50670de0b6b3a7640000610f89565b6000828202612f7e84158061157957508385838161157657fe5b670de0b6b3a764000090049392505050565b600082821c623fffff16621fffff8113612faa578061072f565b7fffffffffffffffffffffffffffffffffffffffffffffffffffffffffffc00000179392505050565b1c637fffffff1690565b1c6103ff1690565b1c60019081161490565b6000612ffe84841115836119f0565b5050900390565b600854613014908260006115fe565b60085550565b60008061302683613b02565b9050600080821361303f57652d79883d20008203613049565b652d79883d200082015b655af3107a40009005949350505050565b6000610ae5838383613b5f565b6000610ae583836016613b5f565b6000806000806130916000600954611fbe90919063ffffffff16565b6009549094506130a2906040611fbe565b6009549093506130b3906080611fbe565b6009549092506130c49060c0611fbe565b905090919293565b6130e18167ffffffffffffffff1660c06115c9565b6130f68367ffffffffffffffff1660806115c9565b61310b8567ffffffffffffffff1660406115c9565b6131208767ffffffffffffffff1660006115c9565b17171760095550505050565b661fffffffffffff91909116901b90565b623fffff91909116901b90565b4690565b6000613158611962565b90506000613164611b90565b5090506131708261199b565b801561317b57508443115b156131e05760008061319283878761153688611974565b9150915060006131a18561198e565b905060006131ae86611981565b905060018281146131da576131c38782613b76565b96506131cf8742613b84565b96506131da87613005565b50505050505b5050505050565b60006060806131f4611822565b15613217576132038887613b92565b905061321288826115b3613c7f565b613263565b61321f611fcc565b67ffffffffffffffff8111801561323557600080fd5b5060405190808252806020026020018201604052801561325f578160200160208202803683370190505b5090505b61326e888686613ce4565b90935091506120598883613d6f565b60006107fd8260ea612f90565b60006107fd8260b5613d9e565b60006107fd82609f612f90565b60006107fd82606a613d9e565b60006107fd826054612f90565b60006107fd82601f613d9e565b610d108282613de9565b60006060806132e2611ade565b60606132ee8988613b92565b90506132fd89826115b3613c7f565b6000606061330c8b8989613e99565b9150915061331a8b82613ef2565b909d909c50909a5098505050505050505050565b600061333d82151560046119f0565b8261334a575060006107fd565b670de0b6b3a764000083810290613364908583816123be57fe5b82600182038161337057fe5b046001019150506107fd565b60008061338883613eff565b9050600061339584612f15565b905061072f8282612f64565b6000806133b66133af610d2e565b8490613ffe565b9050610ae583826115b3565b6000610ae58383612f64565b610d106133da83614058565b82610d10565b60006133f76133ed611fcc565b60021460d26119f0565b606060008061340787878761405e565b9250925092506116cd878484846139bd565b6000610ae58383612388565b60006134326133ed611fcc565b606060008061344287878761405e565b9250925092506116cd87848484613985565b6000610ae5838361332e565b60006107fd61347f613470610d2e565b670de0b6b3a7640000906115b3565b839061332e565b60006107fd826080611fbe565b600080836001600160a01b031663679aefce6040518163ffffffff1660e01b815260040160206040518083038186803b1580156134cf57600080fd5b505afa1580156134e3573d6000803e3d6000fd5b505050506040513d601f19601f820116820180604052508101906135079190615ec9565b905061352870010000000000000000000000000000000082106101496119f0565b61353f83420167ffffffffffffffff1660c06115c9565b6135548467ffffffffffffffff1660806115c9565b613571836fffffffffffffffffffffffffffffffff1660006115c9565b171791509250929050565b81600d819055507f00000000000000000000000000000000000000000000000000000000000000006001600160a01b03167fc1a224b14823b63c7711127f125fbf592434682f38881ebb61408747a303affc826040516135dc9190616231565b60405180910390a25050565b81600e819055507f00000000000000000000000000000000000000000000000000000000000000006001600160a01b03167fc1a224b14823b63c7711127f125fbf592434682f38881ebb61408747a303affc826040516135dc9190616231565b60006107fd828261411f565b60008061366083613486565b915061366d8360c0611fbe565b9050915091565b60006060613680611ade565b600061368b84614135565b90506136a6600082600281111561369e57fe5b1460ce6119f0565b60606136b18561414b565b90506136c08151610d50611fcc565b6136ca81876122cd565b60006136d4611b90565b50905060006136e58284600161232e565b9050806136f28184614161565b9b929a509198505050505050505050565b620f424090565b610d108282604051602401613720929190616405565b60408051601f198184030181529190526020810180517bffffffffffffffffffffffffffffffffffffffffffffffffffffffff167fb60e72cc0000000000000000000000000000000000000000000000000000000017905261416c565b60006137bd6040518060400160405280601081526020017f537461626c654f7261636c654d6174680000000000000000000000000000000081525061418d565b60006137d4856137cd86866141fe565b600161232e565b90506137f86040518060600160405280602a8152602001616517602a91398661370a565b60408051808201909152601581527f537461626c654f7261636c654d6174682061202573000000000000000000000060208201526103e860028702049061383f908261370a565b60006138558361384f858561155c565b906115b3565b90506138966040518060400160405280601581526020017f537461626c654f7261636c654d617468206220257300000000000000000000008152508261370a565b60006138af866138a9856002028a61155c565b90612f64565b90506138f06040518060400160405280601881526020017f537461626c654f7261636c654d617468206178793220257300000000000000008152508261370a565b60006139176138ff8489612f64565b61384f6139108a6138a9898d61155c565b8590611dfa565b90506000613940613928858b612f64565b61384f6139398c6138a98a8f61155c565b8690611dfa565b905061394c828261332e565b9a9950505050505050505050565b60008061396a6139398786613ffe565b905060006139778261301a565b939093039695505050505050565b60006139b18560a001518560008151811061399c57fe5b60200260200101518660018151811061203557fe5b61072c85858585614258565b60006139d48560a001518560008151811061399c57fe5b61072c8585858561429f565b6000613a0b7f2f1a0bc900000000000000000000000000000000000000000000000000000000610fdd565b821480613a3f5750613a3c7feb0f24d600000000000000000000000000000000000000000000000000000000610fdd565b82145b806107fd57506107fd826142da565b7f000000000000000000000000000000000000000000000000000000000000000090565b7f000000000000000000000000000000000000000000000000000000000000000090565b7f000000000000000000000000000000000000000000000000000000000000000090565b7f000000000000000000000000000000000000000000000000000000000000000090565b7f000000000000000000000000000000000000000000000000000000000000000090565b6000613b126000831360646119f0565b670c7d713b49da000082138015613b305750670f43fc2c04ee000082125b15613b5657670de0b6b3a7640000613b478361433e565b81613b4e57fe5b059050610f89565b612f3582614475565b623fffff828116821b90821b198416179392505050565b6000610ae58383604b614815565b6000610ae58383602c614825565b606080613b9d611fcc565b67ffffffffffffffff81118015613bb357600080fd5b50604051908082528060200260200182016040528015613bdd578160200160208202803683370190505b50905082613bec5790506107fd565b60008085600081518110613bfc57fe5b602002602001015190506000600190505b613c15611fcc565b811015613c4c576000878281518110613c2a57fe5b6020026020010151905082811115613c43578193508092505b50600101613c0d565b50613c5e600b5487600a548589614837565b838381518110613c6a57fe5b60209081029190910101525090949350505050565b60005b613c8a611fcc565b811015610c7e57613cc5848281518110613ca057fe5b6020026020010151848381518110613cb457fe5b60200260200101518463ffffffff16565b848281518110613cd157fe5b6020908102919091010152600101613c82565b600060606000613cf384614135565b90506000816002811115613d0357fe5b1415613d1d57613d138685614899565b9250925050613d67565b6001816002811115613d2b57fe5b1415613d3b57613d138685614964565b6002816002811115613d4957fe5b1415613d5a57613d13868686614996565b613d6561015061275a565b505b935093915050565b613d7c82826115b3613c7f565b6000613d86611b90565b509050611598613d988285600161232e565b82614161565b600082821c661fffffffffffff16660fffffffffffff8113613dc0578061072f565b7fffffffffffffffffffffffffffffffffffffffffffffffffffe0000000000000179392505050565b613e006001600160a01b038316151561019b6119f0565b613e0c82600083611598565b6001600160a01b038216600090815260208190526040902054613e3290826101a1612fef565b6001600160a01b038316600090815260208190526040902055600254613e589082614a12565b6002556040516000906001600160a01b038416907fddf252ad1be2c89b69c2b068fc378daa952ba7f163c4a11628f55a4df523b3ef90611e9a908590616231565b600060606000613ea884614135565b90506001816002811115613eb857fe5b1415613ec957613d13868686614a20565b6002816002811115613ed757fe5b1415613ee757613d138685614a8a565b613d6561013661275a565b613d7c8282611dfa613c7f565b6000613f0a8261287f565b15613f1757612f35613a4e565b613f20826128da565b15613f2d57612f35613a72565b7f00000000000000000000000000000000000000000000000000000000000000006001600160a01b0316826001600160a01b03161415613f6f57612f35613a96565b7f00000000000000000000000000000000000000000000000000000000000000006001600160a01b0316826001600160a01b03161415613fb157612f35613aba565b7f00000000000000000000000000000000000000000000000000000000000000006001600160a01b0316826001600160a01b03161415613ff357612f35613ade565b610f8961013561275a565b600082820261401884158061157957508385838161157657fe5b806140275760009150506107fd565b670de0b6b3a76400007fffffffffffffffffffffffffffffffffffffffffffffffffffffffffffffffff8201613370565b50600090565b60408051600280825260608281019093526000918291816020016020820280368337019050509250614093866020015161287f565b156140d957600091506001905084836000815181106140ae57fe5b60200260200101818152505083836001815181106140c857fe5b602002602001018181525050614116565b600090506001915083836000815181106140ef57fe5b602002602001018181525050848360018151811061410957fe5b6020026020010181815250505b93509350939050565b1c6fffffffffffffffffffffffffffffffff1690565b6000818060200190518101906107fd9190615da2565b606081806020019051810190610ae59190615e68565b600a91909155600b55565b80516a636f6e736f6c652e6c6f67602083016000808483855afa5050505050565b610814816040516024016141a191906163f2565b60408051601f198184030181529190526020810180517bffffffffffffffffffffffffffffffffffffffffffffffffffffffff167f41304fac0000000000000000000000000000000000000000000000000000000017905261416c565b6040805160028082526060808301845292602083019080368337019050509050828160008151811061422c57fe5b602002602001018181525050818160018151811061424657fe5b60200260200101818152505092915050565b6000614262611ade565b600061426c611b90565b509050600061427d8287600161232e565b90506000614293838888888c6060015187614b1f565b98975050505050505050565b60006142a9611ade565b60006142b3611b90565b50905060006142c48287600161232e565b90506000614293838888888c6060015187614bce565b60006143057f38e9922e00000000000000000000000000000000000000000000000000000000610fdd565b8214806107fd57506143367f50dd6ed900000000000000000000000000000000000000000000000000000000610fdd565b909114919050565b670de0b6b3a7640000026000806ec097ce7bc90715b34b9f1000000000808401907fffffffffffffffffffffffffffffffffff3f68318436f8ea4cb460f0000000008501028161438a57fe5b05905060006ec097ce7bc90715b34b9f100000000082800205905081806ec097ce7bc90715b34b9f100000000081840205915060038205016ec097ce7bc90715b34b9f100000000082840205915060058205016ec097ce7bc90715b34b9f100000000082840205915060078205016ec097ce7bc90715b34b9f100000000082840205915060098205016ec097ce7bc90715b34b9f1000000000828402059150600b8205016ec097ce7bc90715b34b9f1000000000828402059150600d8205016ec097ce7bc90715b34b9f1000000000828402059150600f826002919005919091010295945050505050565b6000670de0b6b3a76400008212156144b2576144a8826ec097ce7bc90715b34b9f1000000000816144a257fe5b05614475565b6000039050610f89565b60007e1600ef3172e58d2e933ec884fde10064c63b5372d805e203c0000000000000831261450357770195e54c5dd42177f53a27172fa9ec630262827000000000830592506806f05b59d3b2000000015b73011798004d755d3c8bc8e03204cf44619e000000831261453b576b1425982cf597cd205cef7380830592506803782dace9d9000000015b606492830292026e01855144814a7ff805980ff00840008312614583576e01855144814a7ff805980ff008400068056bc75e2d63100000840205925068ad78ebc5ac62000000015b6b02df0ab5a80a22c61ab5a70083126145be576b02df0ab5a80a22c61ab5a70068056bc75e2d6310000084020592506856bc75e2d631000000015b693f1fce3da636ea5cf85083126145f557693f1fce3da636ea5cf85068056bc75e2d631000008402059250682b5e3af16b18800000015b690127fa27722cc06cc5e2831261462c57690127fa27722cc06cc5e268056bc75e2d6310000084020592506815af1d78b58c400000015b68280e60114edb805d0383126146615768280e60114edb805d0368056bc75e2d631000008402059250680ad78ebc5ac6200000015b680ebc5fb41746121110831261468c57680ebc5fb4174612111068056bc75e2d631000009384020592015b6808f00f760a4b2db55d83126146c1576808f00f760a4b2db55d68056bc75e2d6310000084020592506802b5e3af16b1880000015b6806f5f177578893793783126146f6576806f5f177578893793768056bc75e2d63100000840205925068015af1d78b58c40000015b6806248f33704b286603831261472a576806248f33704b28660368056bc75e2d63100000840205925067ad78ebc5ac620000015b6805c548670b9510e7ac831261475e576805c548670b9510e7ac68056bc75e2d6310000084020592506756bc75e2d6310000015b600068056bc75e2d63100000840168056bc75e2d63100000808603028161478157fe5b059050600068056bc75e2d63100000828002059050818068056bc75e2d63100000818402059150600382050168056bc75e2d63100000828402059150600582050168056bc75e2d63100000828402059150600782050168056bc75e2d63100000828402059150600982050168056bc75e2d63100000828402059150600b820501600202606485820105979650505050505050565b6103ff811b1992909216911b1790565b637fffffff811b1992909216911b1790565b60008061484687878787614c61565b90508086858151811061485557fe5b60200260200101511161486c576000915050612c90565b60008187868151811061487b57fe5b60200260200101510390506142938482612f6490919063ffffffff16565b600060606148a5611ade565b6000806148b185614e17565b915091506148c96148c0611fcc565b821060646119f0565b60606148d3611fcc565b67ffffffffffffffff811180156148e957600080fd5b50604051908082528060200260200182016040528015614913578160200160208202803683370190505b5090506000614920611b90565b50905061493f81898587614932610817565b61493a610d2e565b614e39565b82848151811061494b57fe5b6020908102919091010152509196919550909350505050565b60006060600061497384614f55565b905060606149898683614984610817565b614f6b565b9196919550909350505050565b600060606149a2611ade565b606060006149af85615007565b915091506149c08251610d50611fcc565b6149ca82876122cd565b60006149d4611b90565b50905060006149f4828a866149e7610817565b6149ef610d2e565b61501f565b9050614a048382111560cf6119f0565b989297509195505050505050565b6000610ae583836001612fef565b60006060806000614a3085615007565b91509150614a46614a3f611fcc565b8351611ff0565b614a5082876122cd565b6000614a5a611b90565b5090506000614a7a828a86614a6d610817565b614a75610d2e565b6152b5565b9050614a048382101560d06119f0565b60006060600080614a9a85614e17565b91509150614aa96148c0611fcc565b6060614ab3611fcc565b67ffffffffffffffff81118015614ac957600080fd5b50604051908082528060200260200182016040528015614af3578160200160208202803683370190505b5090506000614b00611b90565b50905061493f81898587614b12610817565b614b1a610d2e565b61554a565b6000614b4783878681518110614b3157fe5b60200260200101516115b390919063ffffffff16565b868581518110614b5357fe5b6020026020010181815250506000614b6d88888589614c61565b905083878681518110614b7c57fe5b602002602001015101878681518110614b9157fe5b6020026020010181815250506142936001614bc8898981518110614bb157fe5b6020026020010151846115b390919063ffffffff16565b90611dfa565b6000614bf683878781518110614be057fe5b6020026020010151611dfa90919063ffffffff16565b868681518110614c0257fe5b6020026020010181815250506000614c1c88888588614c61565b905083878781518110614c2b57fe5b602002602001015103878781518110614c4057fe5b602002602001018181525050614293600161384f838a8981518110614b3157fe5b600080845186029050600085600081518110614c7957fe5b602002602001015190506000865187600081518110614c9457fe5b60200260200101510290506000600190505b8751811015614cfa57614cdf614cd9614cd2848b8581518110614cc557fe5b602002602001015161155c565b8a5161155c565b88615627565b9150614cf088828151811061234e57fe5b9250600101614ca6565b50868581518110614d0757fe5b6020026020010151820391506000614d1f878861155c565b90506000614d4b614d3f614d3784610bb8898861155c565b6103e861155c565b8a8981518110614cc557fe5b90506000614d5f613939614d378b89615627565b9050600080614d7b614d718686611dfa565b610bb88d86611dfa565b905060005b60ff811015614dfb57819250614db0614d9d86614bc8858661155c565b610bb88e61384f88614bc888600261155c565b915082821115614dd957600183830311614dd45750975061072f9650505050505050565b614df3565b600182840311614df35750975061072f9650505050505050565b600101614d80565b50614e0761014261275a565b5050505050505050949350505050565b60008082806020019051810190614e2e9190615e32565b909590945092505050565b600080614e488888600161232e565b90506000614e6a82614e6487614e5e818b6115b3565b9061332e565b90613ffe565b90506000614e7a8a8a848b614c61565b90506000614e8e828b8b81518110614b3157fe5b90506000805b8b51811015614ecd57614ec38c8281518110614eac57fe5b602002602001015183611dfa90919063ffffffff16565b9150600101614e94565b506000614ef6828d8d81518110614ee057fe5b602002602001015161238890919063ffffffff16565b90506000614f0382615647565b90506000614f118583613ffe565b90506000614f1f86836115b3565b9050614f40614f3983670de0b6b3a76400008e9003612f64565b8290611dfa565b99505050505050505050509695505050505050565b600081806020019051810190610ae59190615e05565b60606000614f798484612388565b90506060855167ffffffffffffffff81118015614f9557600080fd5b50604051908082528060200260200182016040528015614fbf578160200160208202803683370190505b50905060005b8651811015614ffd57614fde838883815181106118de57fe5b828281518110614fea57fe5b6020908102919091010152600101614fc5565b5095945050505050565b6060600082806020019051810190614e2e9190615dbe565b600080805b86518110156150465761503c878281518110614eac57fe5b9150600101615024565b506060855167ffffffffffffffff8111801561506157600080fd5b5060405190808252806020026020018201604052801561508b578160200160208202803683370190505b5090506000805b88518110156151525760006150c3858b84815181106150ad57fe5b602002602001015161332e90919063ffffffff16565b90506150ff8a83815181106150d457fe5b6020026020010151614e5e8b85815181106150eb57fe5b60200260200101518d8681518110614b3157fe5b84838151811061510b57fe5b6020026020010181815250506151476151408286858151811061512a57fe5b6020026020010151613ffe90919063ffffffff16565b8490611dfa565b925050600101615092565b506060885167ffffffffffffffff8111801561516d57600080fd5b50604051908082528060200260200182016040528015615197578160200160208202803683370190505b50905060005b89518110156152625760008482815181106151b457fe5b602002602001015184111561521b5760006151dd6151d186615647565b8d85815181106118de57fe5b905060006151f1828d8681518110614b3157fe5b905061521261520b82670de0b6b3a76400008d900361332e565b8390611dfa565b92505050615232565b89828151811061522757fe5b602002602001015190505b615242818c8481518110614b3157fe5b83838151811061524e57fe5b60209081029190910101525060010161519d565b5060006152718b8b600161232e565b905060006152818c84600061232e565b9050600061528f8284612388565b90506152a461529d82615647565b8b90613ffe565b9d9c50505050505050505050505050565b600080805b86518110156152dc576152d2878281518110614eac57fe5b91506001016152ba565b506060855167ffffffffffffffff811180156152f757600080fd5b50604051908082528060200260200182016040528015615321578160200160208202803683370190505b5090506000805b88518110156153bb576000615343858b8481518110614ee057fe5b90506153858a838151811061535457fe5b602002602001015161537f8b858151811061536b57fe5b60200260200101518d8681518110614be057fe5b90612388565b84838151811061539157fe5b6020026020010181815250506153b0615140828685815181106118de57fe5b925050600101615328565b506060885167ffffffffffffffff811180156153d657600080fd5b50604051908082528060200260200182016040528015615400578160200160208202803683370190505b50905060005b89518110156154c15760008385838151811061541e57fe5b6020026020010151111561547a5760006154436151d186670de0b6b3a76400006115b3565b90506000615457828d8681518110614b3157fe5b905061547161520b82670de0b6b3a76400008d9003612f64565b92505050615491565b89828151811061548657fe5b602002602001015190505b6154a1818c8481518110614be057fe5b8383815181106154ad57fe5b602090810291909101015250600101615406565b5060006154d08b8b600161232e565b905060006154e08c84600061232e565b905060006154ee8284612388565b9050670de0b6b3a764000081111561553a5761552c8a7ffffffffffffffffffffffffffffffffffffffffffffffffff21f494c589c00008301612f64565b975050505050505050612c90565b6000975050505050505050612c90565b6000806155598888600161232e565b9050600061556f82614e6487614e5e818b611dfa565b9050600061557f8a8a848b614c61565b905060006155a98a8a8151811061559257fe5b6020026020010151836115b390919063ffffffff16565b90506000805b8b518110156155d1576155c78c8281518110614eac57fe5b91506001016155af565b5060006155e4828d8d81518110614ee057fe5b905060006155f182615647565b905060006155ff8583613ffe565b9050600061560d86836115b3565b9050614f40614f3983670de0b6b3a76400008e900361332e565b600061563682151560046119f0565b81838161563f57fe5b049392505050565b6000670de0b6b3a7640000821061565f5760006107fd565b50670de0b6b3a76400000390565b604080518082019091526000808252602082015290565b80356107fd816164e6565b600082601f83011261569f578081fd5b81356156b26156ad826164bc565b616495565b8181529150602080830190848101818402860182018710156156d357600080fd5b60005b848110156156f2578135845292820192908201906001016156d6565b505050505092915050565b600082601f83011261570d578081fd5b815161571b6156ad826164bc565b81815291506020808301908481018184028601820187101561573c57600080fd5b60005b848110156156f25781518452928201929082019060010161573f565b600082601f83011261576b578081fd5b813567ffffffffffffffff811115615781578182fd5b6157946020601f19601f84011601616495565b91508082528360208285010111156157ab57600080fd5b8060208401602084013760009082016020015292915050565b8035600281106107fd57600080fd5b80356107fd81616509565b60006101208083850312156157f1578182fd5b6157fa81616495565b91505061580783836157c4565b81526158168360208401615684565b60208201526158288360408401615684565b6040820152606082013560608201526080820135608082015260a082013560a08201526158588360c08401615684565b60c082015261586a8360e08401615684565b60e08201526101008083013567ffffffffffffffff81111561588b57600080fd5b6158978582860161575b565b82840152505092915050565b6000602082840312156158b4578081fd5b8135610ae5816164e6565b600080604083850312156158d1578081fd5b82356158dc816164e6565b915060208301356158ec816164e6565b809150509250929050565b60008060006060848603121561590b578081fd5b8335615916816164e6565b92506020840135615926816164e6565b929592945050506040919091013590565b600080600080600080600060e0888a031215615951578485fd5b873561595c816164e6565b9650602088013561596c816164e6565b95506040880135945060608801359350608088013560ff8116811461598f578384fd5b9699959850939692959460a0840135945060c09093013592915050565b600080604083850312156159be578182fd5b82356159c9816164e6565b946020939093013593505050565b6000806000606084860312156159eb578081fd5b835167ffffffffffffffff80821115615a02578283fd5b818601915086601f830112615a15578283fd5b8151615a236156ad826164bc565b80828252602080830192508086018b828387028901011115615a43578788fd5b8796505b84871015615a6e578051615a5a816164e6565b845260019690960195928101928101615a47565b508901519097509350505080821115615a85578283fd5b50615a92868287016156fd565b925050604084015190509250925092565b60006020808385031215615ab5578182fd5b823567ffffffffffffffff811115615acb578283fd5b8301601f81018513615adb578283fd5b8035615ae96156ad826164bc565b818152838101908385016040808502860187018a1015615b07578788fd5b8795505b84861015615b545780828b031215615b21578788fd5b615b2a81616495565b615b348b846157d3565b815282880135888201528452600195909501949286019290810190615b0b565b509098975050505050505050565b60006020808385031215615b74578182fd5b823567ffffffffffffffff811115615b8a578283fd5b8301601f81018513615b9a578283fd5b8035615ba86156ad826164bc565b818152838101908385016060808502860187018a1015615bc6578788fd5b8795505b84861015615b545780828b031215615be0578788fd5b615be981616495565b615bf38b846157d3565b81528288013588820152604080840135908201528452600195909501949286019290810190615bca565b600060208284031215615c2e578081fd5b8135610ae5816164fb565b600060208284031215615c4a578081fd5b8151610ae5816164fb565b600080600080600080600060e0888a031215615c6f578081fd5b873596506020880135615c81816164e6565b95506040880135615c91816164e6565b9450606088013567ffffffffffffffff80821115615cad578283fd5b615cb98b838c0161568f565b955060808a0135945060a08a0135935060c08a0135915080821115615cdc578283fd5b50615ce98a828b0161575b565b91505092959891949750929550565b600060208284031215615d09578081fd5b81357fffffffff0000000000000000000000000000000000000000000000000000000081168114610ae5578182fd5b600060208284031215615d49578081fd5b8151610ae5816164e6565b60008060408385031215615d66578182fd5b8235615d71816164e6565b9150602083013567ffffffffffffffff811115615d8c578182fd5b615d988582860161575b565b9150509250929050565b600060208284031215615db3578081fd5b8151610ae581616509565b600080600060608486031215615dd2578081fd5b8351615ddd81616509565b602085015190935067ffffffffffffffff811115615df9578182fd5b615a92868287016156fd565b60008060408385031215615e17578182fd5b8251615e2281616509565b6020939093015192949293505050565b600080600060608486031215615e46578081fd5b8351615e5181616509565b602085015160409095015190969495509392505050565b60008060408385031215615e7a578182fd5b8251615e8581616509565b602084015190925067ffffffffffffffff811115615ea1578182fd5b615d98858286016156fd565b600060208284031215615ebe578081fd5b8135610ae581616509565b600060208284031215615eda578081fd5b5051919050565b60008060008060808587031215615ef6578182fd5b843567ffffffffffffffff80821115615f0d578384fd5b615f19888389016157de565b95506020870135915080821115615f2e578384fd5b50615f3b8782880161568f565b949794965050505060408301359260600135919050565b600080600060608486031215615f66578081fd5b833567ffffffffffffffff811115615f7c578182fd5b615f88868287016157de565b9660208601359650604090950135949350505050565b600060208284031215615faf578081fd5b5035919050565b60008060408385031215615fc8578182fd5b50508035926020909101359150565b600080600060608486031215615feb578081fd5b505081359360208301359350604090920135919050565b60008060008060808587031215616017578182fd5b8451935060208501519250604085015191506060850151616037816164e6565b939692955090935050565b6000815180845260208085019450808401835b8381101561607157815187529582019590820190600101616055565b509495945050505050565b60008151808452815b818110156160a157602081850181015186830182015201616085565b818111156160b25782602083870101525b50601f01601f19169290920160200192915050565b9182527fffffffff0000000000000000000000000000000000000000000000000000000016602082015260240190565b6000828483379101908152919050565b7f190100000000000000000000000000000000000000000000000000000000000081526002810192909252602282015260420190565b6001600160a01b0391909116815260200190565b6020808252825182820181905260009190848201906040850190845b818110156161925783516001600160a01b03168352928401929184019160010161616d565b50909695505050505050565b6020808252825182820181905260009190848201906040850190845b81811015616192578351835292840192918401916001016161ba565b600060208252610ae56020830184616042565b6000604082526161fc6040830185616042565b8281036020840152612c908185616042565b901515815260200190565b92151583526020830191909152604082015260600190565b90815260200190565b9283526001600160a01b03918216602084015216604082015260600190565b9586526001600160a01b0394851660208701529290931660408501526060840152608083019190915260a082015260c00190565b9485526020850193909352604084019190915260608301526001600160a01b0316608082015260a00190565b60008382526040602083015261072f604083018461607c565b9182526001600160a01b0316602082015260400190565b93845260ff9290921660208401526040830152606082015260800190565b918252602082015260400190565b968752602087019590955260408601939093526060850191909152608084015260a083015260c082015260e00190565b9485526020850193909352604084019190915260608301521515608082015260a00190565b8381526060810161637a846164dc565b602082019390935260400152919050565b8481526080810161639b856164dc565b84602083015283604083015282606083015295945050505050565b838152825160a08201906163c9816164dc565b806020840152506020840151604083015260408401516060830152826080830152949350505050565b600060208252610ae5602083018461607c565b600060408252616418604083018561607c565b90508260208301529392505050565b60008382526040602083015261072f6040830184616042565b9283529015156020830152604082015260600190565b9283526020830191909152604082015260600190565b93845260208401929092526040830152606082015260800190565b60ff91909116815260200190565b60405181810167ffffffffffffffff811182821017156164b457600080fd5b604052919050565b600067ffffffffffffffff8211156164d2578081fd5b5060209081020190565b6003811061081457fe5b6001600160a01b038116811461081457600080fd5b801515811461081457600080fd5b6003811061081457600080fdfe537461626c654f7261636c654d61746820616d706c696669636174696f6e506172616d657465722025736c6f67427074546f74616c537570706c79202573202c20616d706c696669636174696f6e506172616d65746572a264697066735822122031f988a7e0e0c6c95333bdc579a46e9200b05bfa33b6924aa198c4bdb82ce90b64736f6c63430007010033c1a224b14823b63c7711127f125fbf592434682f38881ebb61408747a303affcca6c2c5b6b44b5f3f0c08f0e28e5b6deda1cb38c3fe1113e8031d926c1e8c6d0",
  "libraries": {
    "QueryProcessor": "0xAdcd9ccb1DEf8d98E14BBf0A7252B369dB2E9A15"
  },
  "devdoc": {
    "kind": "dev",
    "methods": {
      "_getCreationCodeWithArgs(bytes)": {
        "details": "Returns the creation code that will result in a contract being deployed with `constructorArgs`."
      },
      "create(string,string,address[],uint256,address[],uint256[],uint256,address)": {
        "details": "Deploys a new `MetaStablePool`."
      },
      "getCreationCode()": {
        "details": "Returns the creation code of the contract this factory creates."
      },
      "getCreationCodeContracts()": {
        "details": "Returns the two addresses where the creation code of the contract crated by this factory is stored."
      },
      "getPauseConfiguration()": {
        "details": "Returns the current `TemporarilyPausable` configuration that will be applied to Pools created by this factory. `pauseWindowDuration` will decrease over time until it reaches zero, at which point both it and `bufferPeriodDuration` will be zero forever, meaning deployed Pools will not be pausable."
      },
      "getVault()": {
        "details": "Returns the Vault's address."
      },
      "isPoolFromFactory(address)": {
        "details": "Returns true if `pool` was created by this factory."
      }
    },
    "version": 1
  },
  "userdoc": {
    "kind": "user",
    "methods": {},
    "version": 1
  },
  "storageLayout": {
    "storage": [
      {
        "astId": 2674,
        "contract": "contracts/StablePool/meta/MetaStablePoolFactory.sol:MetaStablePoolFactory",
        "label": "_isPoolFromFactory",
        "offset": 0,
        "slot": "0",
        "type": "t_mapping(t_address,t_bool)"
      }
    ],
    "types": {
      "t_address": {
        "encoding": "inplace",
        "label": "address",
        "numberOfBytes": "20"
      },
      "t_bool": {
        "encoding": "inplace",
        "label": "bool",
        "numberOfBytes": "1"
      },
      "t_mapping(t_address,t_bool)": {
        "encoding": "mapping",
        "key": "t_address",
        "label": "mapping(address => bool)",
        "numberOfBytes": "32",
        "value": "t_bool"
      }
    }
  }
}