{
  "address": "0x92E519Bc5bB26b84a39388105C6E055E7d1dc46A",
  "abi": [
    {
      "inputs": [
        {
          "internalType": "contract IVault",
          "name": "vault",
          "type": "address"
        }
      ],
      "stateMutability": "nonpayable",
      "type": "constructor"
    },
    {
      "anonymous": false,
      "inputs": [
        {
          "indexed": true,
          "internalType": "address",
          "name": "pool",
          "type": "address"
        }
      ],
      "name": "PoolCreated",
      "type": "event"
    },
    {
      "inputs": [
        {
          "internalType": "bytes",
          "name": "constructorArgs",
          "type": "bytes"
        }
      ],
      "name": "_getCreationCodeWithArgs",
      "outputs": [
        {
          "internalType": "bytes",
          "name": "code",
          "type": "bytes"
        }
      ],
      "stateMutability": "view",
      "type": "function"
    },
    {
      "inputs": [
        {
          "internalType": "string",
          "name": "name",
          "type": "string"
        },
        {
          "internalType": "string",
          "name": "symbol",
          "type": "string"
        },
        {
          "internalType": "contract IERC20[]",
          "name": "tokens",
          "type": "address[]"
        },
        {
          "internalType": "uint256",
          "name": "amplificationParameter",
          "type": "uint256"
        },
        {
          "internalType": "contract IRateProvider[]",
          "name": "rateProviders",
          "type": "address[]"
        },
        {
          "internalType": "uint256[]",
          "name": "priceRateCacheDuration",
          "type": "uint256[]"
        },
        {
          "internalType": "uint256",
          "name": "swapFeePercentage",
          "type": "uint256"
        },
        {
          "internalType": "address",
          "name": "owner",
          "type": "address"
        }
      ],
      "name": "create",
      "outputs": [
        {
          "internalType": "address",
          "name": "",
          "type": "address"
        }
      ],
      "stateMutability": "nonpayable",
      "type": "function"
    },
    {
      "inputs": [],
      "name": "getCreationCode",
      "outputs": [
        {
          "internalType": "bytes",
          "name": "",
          "type": "bytes"
        }
      ],
      "stateMutability": "view",
      "type": "function"
    },
    {
      "inputs": [],
      "name": "getCreationCodeContracts",
      "outputs": [
        {
          "internalType": "address",
          "name": "contractA",
          "type": "address"
        },
        {
          "internalType": "address",
          "name": "contractB",
          "type": "address"
        }
      ],
      "stateMutability": "view",
      "type": "function"
    },
    {
      "inputs": [],
      "name": "getPauseConfiguration",
      "outputs": [
        {
          "internalType": "uint256",
          "name": "pauseWindowDuration",
          "type": "uint256"
        },
        {
          "internalType": "uint256",
          "name": "bufferPeriodDuration",
          "type": "uint256"
        }
      ],
      "stateMutability": "view",
      "type": "function"
    },
    {
      "inputs": [],
      "name": "getVault",
      "outputs": [
        {
          "internalType": "contract IVault",
          "name": "",
          "type": "address"
        }
      ],
      "stateMutability": "view",
      "type": "function"
    },
    {
      "inputs": [
        {
          "internalType": "address",
          "name": "pool",
          "type": "address"
        }
      ],
      "name": "isPoolFromFactory",
      "outputs": [
        {
          "internalType": "bool",
          "name": "",
          "type": "bool"
        }
      ],
      "stateMutability": "view",
      "type": "function"
    }
  ],
  "transactionHash": "0xe34e6c3acc47503cfc773d76ffcf37fddaee78dbdf642c8b0cf8627820ef7c55",
  "args": [
    "0xb575F46B55703474c039AF0F8D46F41d617E9163"
  ],
  "numDeployments": 1,
  "solcInputHash": "4a26b830f728577c923ab37eaab8220a",
  "bytecode": "0x6101406040523480156200001257600080fd5b5060405162007e5a38038062007e5a8339810160408190526200003591620001c3565b80604051806020016200004890620001b5565b601f1982820381018352601f909101166040528051819060006002820460a081905280830360e0819052818552909150836200009081620000f9602090811b620003ec17901c565b60601b6001600160601b0319166080528285018051838252620000bf82620000f9602090811b620003ec17901c565b6001600160601b0319606091821b811660c0529690935290529590951b90911661010052505050426276a700016101205250620001f39050565b80517f602038038060206000396000f3fefefefefefefefefefefefefefefefefefefe808352600091602081018484f09084529150620001476001600160a01b03831615156101ac6200014d565b50919050565b816200015e576200015e8162000162565b5050565b62461bcd60e51b6000908152602060045260076024526642414c23000030600a808404818106603090810160081b95839006959095019082900491820690940160101b939093010160c81b604452606490fd5b616f898062000ed183390190565b600060208284031215620001d5578081fd5b81516001600160a01b0381168114620001ec578182fd5b9392505050565b60805160601c60a05160c05160601c60e0516101005160601c61012051610c7c620002556000398061019152806101ba5250806103ca5250806102f75250806101685280610373525080610318525080610147528061034f5250610c7c6000f3fe608060405234801561001057600080fd5b506004361061007c5760003560e01c80634555fb8d1161005b5780634555fb8d146100cb5780636634b753146100eb57806374cc23da1461010b5780638d928af81461011e5761007c565b8062c194db14610081578063174481fa1461009f5780632da47c40146100b5575b600080fd5b610089610126565b6040516100969190610a8e565b60405180910390f35b6100a7610145565b604051610096929190610a5c565b6100bd61018b565b604051610096929190610bcc565b6100de6100d9366004610842565b6101f5565b6040516100969190610a3b565b6100fe6100f93660046107eb565b6102c4565b6040516100969190610a83565b610089610119366004610807565b6102ef565b6100de6103c8565b6060610140604051806020016040528060008152506102ef565b905090565b7f00000000000000000000000000000000000000000000000000000000000000007f00000000000000000000000000000000000000000000000000000000000000009091565b600080427f00000000000000000000000000000000000000000000000000000000000000008110156101e757807f000000000000000000000000000000000000000000000000000000000000000003925062278d0091506101f0565b60009250600091505b509091565b600080600061020261018b565b915091506102b560405180610180016040528061021d6103c8565b73ffffffffffffffffffffffffffffffffffffffff1681526020018d81526020018c81526020018b81526020018981526020018881526020018a81526020018781526020018481526020018381526020016000151581526020018673ffffffffffffffffffffffffffffffffffffffff168152506040516020016102a19190610aa1565b60405160208183030381529060405261044b565b9b9a5050505050505050505050565b73ffffffffffffffffffffffffffffffffffffffff1660009081526020819052604090205460ff1690565b8051604080517f00000000000000000000000000000000000000000000000000000000000000007f0000000000000000000000000000000000000000000000000000000000000000818101858101848101602090810190965280855293957f00000000000000000000000000000000000000000000000000000000000000009592947f000000000000000000000000000000000000000000000000000000000000000094938801866000828a3c846000888301883c50602089810190898501016103ba8183866104d6565b505050505050505050919050565b7f000000000000000000000000000000000000000000000000000000000000000090565b80517f602038038060206000396000f3fefefefefefefefefefefefefefefefefefefe808352600091602081018484f0908452915061044573ffffffffffffffffffffffffffffffffffffffff831615156101ac610550565b50919050565b60008061045783610562565b73ffffffffffffffffffffffffffffffffffffffff811660008181526020819052604080822080547fffffffffffffffffffffffffffffffffffffffffffffffffffffffffffffff001660011790555192935090917f83a48fbcfc991335314e74d0496aab6a1987e992ddc85dddbcc4d6dd6ef2e9fc9190a292915050565b5b602081106105145781518352602092830192909101907fffffffffffffffffffffffffffffffffffffffffffffffffffffffffffffffe0016104d7565b905182516020929092036101000a7fffffffffffffffffffffffffffffffffffffffffffffffffffffffffffffffff0180199091169116179052565b8161055e5761055e816105aa565b5050565b6000606061056f836102ef565b905060008151602083016000f0905073ffffffffffffffffffffffffffffffffffffffff81166105a3573d6000803e3d6000fd5b9392505050565b7f08c379a0000000000000000000000000000000000000000000000000000000006000908152602060045260076024526642414c23000030600a808404818106603090810160081b95839006959095019082900491820690940160101b939093010160c81b604452606490fd5b803561062281610c21565b92915050565b600082601f830112610638578081fd5b813561064b61064682610c01565b610bda565b81815291506020808301908481018184028601820187101561066c57600080fd5b60005b8481101561069457813561068281610c21565b8452928201929082019060010161066f565b505050505092915050565b600082601f8301126106af578081fd5b81356106bd61064682610c01565b8181529150602080830190848101818402860182018710156106de57600080fd5b60005b848110156106945781356106f481610c21565b845292820192908201906001016106e1565b600082601f830112610716578081fd5b813561072461064682610c01565b81815291506020808301908481018184028601820187101561074557600080fd5b60005b8481101561069457813584529282019290820190600101610748565b600082601f830112610774578081fd5b813567ffffffffffffffff81111561078a578182fd5b6107bb60207fffffffffffffffffffffffffffffffffffffffffffffffffffffffffffffffe0601f84011601610bda565b91508082528360208285010111156107d257600080fd5b8060208401602084013760009082016020015292915050565b6000602082840312156107fc578081fd5b81356105a381610c21565b600060208284031215610818578081fd5b813567ffffffffffffffff81111561082e578182fd5b61083a84828501610764565b949350505050565b600080600080600080600080610100898b03121561085e578384fd5b883567ffffffffffffffff80821115610875578586fd5b6108818c838d01610764565b995060208b0135915080821115610896578586fd5b6108a28c838d01610764565b985060408b01359150808211156108b7578586fd5b6108c38c838d01610628565b975060608b0135965060808b01359150808211156108df578586fd5b6108eb8c838d0161069f565b955060a08b0135915080821115610900578485fd5b5061090d8b828c01610706565b93505060c089013591506109248a60e08b01610617565b90509295985092959890939650565b73ffffffffffffffffffffffffffffffffffffffff169052565b6000815180845260208085019450808401835b8381101561099257815173ffffffffffffffffffffffffffffffffffffffff1687529582019590820190600101610960565b509495945050505050565b6000815180845260208085019450808401835b83811015610992578151875295820195908201906001016109b0565b15159052565b60008151808452815b818110156109f7576020818501810151868301820152016109db565b81811115610a085782602083870101525b50601f017fffffffffffffffffffffffffffffffffffffffffffffffffffffffffffffffe0169290920160200192915050565b73ffffffffffffffffffffffffffffffffffffffff91909116815260200190565b73ffffffffffffffffffffffffffffffffffffffff92831681529116602082015260400190565b901515815260200190565b6000602082526105a360208301846109d2565b600060208252610ab5602083018451610933565b6020830151610180806040850152610ad16101a08501836109d2565b915060408501517fffffffffffffffffffffffffffffffffffffffffffffffffffffffffffffffe080868503016060870152610b0d84836109d2565b93506060870151915080868503016080870152610b2a848361094d565b935060808701519150808685030160a0870152610b47848361094d565b935060a08701519150808685030160c087015250610b65838261099d565b60c087015160e0878101919091528701516101008088019190915287015161012080880191909152870151610140808801919091528701519093509050610160610bb1818701836109cc565b8601519050610bc285830182610933565b5090949350505050565b918252602082015260400190565b60405181810167ffffffffffffffff81118282101715610bf957600080fd5b604052919050565b600067ffffffffffffffff821115610c17578081fd5b5060209081020190565b73ffffffffffffffffffffffffffffffffffffffff81168114610c4357600080fd5b5056fea2646970667358221220cde32792faa500eaeaed7c7d1722d5328f37d3afc1195dd2fed5ee1a9bbee44c64736f6c634300070100336103206040527f6e71edae12b1b97f4d1f60370fef10105fa2faae0126114a169c64845d6126c9610120523480156200003757600080fd5b5060405162006f8938038062006f898339810160408190526200005a9162000d43565b805160208201516040830151606084015160c085015160e0860151610100870151610120880151610160890151855189906002146200009b5760006200009e565b60025b8989898a516001600160401b0381118015620000b957600080fd5b50604051908082528060200260200182016040528015620000e4578160200160208202803683370190505b5089898989828289898d8280604051806040016040528060018152602001603160f81b81525085858a336001600160a01b031660001b806080818152505050806001600160a01b031660a0816001600160a01b031660601b815250505081600390805190602001906200015992919062000a8b565b5080516200016f90600490602084019062000a8b565b505060058054601260ff1990911617905550815160209283012060c052805191012060e052507f8b73c3c69bb8fe3d512ecc4cf759cc79239f7b179b0ffacaa9a75d522b39400f6101005260601b6001600160601b0319166101405250620001e290506276a700831115610194620005eb565b620001f662278d00821115610195620005eb565b429091016101608190520161018052855162000218906002111560c8620005eb565b620002326200022662000600565b8751111560c9620005eb565b62000248866200060560201b620012e71760201c565b620002538462000611565b6040516309b2760f60e01b81526000906001600160a01b038c16906309b2760f9062000284908d9060040162000f89565b602060405180830381600087803b1580156200029f57600080fd5b505af1158015620002b4573d6000803e3d6000fd5b505050506040513d601f19601f82011682018060405250810190620002da919062000d2a565b604051633354e3e960e11b81529091506001600160a01b038c16906366a9c7d2906200030f9084908b908b9060040162000eed565b600060405180830381600087803b1580156200032a57600080fd5b505af11580156200033f573d6000803e3d6000fd5b5050506101a091909152506200036a9950505060018d1015965061012c955050620005eb9350505050565b6200037d61138886111561012d620005eb565b85516101c0819052865187906000906200039357fe5b60200260200101516001600160a01b03166101e0816001600160a01b031660601b8152505086600181518110620003c657fe5b60200260200101516001600160a01b0316610200816001600160a01b031660601b8152505060028111620003fc57600062000413565b866002815181106200040a57fe5b60200260200101515b60601b6001600160601b0319166102205260038111620004355760006200044c565b866003815181106200044357fe5b60200260200101515b60601b6001600160601b03191661024052600481116200046e57600062000485565b866004815181106200047c57fe5b60200260200101515b6001600160a01b0316610260816001600160a01b031660601b81525050620004c887600081518110620004b457fe5b60200260200101516200069d60201b60201c565b610280528651620004e19088906001908110620004b457fe5b6102a05260028111620004f657600062000508565b6200050887600281518110620004b457fe5b6102c052600381116200051d5760006200052f565b6200052f87600381518110620004b457fe5b6102e052600481116200054457600062000556565b6200055687600481518110620004b457fe5b6103008181525050600062000579876103e86200077160201b620012f11760201c565b90506200058681620007a2565b5050505050505050505050620005ac81606001515160021460d2620005eb60201b60201c565b620005d38160600151518260800151518360a0015151620007e160201b620013151760201c565b610140810151620005e49062000801565b5062001010565b81620005fc57620005fc816200085f565b5050565b600590565b80620005fc81620008b2565b6200062664e8d4a5100082101560cb620005eb565b6200063e67016345785d8a000082111560ca620005eb565b6200065d8160c06008546200093c60201b62001332179092919060201c565b6008556040517fa9ba3ffe0b6c366b81232caab38605a0699ad5398d6cce76f91ee809e322dafc906200069290839062000f9e565b60405180910390a150565b60006001600160a01b038216301415620006c15750670de0b6b3a76400006200076c565b6000826001600160a01b031663313ce5676040518163ffffffff1660e01b815260040160206040518083038186803b158015620006fd57600080fd5b505afa15801562000712573d6000803e3d6000fd5b505050506040513d601f19601f8201168201806040525081019062000738919062000ebf565b60ff1690506000620007576012836200095160201b620013481760201c565b905080600a0a670de0b6b3a764000002925050505b919050565b600082820262000799841580620007915750838583816200078e57fe5b04145b6003620005eb565b90505b92915050565b620007b08180428062000969565b7fa0d01593e47e69d07e0ccd87bece09411e07dd1ed40ca8f2e7af2976542a02338160405162000692919062000f9e565b620007fc8284148015620007f457508183145b6067620005eb565b505050565b6200082e620008288262000814620009f9565b620009ff60201b6200135e1790919060201c565b62000a1e565b7f3e350b41e86a8e10f804ade6d35340d620be35569cc75ac943e8bb14ab80ead18160405162000692919062000ee2565b62461bcd60e51b6000908152602060045260076024526642414c23000030600a808404818106603090810160081b95839006959095019082900491820690940160101b939093010160c81b604452606490fd5b600281511015620008c35762000939565b600081600081518110620008d357fe5b602002602001015190506000600190505b8251811015620007fc576000838281518110620008fd57fe5b602002602001015190506200092e816001600160a01b0316846001600160a01b0316106065620005eb60201b60201c565b9150600101620008e4565b50565b6001600160401b03811b1992909216911b1790565b600062000963838311156001620005eb565b50900390565b6200098a816001600160401b031660c062000a4360201b6200136c1760201c565b620009ab836001600160401b0316608062000a4360201b6200136c1760201c565b620009cc856001600160401b0316604062000a4360201b6200136c1760201c565b620009ed876001600160401b0316600062000a4360201b6200136c1760201c565b17171760095550505050565b60085490565b6000620007998260558562000a4760201b62001370179092919060201c565b62000a3d81600060085462000a7060201b62001397179092919060201c565b60085550565b1b90565b60006001821b198416828462000a5f57600062000a62565b60015b60ff16901b17949350505050565b6001600160c01b03828116821b90821b198416179392505050565b828054600181600116156101000203166002900490600052602060002090601f016020900481019282601f1062000ace57805160ff191683800117855562000afe565b8280016001018555821562000afe579182015b8281111562000afe57825182559160200191906001019062000ae1565b5062000b0c92915062000b10565b5090565b5b8082111562000b0c576000815560010162000b11565b80516200079c8162000ffa565b600082601f83011262000b45578081fd5b815162000b5c62000b568262000fce565b62000fa7565b81815291506020808301908481018184028601820187101562000b7e57600080fd5b60005b8481101562000baa57815162000b978162000ffa565b8452928201929082019060010162000b81565b505050505092915050565b600082601f83011262000bc6578081fd5b815162000bd762000b568262000fce565b81815291506020808301908481018184028601820187101562000bf957600080fd5b60005b8481101562000baa57815162000c128162000ffa565b8452928201929082019060010162000bfc565b600082601f83011262000c36578081fd5b815162000c4762000b568262000fce565b81815291506020808301908481018184028601820187101562000c6957600080fd5b60005b8481101562000baa5781518452928201929082019060010162000c6c565b805180151581146200079c57600080fd5b600082601f83011262000cac578081fd5b81516001600160401b0381111562000cc2578182fd5b602062000cd8601f8301601f1916820162000fa7565b9250818352848183860101111562000cef57600080fd5b60005b8281101562000d0f57848101820151848201830152810162000cf2565b8281111562000d215760008284860101525b50505092915050565b60006020828403121562000d3c578081fd5b5051919050565b60006020828403121562000d55578081fd5b81516001600160401b038082111562000d6c578283fd5b818401915061018080838703121562000d83578384fd5b62000d8e8162000fa7565b905062000d9c868462000b27565b815260208301518281111562000db0578485fd5b62000dbe8782860162000c9b565b60208301525060408301518281111562000dd6578485fd5b62000de48782860162000c9b565b60408301525060608301518281111562000dfc578485fd5b62000e0a8782860162000b34565b60608301525060808301518281111562000e22578485fd5b62000e308782860162000bb5565b60808301525060a08301518281111562000e48578485fd5b62000e568782860162000c25565b60a08301525060c0838101519082015260e0808401519082015261010080840151908201526101208084015190820152610140915062000e998683850162000c8a565b82820152610160915062000eb08683850162000b27565b91810191909152949350505050565b60006020828403121562000ed1578081fd5b815160ff8116811462000799578182fd5b901515815260200190565b60006060820185835260206060818501528186518084526080860191508288019350845b8181101562000f395762000f26855162000fee565b8352938301939183019160010162000f11565b505084810360408601528551808252908201925081860190845b8181101562000f7b5762000f68835162000fee565b8552938301939183019160010162000f53565b509298975050505050505050565b602081016003831062000f9857fe5b91905290565b90815260200190565b6040518181016001600160401b038111828210171562000fc657600080fd5b604052919050565b60006001600160401b0382111562000fe4578081fd5b5060209081020190565b6001600160a01b031690565b6001600160a01b03811681146200093957600080fd5b60805160a05160601c60c05160e05161010051610120516101405160601c61016051610180516101a0516101c0516101e05160601c6102005160601c6102205160601c6102405160601c6102605160601c610280516102a0516102c0516102e05161030051615e8462001105600039806133ad52508061338952508061336552508061334152508061331d5250806138875250806138455250806138035250806144115250806143df525080611cb1525080610b8b5250806115ee5250806115ca525080610f555250806111325250806119d9525080611a1b5250806119fa525080610f31525080610ebb5250615e846000f3fe608060405234801561001057600080fd5b50600436106103155760003560e01c8063679aefce116101a75780639d2c110c116100ee578063d505accf11610097578063eb0f24d611610071578063eb0f24d61461066a578063f30d74a314610672578063ffd088eb1461068557610315565b8063d505accf14610631578063d5c096c414610644578063dd62ed3e1461065757610315565b8063aaabadc5116100c8578063aaabadc51461060e578063b10be73914610616578063b48b5b401461062957610315565b80639d2c110c146105d5578063a457c2d7146105e8578063a9059cbb146105fb57610315565b8063851c1bb3116101505780638d928af81161012a5780638d928af8146105af57806395d89b41146105b75780639b02cdde146105bf57610315565b8063851c1bb31461057457806387ec681714610587578063893d20e81461059a57610315565b806370a082311161018157806370a082311461052d57806374f3b009146105405780637ecebe001461056157610315565b8063679aefce146104ee5780636b843239146104f65780636daccffa1461051657610315565b80632f1a0bc91161026b578063395093511161021457806355c67628116101ee57806355c676281461049f5780636028bfd4146104a757806360d1507c146104c857610315565b8063395093511461046657806340c10f191461047957806350dd6ed91461048c57610315565b80633644e515116102455780633644e5151461044357806338e9922e1461044b57806338fff2d01461045e57610315565b80632f1a0bc914610408578063313ce5671461041b5780633331bc361461043057610315565b80631c0de051116102cd5780631ed4eddc116102a75780631ed4eddc146103d457806323b872dd146103ed578063292c914a1461040057610315565b80631c0de051146103955780631dccd830146103ac5780631dd746ea146103cc57610315565b8063095ea7b3116102fe578063095ea7b31461035857806316c38b3c1461037857806318160ddd1461038d57610315565b806301ec954a1461031a57806306fdde0314610343575b600080fd5b61032d610328366004615819565b61068d565b60405161033a9190615b28565b60405180910390f35b61034b6106a6565b60405161033a9190615ce9565b61036b6103663660046152e4565b61075b565b60405161033a9190615b05565b61038b610386366004615555565b610772565b005b61032d610786565b61039d61078c565b60405161033a93929190615b10565b6103bf6103ba36600461549a565b6107b5565b60405161033a9190615acd565b6103bf6108d9565b6103dc6108e8565b60405161033a959493929190615c3c565b61036b6103fb36600461522f565b61093a565b61038b6109ce565b61038b6104163660046158ee565b610a02565b610423610ae5565b60405161033a9190615d68565b61038b61043e3660046158ee565b610aee565b61032d610b66565b61038b6104593660046158d6565b610b70565b61032d610b89565b61036b6104743660046152e4565b610bad565b61038b6104873660046152e4565b610be8565b61038b61049a36600461568c565b610bf6565b61032d610c10565b6104ba6104b536600461558d565b610c21565b60405161033a929190615d1e565b6104db6104d63660046158d6565b610c58565b60405161033a9796959493929190615c0c565b61032d610ca1565b6105096105043660046153db565b610d7f565b60405161033a9190615a89565b61051e610e36565b60405161033a93929190615d37565b61032d61053b3660046151db565b610e51565b61055361054e36600461558d565b610e70565b60405161033a929190615ae0565b61032d61056f3660046151db565b610e9c565b61032d610582366004615630565b610eb7565b6104ba61059536600461558d565b610f09565b6105a2610f2f565b60405161033a9190615a75565b6105a2610f53565b61034b610f77565b6105c7610ff6565b60405161033a929190615bfe565b61032d6105e336600461588a565b611000565b61036b6105f63660046152e4565b61100d565b61036b6106093660046152e4565b61104b565b6105a2611058565b61032d6106243660046157e5565b611062565b61032d6110f7565b61038b61063f36600461526f565b6110fd565b61055361065236600461558d565b611246565b61032d6106653660046151f7565b611265565b61038b611271565b6105c761068036600461590f565b61129d565b61032d6112e0565b600061069b858585856113c3565b90505b949350505050565b60038054604080516020601f60027fffffffffffffffffffffffffffffffffffffffffffffffffffffffffffffffff6101006001881615020190951694909404938401819004810282018101909252828152606093909290918301828280156107505780601f1061072557610100808354040283529160200191610750565b820191906000526020600020905b81548152906001019060200180831161073357829003601f168201915b505050505090505b90565b6000610768338484611461565b5060015b92915050565b61077a6114c9565b6107838161150f565b50565b60025490565b60008060006107996115ab565b1592506107a46115c8565b91506107ae6115ec565b9050909192565b6060815167ffffffffffffffff811180156107cf57600080fd5b506040519080825280602002602001820160405280156107f9578160200160208202803683370190505b5090506000610806611610565b905060005b83518110156108d25773Adcd9ccb1DEf8d98E14BBf0A7252B369dB2E9A156379eaef82600c86848151811061083c57fe5b6020026020010151856040518463ffffffff1660e01b815260040161086393929190615cad565b60206040518083038186803b15801561087b57600080fd5b505af415801561088f573d6000803e3d6000fd5b505050506040513d601f19601f820116820180604052508101906108b39190615801565b8382815181106108bf57fe5b602090810291909101015260010161080b565b5050919050565b60606108e3611622565b905090565b6000806000806000806108f961168d565b905061090481611693565b955061090f8161169f565b945061091a816116ac565b9350610925816116b9565b9250610930816116c6565b9150509091929394565b6000806109478533611265565b905061096b336001600160a01b03871614806109635750838210155b61019e6116d3565b6109768585856116e1565b336001600160a01b038616148015906109af57507fffffffffffffffffffffffffffffffffffffffffffffffffffffffffffffffff8114155b156109c1576109c18533858403611461565b60019150505b9392505050565b6109d66117c1565b6109de6114c9565b6109e860016117d4565b60006109f2610786565b1115610a0057610a0061181d565b565b610a0a6114c9565b610a1a600183101561012c6116d3565b610a2b61138883111561012d6116d3565b6000610a378242611348565b9050610a4b6201518082101561013d6116d3565b600080610a56611873565b91509150610a67811561013e6116d3565b6000610a75866103e86112f1565b90506000838211610aa457610a9f610a9062015180866112f1565b610a9a84886112f1565b6118e7565b610abe565b610abe610ab462015180846112f1565b610a9a86886112f1565b9050610ad0600282111561013f6116d3565b610adc8483428961191a565b50505050505050565b60055460ff1690565b610b098183108015610b0257506104008211155b60646116d3565b6000610b1e6001600080600080600080611969565b9050825b82811015610b60576000818152600c6020526040902054610b42906119c9565b610b58576000818152600c602052604090208290555b600101610b22565b50505050565b60006108e36119d5565b610b786114c9565b610b806117c1565b61078381611a72565b7f000000000000000000000000000000000000000000000000000000000000000090565b3360008181526001602090815260408083206001600160a01b03871684529091528120549091610768918590610be39086611add565b611461565b610bf28282611aef565b5050565b610bfe6114c9565b610c066117c1565b610bf28282611b89565b6008546000906108e39060c0611ca1565b60006060610c378651610c32611caf565b611cd3565b610c4c89898989898989611ce0611d4a611dab565b97509795505050505050565b6000806000806000806000610c73610400891061013b6116d3565b6000610c7e89611f3b565b9050610c8981611f4d565b959f949e50929c50909a509850965090945092505050565b60006060610cad610f53565b6001600160a01b031663f94d4668610cc3610b89565b6040518263ffffffff1660e01b8152600401610cdf9190615b28565b60006040518083038186803b158015610cf757600080fd5b505afa158015610d0b573d6000803e3d6000fd5b505050506040513d6000823e601f3d908101601f19168201604052610d33919081019061530f565b509150506000610d41611873565b509050610d5582610d50611622565b611fb0565b6000610d6382846000612011565b9050610d77610d70610786565b829061206b565b935050505090565b6060815167ffffffffffffffff81118015610d9957600080fd5b50604051908082528060200260200182016040528015610dc3578160200160208202803683370190505b5090506000610dd0611610565b9050610dda614fa5565b60005b8451811015610e2e57848181518110610df257fe5b60200260200101519150610e0f82600001518484602001516120bc565b848281518110610e1b57fe5b6020908102919091010152600101610ddd565b505050919050565b6000806000610e43611873565b90949093506103e892509050565b6001600160a01b0381166000908152602081905260409020545b919050565b606080610e8289898989898989612166565b9092509050610e8f6115ab565b15610c4c57610c4c61181d565b6001600160a01b031660009081526006602052604090205490565b60007f000000000000000000000000000000000000000000000000000000000000000082604051602001610eec9291906159ff565b604051602081830303815290604052805190602001209050919050565b60006060610f1a8651610c32611caf565b610c4c898989898989896121e461220a611dab565b7f000000000000000000000000000000000000000000000000000000000000000090565b7f000000000000000000000000000000000000000000000000000000000000000090565b60048054604080516020601f60027fffffffffffffffffffffffffffffffffffffffffffffffffffffffffffffffff6101006001881615020190951694909404938401819004810282018101909252828152606093909290918301828280156107505780601f1061072557610100808354040283529160200191610750565b600a54600b549091565b600061069e84848461226b565b60008061101a3385611265565b90508083106110345761102f33856000611461565b611041565b6110413385858403611461565b5060019392505050565b60006107683384846116e1565b60006108e36123c9565b600073Adcd9ccb1DEf8d98E14BBf0A7252B369dB2E9A15630397bee0600c84611089611610565b6040518463ffffffff1660e01b81526004016110a793929190615c61565b60206040518083038186803b1580156110bf57600080fd5b505af41580156110d3573d6000803e3d6000fd5b505050506040513d601f19601f8201168201806040525081019061076c9190615801565b61040090565b61110b8442111560d16116d3565b6001600160a01b0387166000908152600660209081526040808320549051909291611162917f0000000000000000000000000000000000000000000000000000000000000000918c918c918c9188918d9101615b50565b604051602081830303815290604052805190602001209050600061118582612443565b90506000600182888888604051600081526020016040526040516111ac9493929190615be0565b6020604051602081039080840390855afa1580156111ce573d6000803e3d6000fd5b5050604051601f190151915061121090506001600160a01b0382161580159061120857508b6001600160a01b0316826001600160a01b0316145b6101f86116d3565b6001600160a01b038b1660009081526006602052604090206001850190556112398b8b8b611461565b5050505050505050505050565b6060806112588989898989898961245f565b9092509050610c4c61181d565b60006109c7838361258b565b6112796114c9565b600080611284611873565b91509150611294816101406116d3565b610bf2826125b6565b60008060006112aa61168d565b905060006112b6611873565b5090506000806112d08389896112cb8861169f565b6125f1565b9150915050505050935093915050565b6201de2090565b80610bf281612648565b60008282026109c784158061130e57508385838161130b57fe5b04145b60036116d3565b61132d828414801561132657508183145b60676116d3565b505050565b67ffffffffffffffff811b1992909216911b1790565b60006113588383111560016116d3565b50900390565b60006109c783836055611370565b1b90565b60006001821b1984168284611386576000611389565b60015b60ff16901b17949350505050565b77ffffffffffffffffffffffffffffffffffffffffffffffff828116821b90821b198416179392505050565b600084608001516113f06113d5610f53565b6001600160a01b0316336001600160a01b03161460cd6116d3565b6114056113fb610b89565b82146101f46116d3565b6114178484611412611caf565b6126c1565b6060611421611622565b905060008751600181111561143257fe5b146114495761144487878787856126d8565b611456565b611456878787878561274f565b979650505050505050565b6001600160a01b0380841660008181526001602090815260408083209487168084529490915290819020849055517f8c5be1e5ebec7d5bd14f71427d1e84f3dd0314c0f7b2291e5b200ac8c7c3b925906114bc908590615b28565b60405180910390a3505050565b60006114f86000357fffffffff0000000000000000000000000000000000000000000000000000000016610eb7565b905061078361150782336127b3565b6101916116d3565b801561152f5761152a6115206115c8565b42106101936116d3565b611544565b61154461153a6115ec565b42106101a96116d3565b600780547fffffffffffffffffffffffffffffffffffffffffffffffffffffffffffffff00168215151790556040517f9e3a5e37224532dea67b89face185703738a228a6e8a23dee546960180d3be64906115a0908390615b05565b60405180910390a150565b60006115b56115ec565b4211806108e357505060075460ff161590565b7f000000000000000000000000000000000000000000000000000000000000000090565b7f000000000000000000000000000000000000000000000000000000000000000090565b60006108e361161d61168d565b6116b9565b606061162c6128a3565b90508060008151811061163b57fe5b60200260200101518160008151811061165057fe5b6020026020010181815250508060018151811061166957fe5b60200260200101518160018151811061167e57fe5b60200260200101818152505090565b60085490565b600061076c82826129cb565b600061076c8260166129cb565b600061076c82602c612a0e565b600061076c82604b612a18565b600061076c826055612a20565b81610bf257610bf281612a2a565b6116f86001600160a01b03841615156101986116d3565b61170f6001600160a01b03831615156101996116d3565b61171a83838361132d565b6001600160a01b03831660009081526020819052604090205461174090826101a0612a97565b6001600160a01b03808516600090815260208190526040808220939093559084168152205461176f9082611add565b6001600160a01b0380841660008181526020819052604090819020939093559151908516907fddf252ad1be2c89b69c2b068fc378daa952ba7f163c4a11628f55a4df523b3ef906114bc908590615b28565b610a006117cc6115ab565b6101926116d3565b6117ee6117e9826117e361168d565b9061135e565b612aad565b7f3e350b41e86a8e10f804ade6d35340d620be35569cc75ac943e8bb14ab80ead1816040516115a09190615b05565b600061182761168d565b9050611832816116c6565b156107835761184c611845600a54612ac2565b8290612b02565b905061186861186161185c610786565b612ac2565b8290612b0f565b905061078381612aad565b600080600080600080611884612b1d565b9350935093509350804210156118d75760019450838311156118bb5781810382420385850302816118b157fe5b04840195506118d2565b81810382420384860302816118cc57fe5b04840395505b6118df565b600094508295505b505050509091565b60006118f682151560046116d3565b826119035750600061076c565b81600184038161190f57fe5b04600101905061076c565b61192684848484612b74565b7f1835882ee7a34ac194f717a35e09bb1d24c82a3b9d854ab6c9749525b714cdf28484848460405161195b9493929190615d4d565b60405180910390a150505050565b6000611975828261136c565b61198084601f612bd4565b61198b866054612be5565b61199688606a612bd4565b6119a18a609f612be5565b6119ac8c60b5612bd4565b6119b78e60ea612be5565b17171717171798975050505050505050565b600061076c8282612a0e565b60007f00000000000000000000000000000000000000000000000000000000000000007f00000000000000000000000000000000000000000000000000000000000000007f0000000000000000000000000000000000000000000000000000000000000000611a42612bf2565b30604051602001611a57959493929190615b84565b60405160208183030381529060405280519060200120905090565b611a8564e8d4a5100082101560cb6116d3565b611a9b67016345785d8a000082111560ca6116d3565b600854611aaa908260c0611332565b6008556040517fa9ba3ffe0b6c366b81232caab38605a0699ad5398d6cce76f91ee809e322dafc906115a0908390615b28565b60008282016109c784821015836116d3565b611afb6000838361132d565b600254611b089082611add565b6002556001600160a01b038216600090815260208190526040902054611b2e9082611add565b6001600160a01b0383166000818152602081905260408082209390935591519091907fddf252ad1be2c89b69c2b068fc378daa952ba7f163c4a11628f55a4df523b3ef90611b7d908590615b28565b60405180910390a35050565b6000611b93610b89565b90506000611b9f610f53565b6001600160a01b031663b05f8e4883866040518363ffffffff1660e01b8152600401611bcc929190615bc9565b60806040518083038186803b158015611be457600080fd5b505afa158015611bf8573d6000803e3d6000fd5b505050506040513d601f19601f82011682018060405250810190611c1c919061593a565b6040517f18e736d40000000000000000000000000000000000000000000000000000000081529094506001600160a01b03851693506318e736d49250611c69915085908790600401615bb0565b600060405180830381600087803b158015611c8357600080fd5b505af1158015611c97573d6000803e3d6000fd5b5050505050505050565b1c67ffffffffffffffff1690565b7f000000000000000000000000000000000000000000000000000000000000000090565b610bf281831460676116d3565b6000606080611ced6115ab565b15611d2557611d258789600081518110611d0357fe5b60200260200101518a600181518110611d1857fe5b6020026020010151612bf6565b611d358b8b8b8b8b8b8b8b612c8f565b9250925092505b985098509895505050505050565b60005b611d55611caf565b81101561132d57611d8c838281518110611d6b57fe5b6020026020010151838381518110611d7f57fe5b602002602001015161206b565b838281518110611d9857fe5b6020908102919091010152600101611d4d565b333014611e9a576000306001600160a01b0316600036604051611dcf929190615a2f565b6000604051808303816000865af19150503d8060008114611e0c576040519150601f19603f3d011682016040523d82523d6000602084013e611e11565b606091505b505090508060008114611e2057fe5b60046000803e6000517fffffffff00000000000000000000000000000000000000000000000000000000167f43adbafb000000000000000000000000000000000000000000000000000000008114611e7c573d6000803e3d6000fd5b506020600460003e604060205260243d03602460403e601c3d016000f35b6060611ea4611622565b9050611eb08782611fb0565b60006060611ec88c8c8c8c8c8c898d8d63ffffffff16565b5091509150611edb81848663ffffffff16565b8051601f1982018390526343adbafb7fffffffffffffffffffffffffffffffffffffffffffffffffffffffffffffffc08301526020027fffffffffffffffffffffffffffffffffffffffffffffffffffffffffffffffdc82016044820181fd5b6000908152600c602052604090205490565b6000806000806000806000611f6188612d25565b9650611f6c88612d32565b9550611f7788612d3f565b9450611f8288612d4c565b9350611f8d88612d59565b9250611f9888612d66565b9150611fa3886119c9565b9050919395979092949650565b60005b611fbb611caf565b81101561132d57611ff2838281518110611fd157fe5b6020026020010151838381518110611fe557fe5b6020026020010151612d73565b838281518110611ffe57fe5b6020908102919091010152600101611fb3565b81516000908190815b818110156120525761204886828151811061203157fe5b602002602001015184611add90919063ffffffff16565b925060010161201a565b5081612063576000925050506109c7565b5090506109c7565b600061207a82151560046116d3565b826120875750600061076c565b670de0b6b3a7640000838102906120aa908583816120a157fe5b041460056116d3565b8281816120b357fe5b0491505061076c565b6040517f34171a8500000000000000000000000000000000000000000000000000000000815260009073Adcd9ccb1DEf8d98E14BBf0A7252B369dB2E9A15906334171a859061211690600c90889088908890600401615c82565b60206040518083038186803b15801561212e57600080fd5b505af4158015612142573d6000803e3d6000fd5b505050506040513d601f19601f8201168201806040525081019061069e9190615801565b606080886121756113d5610f53565b6121806113fb610b89565b606061218a611622565b90506121968882611fb0565b60006060806121ab8e8e8e8e8e8e8a8f611ce0565b9250925092506121bb8d84612d9f565b6121c58285611d4a565b6121cf8185611d4a565b909550935050505b5097509795505050505050565b60006060806121fa8789600081518110611d0357fe5b611d358b8b8b8b8b8b8b8b612da9565b60005b612215611caf565b81101561132d5761224c83828151811061222b57fe5b602002602001015183838151811061223f57fe5b6020026020010151612e02565b83828151811061225857fe5b602090810291909101015260010161220d565b6000836080015161227d6113d5610f53565b6122886113fb610b89565b60006122978660200151612e50565b905060006122a88760400151612e50565b90506000875160018111156122b957fe5b14156123495760006122ce8860600151612e5c565b905060008189606001510390506122f289602001516122ed8387612e7d565b612e89565b606089018290526123038885612e7d565b975061230f8784612e7d565b965061231f896060015185612e7d565b60608a015260006123318a8a8a612e9b565b905061233d8185612ed4565b965050505050506123c1565b6123538683612e7d565b955061235f8582612e7d565b945061236f876060015182612e7d565b60608801526000612381888888612ee0565b905061238d8184612f0f565b9050600061239a82612f1b565b9050600082820390506123b58a602001516122ed8388612e7d565b5094506123c192505050565b509392505050565b60006123d3610f53565b6001600160a01b031663aaabadc56040518163ffffffff1660e01b815260040160206040518083038186803b15801561240b57600080fd5b505afa15801561241f573d6000803e3d6000fd5b505050506040513d601f19601f820116820180604052508101906108e39190615670565b600061244d6119d5565b82604051602001610eec929190615a3f565b6060808861246e6113d5610f53565b6124796113fb610b89565b6060612483611622565b905061248d610786565b61253b57600060606124a28d8d8d868b612f41565b915091506124bb6124b1612fd0565b83101560cc6116d3565b6124c86000610487612fd0565b6124db8b6124d4612fd0565b8403610be8565b6124e5818461220a565b806124ee611caf565b67ffffffffffffffff8111801561250457600080fd5b5060405190808252806020026020018201604052801561252e578160200160208202803683370190505b50955095505050506121d7565b6125458882611fb0565b600060608061255a8e8e8e8e8e8e8a8f6121e4565b92509250925061256a8c84610be8565b612574828561220a565b61257e8185611d4a565b90955093506121d7915050565b6001600160a01b03918216600090815260016020908152604080832093909416825291909152205490565b6125c281824242612b74565b7fa0d01593e47e69d07e0ccd87bece09411e07dd1ed40ca8f2e7af2976542a0233816040516115a09190615b28565b6000806126166040518060600160405280602d8152602001615e22602d913986612fd7565b600061262387878761304a565b905061263181878787613227565b915061263c81612ac2565b92505094509492505050565b60028151101561265757610783565b60008160008151811061266657fe5b602002602001015190506000600190505b825181101561132d57600083828151811061268e57fe5b602002602001015190506126b7816001600160a01b0316846001600160a01b03161060656116d3565b9150600101612677565b61132d8184108015610b02575081831060646116d3565b60006126e48583611fb0565b61270586606001518385815181106126f857fe5b6020026020010151612e7d565b6060870152600061271887878787613252565b90506127378184878151811061272a57fe5b6020026020010151612f0f565b905061274281612f1b565b9150505b95945050505050565b600061275e8660600151612e5c565b606087015261276d8583611fb0565b61278186606001518386815181106126f857fe5b606087015260006127948787878761328a565b9050612742818486815181106127a657fe5b6020026020010151612ed4565b600073ba1ba1ba1ba1ba1ba1ba1ba1ba1ba1ba1ba1ba1b6127d2610f2f565b6001600160a01b0316141580156127ed57506127ed836132ad565b15612815576127fa610f2f565b6001600160a01b0316336001600160a01b031614905061076c565b61281d6123c9565b6001600160a01b0316639be2a8848484306040518463ffffffff1660e01b815260040161284c93929190615b31565b60206040518083038186803b15801561286457600080fd5b505afa158015612878573d6000803e3d6000fd5b505050506040513d601f19601f8201168201806040525081019061289c9190615571565b905061076c565b606060006128af611caf565b905060608167ffffffffffffffff811180156128ca57600080fd5b506040519080825280602002602001820160405280156128f4578160200160208202803683370190505b5090506128ff61331b565b8160008151811061290c57fe5b60200260200101818152505061292061333f565b8160018151811061292d57fe5b60200260200101818152505060028211156129685761294a613363565b8160028151811061295757fe5b602002602001018181525050612971565b91506107589050565b600382111561296857612982613387565b8160038151811061298f57fe5b6020026020010181815250506004821115612968576129ac6133ab565b816004815181106129b957fe5b60200260200101818152505091505090565b600082821c623fffff16621fffff81136129e5578061069e565b7fffffffffffffffffffffffffffffffffffffffffffffffffffffffffffc00000179392505050565b1c637fffffff1690565b1c6103ff1690565b1c60019081161490565b7f08c379a0000000000000000000000000000000000000000000000000000000006000908152602060045260076024526642414c23000030600a808404818106603090810160081b95839006959095019082900491820690940160101b939093010160c81b604452606490fd5b6000612aa684841115836116d3565b5050900390565b600854612abc90826000611397565b60085550565b600080612ace836133cf565b90506000808213612ae757652d79883d20008203612af1565b652d79883d200082015b655af3107a40009005949350505050565b60006109c7838383613433565b60006109c783836016613433565b600080600080612b396000600954611ca190919063ffffffff16565b600954909450612b4a906040611ca1565b600954909350612b5b906080611ca1565b600954909250612b6c9060c0611ca1565b905090919293565b612b898167ffffffffffffffff1660c061136c565b612b9e8367ffffffffffffffff16608061136c565b612bb38567ffffffffffffffff16604061136c565b612bc88767ffffffffffffffff16600061136c565b17171760095550505050565b661fffffffffffff91909116901b90565b623fffff91909116901b90565b4690565b6000612c0061168d565b90506000612c0c611873565b509050612c18826116c6565b8015612c2357508443115b15612c8857600080612c3a8387876112cb8861169f565b915091506000612c49856116b9565b90506000612c56866116ac565b90506001828114612c8257612c6b878261344a565b9650612c778742613458565b9650612c8287612aad565b50505050505b5050505050565b6000606080612c9c6115ab565b15612cbf57612cab8887613466565b9050612cba8882611348613553565b612d0b565b612cc7611caf565b67ffffffffffffffff81118015612cdd57600080fd5b50604051908082528060200260200182016040528015612d07578160200160208202803683370190505b5090505b612d168886866135b8565b9093509150611d3c8883613643565b600061076c8260ea6129cb565b600061076c8260b5613672565b600061076c82609f6129cb565b600061076c82606a613672565b600061076c8260546129cb565b600061076c82601f613672565b6000828202612d8d84158061130e57508385838161130b57fe5b670de0b6b3a764000090049392505050565b610bf282826136bd565b6000606080612db66117c1565b6060612dc28988613466565b9050612dd18982611348613553565b60006060612de08b898961376d565b91509150612dee8b826137c6565b909d909c50909a5098505050505050505050565b6000612e1182151560046116d3565b82612e1e5750600061076c565b670de0b6b3a764000083810290612e38908583816120a157fe5b826001820381612e4457fe5b0460010191505061076c565b6000806109c7836137d3565b600080612e71612e6a610c10565b84906138d2565b90506109c78382611348565b60006109c78383612d73565b610bf2612e958361392c565b82610bf2565b6000612eb2612ea8611caf565b60021460d26116d3565b6060600080612ec2878787613932565b9250925092506114568784848461328a565b60006109c7838361206b565b6000612eed612ea8611caf565b6060600080612efd878787613932565b92509250925061145687848484613252565b60006109c78383612e02565b600061076c612f3a612f2b610c10565b670de0b6b3a764000090611348565b8390612e02565b60006060612f4d6117c1565b6000612f58846139f3565b9050612f736000826002811115612f6b57fe5b1460ce6116d3565b6060612f7e85613a09565b9050612f8d8151610c32611caf565b612f978187611fb0565b6000612fa1611873565b5090506000612fb282846001612011565b905080612fbf8184613a1f565b9b929a509198505050505050505050565b620f424090565b610bf28282604051602401612fed929190615cfc565b60408051601f198184030181529190526020810180517bffffffffffffffffffffffffffffffffffffffffffffffffffffffff167fb60e72cc00000000000000000000000000000000000000000000000000000000179052613a2a565b600061308a6040518060400160405280601081526020017f537461626c654f7261636c654d61746800000000000000000000000000000000815250613a4b565b60006130a18561309a8686613abc565b6001612011565b90506130c56040518060600160405280602a8152602001615df8602a913986612fd7565b60408051808201909152601581527f537461626c654f7261636c654d6174682061202573000000000000000000000060208201526103e860028702049061310c9082612fd7565b60006131228361311c85856112f1565b90611348565b90506131636040518060400160405280601581526020017f537461626c654f7261636c654d6174682062202573000000000000000000000081525082612fd7565b600061317c86613176856002028a6112f1565b90612d73565b90506131bd6040518060400160405280601881526020017f537461626c654f7261636c654d6174682061787932202573000000000000000081525082612fd7565b60006131e46131cc8489612d73565b61311c6131dd8a613176898d6112f1565b8590611add565b9050600061320d6131f5858b612d73565b61311c6132068c6131768a8f6112f1565b8690611add565b90506132198282612e02565b9a9950505050505050505050565b60008061323761320687866138d2565b9050600061324482612ac2565b939093039695505050505050565b600061327e8560a001518560008151811061326957fe5b602002602001015186600181518110611d1857fe5b61069b85858585613b16565b60006132a18560a001518560008151811061326957fe5b61069b85858585613b5d565b60006132d87f2f1a0bc900000000000000000000000000000000000000000000000000000000610eb7565b82148061330c57506133097feb0f24d600000000000000000000000000000000000000000000000000000000610eb7565b82145b8061076c575061076c82613b98565b7f000000000000000000000000000000000000000000000000000000000000000090565b7f000000000000000000000000000000000000000000000000000000000000000090565b7f000000000000000000000000000000000000000000000000000000000000000090565b7f000000000000000000000000000000000000000000000000000000000000000090565b7f000000000000000000000000000000000000000000000000000000000000000090565b60006133df6000831360646116d3565b670c7d713b49da0000821380156133fd5750670f43fc2c04ee000082125b1561342357670de0b6b3a764000061341483613bfc565b8161341b57fe5b059050610e6b565b61342c82613d33565b9050610e6b565b623fffff828116821b90821b198416179392505050565b60006109c78383604b6140d3565b60006109c78383602c6140e3565b606080613471611caf565b67ffffffffffffffff8111801561348757600080fd5b506040519080825280602002602001820160405280156134b1578160200160208202803683370190505b509050826134c057905061076c565b600080856000815181106134d057fe5b602002602001015190506000600190505b6134e9611caf565b8110156135205760008782815181106134fe57fe5b6020026020010151905082811115613517578193508092505b506001016134e1565b50613532600b5487600a5485896140f5565b83838151811061353e57fe5b60209081029190910101525090949350505050565b60005b61355e611caf565b811015610b605761359984828151811061357457fe5b602002602001015184838151811061358857fe5b60200260200101518463ffffffff16565b8482815181106135a557fe5b6020908102919091010152600101613556565b6000606060006135c7846139f3565b905060008160028111156135d757fe5b14156135f1576135e78685614157565b925092505061363b565b60018160028111156135ff57fe5b141561360f576135e78685614222565b600281600281111561361d57fe5b141561362e576135e7868686614254565b613639610150612a2a565b505b935093915050565b6136508282611348613553565b600061365a611873565b50905061132d61366c82856001612011565b82613a1f565b600082821c661fffffffffffff16660fffffffffffff8113613694578061069e565b7fffffffffffffffffffffffffffffffffffffffffffffffffffe0000000000000179392505050565b6136d46001600160a01b038316151561019b6116d3565b6136e08260008361132d565b6001600160a01b03821660009081526020819052604090205461370690826101a1612a97565b6001600160a01b03831660009081526020819052604090205560025461372c90826142d0565b6002556040516000906001600160a01b038416907fddf252ad1be2c89b69c2b068fc378daa952ba7f163c4a11628f55a4df523b3ef90611b7d908590615b28565b60006060600061377c846139f3565b9050600181600281111561378c57fe5b141561379d576135e78686866142de565b60028160028111156137ab57fe5b14156137bb576135e78685614348565b613639610136612a2a565b6136508282611add613553565b60006137de826143dd565b156137eb5761342c61331b565b6137f48261440f565b156138015761342c61333f565b7f00000000000000000000000000000000000000000000000000000000000000006001600160a01b0316826001600160a01b031614156138435761342c613363565b7f00000000000000000000000000000000000000000000000000000000000000006001600160a01b0316826001600160a01b031614156138855761342c613387565b7f00000000000000000000000000000000000000000000000000000000000000006001600160a01b0316826001600160a01b031614156138c75761342c6133ab565b610e6b610135612a2a565b60008282026138ec84158061130e57508385838161130b57fe5b806138fb57600091505061076c565b670de0b6b3a76400007fffffffffffffffffffffffffffffffffffffffffffffffffffffffffffffffff8201612e44565b50600090565b6040805160028082526060828101909352600091829181602001602082028036833701905050925061396786602001516143dd565b156139ad576000915060019050848360008151811061398257fe5b602002602001018181525050838360018151811061399c57fe5b6020026020010181815250506139ea565b600090506001915083836000815181106139c357fe5b60200260200101818152505084836001815181106139dd57fe5b6020026020010181815250505b93509350939050565b60008180602001905181019061076c91906156da565b6060818060200190518101906109c791906157a0565b600a91909155600b55565b80516a636f6e736f6c652e6c6f67602083016000808483855afa5050505050565b61078381604051602401613a5f9190615ce9565b60408051601f198184030181529190526020810180517bffffffffffffffffffffffffffffffffffffffffffffffffffffffff167f41304fac00000000000000000000000000000000000000000000000000000000179052613a2a565b60408051600280825260608083018452926020830190803683370190505090508281600081518110613aea57fe5b6020026020010181815250508181600181518110613b0457fe5b60200260200101818152505092915050565b6000613b206117c1565b6000613b2a611873565b5090506000613b3b82876001612011565b90506000613b51838888888c6060015187614441565b98975050505050505050565b6000613b676117c1565b6000613b71611873565b5090506000613b8282876001612011565b90506000613b51838888888c60600151876144f0565b6000613bc37f38e9922e00000000000000000000000000000000000000000000000000000000610eb7565b82148061076c5750613bf47f50dd6ed900000000000000000000000000000000000000000000000000000000610eb7565b909114919050565b670de0b6b3a7640000026000806ec097ce7bc90715b34b9f1000000000808401907fffffffffffffffffffffffffffffffffff3f68318436f8ea4cb460f00000000085010281613c4857fe5b05905060006ec097ce7bc90715b34b9f100000000082800205905081806ec097ce7bc90715b34b9f100000000081840205915060038205016ec097ce7bc90715b34b9f100000000082840205915060058205016ec097ce7bc90715b34b9f100000000082840205915060078205016ec097ce7bc90715b34b9f100000000082840205915060098205016ec097ce7bc90715b34b9f1000000000828402059150600b8205016ec097ce7bc90715b34b9f1000000000828402059150600d8205016ec097ce7bc90715b34b9f1000000000828402059150600f826002919005919091010295945050505050565b6000670de0b6b3a7640000821215613d7057613d66826ec097ce7bc90715b34b9f100000000081613d6057fe5b05613d33565b6000039050610e6b565b60007e1600ef3172e58d2e933ec884fde10064c63b5372d805e203c00000000000008312613dc157770195e54c5dd42177f53a27172fa9ec630262827000000000830592506806f05b59d3b2000000015b73011798004d755d3c8bc8e03204cf44619e0000008312613df9576b1425982cf597cd205cef7380830592506803782dace9d9000000015b606492830292026e01855144814a7ff805980ff00840008312613e41576e01855144814a7ff805980ff008400068056bc75e2d63100000840205925068ad78ebc5ac62000000015b6b02df0ab5a80a22c61ab5a7008312613e7c576b02df0ab5a80a22c61ab5a70068056bc75e2d6310000084020592506856bc75e2d631000000015b693f1fce3da636ea5cf8508312613eb357693f1fce3da636ea5cf85068056bc75e2d631000008402059250682b5e3af16b18800000015b690127fa27722cc06cc5e28312613eea57690127fa27722cc06cc5e268056bc75e2d6310000084020592506815af1d78b58c400000015b68280e60114edb805d038312613f1f5768280e60114edb805d0368056bc75e2d631000008402059250680ad78ebc5ac6200000015b680ebc5fb417461211108312613f4a57680ebc5fb4174612111068056bc75e2d631000009384020592015b6808f00f760a4b2db55d8312613f7f576808f00f760a4b2db55d68056bc75e2d6310000084020592506802b5e3af16b1880000015b6806f5f17757889379378312613fb4576806f5f177578893793768056bc75e2d63100000840205925068015af1d78b58c40000015b6806248f33704b2866038312613fe8576806248f33704b28660368056bc75e2d63100000840205925067ad78ebc5ac620000015b6805c548670b9510e7ac831261401c576805c548670b9510e7ac68056bc75e2d6310000084020592506756bc75e2d6310000015b600068056bc75e2d63100000840168056bc75e2d63100000808603028161403f57fe5b059050600068056bc75e2d63100000828002059050818068056bc75e2d63100000818402059150600382050168056bc75e2d63100000828402059150600582050168056bc75e2d63100000828402059150600782050168056bc75e2d63100000828402059150600982050168056bc75e2d63100000828402059150600b820501600202606485820105979650505050505050565b6103ff811b1992909216911b1790565b637fffffff811b1992909216911b1790565b60008061410487878787614583565b90508086858151811061411357fe5b60200260200101511161412a576000915050612746565b60008187868151811061413957fe5b6020026020010151039050613b518482612d7390919063ffffffff16565b600060606141636117c1565b60008061416f85614739565b9150915061418761417e611caf565b821060646116d3565b6060614191611caf565b67ffffffffffffffff811180156141a757600080fd5b506040519080825280602002602001820160405280156141d1578160200160208202803683370190505b50905060006141de611873565b5090506141fd818985876141f0610786565b6141f8610c10565b61475b565b82848151811061420957fe5b6020908102919091010152509196919550909350505050565b60006060600061423184614877565b905060606142478683614242610786565b61488d565b9196919550909350505050565b600060606142606117c1565b6060600061426d8561493f565b9150915061427e8251610c32611caf565b6142888287611fb0565b6000614292611873565b50905060006142b2828a866142a5610786565b6142ad610c10565b614957565b90506142c28382111560cf6116d3565b989297509195505050505050565b60006109c783836001612a97565b600060608060006142ee8561493f565b915091506143046142fd611caf565b8351611cd3565b61430e8287611fb0565b6000614318611873565b5090506000614338828a8661432b610786565b614333610c10565b614bed565b90506142c28382101560d06116d3565b6000606060008061435885614739565b9150915061436761417e611caf565b6060614371611caf565b67ffffffffffffffff8111801561438757600080fd5b506040519080825280602002602001820160405280156143b1578160200160208202803683370190505b50905060006143be611873565b5090506141fd818985876143d0610786565b6143d8610c10565b614e82565b7f00000000000000000000000000000000000000000000000000000000000000006001600160a01b0390811691161490565b7f00000000000000000000000000000000000000000000000000000000000000006001600160a01b0390811691161490565b60006144698387868151811061445357fe5b602002602001015161134890919063ffffffff16565b86858151811061447557fe5b602002602001018181525050600061448f88888589614583565b90508387868151811061449e57fe5b6020026020010151018786815181106144b357fe5b602002602001018181525050613b5160016144ea8989815181106144d357fe5b60200260200101518461134890919063ffffffff16565b90611add565b60006145188387878151811061450257fe5b6020026020010151611add90919063ffffffff16565b86868151811061452457fe5b602002602001018181525050600061453e88888588614583565b90508387878151811061454d57fe5b60200260200101510387878151811061456257fe5b602002602001018181525050613b51600161311c838a898151811061445357fe5b60008084518602905060008560008151811061459b57fe5b6020026020010151905060008651876000815181106145b657fe5b60200260200101510290506000600190505b875181101561461c576146016145fb6145f4848b85815181106145e757fe5b60200260200101516112f1565b8a516112f1565b88614f5f565b915061461288828151811061203157fe5b92506001016145c8565b5086858151811061462957fe5b602002602001015182039150600061464187886112f1565b9050600061466d61466161465984610a9a89886112f1565b6103e86112f1565b8a89815181106145e757fe5b905060006146816132066146598b89614f5f565b905060008061469d6146938686611add565b610a9a8d86611add565b905060005b60ff81101561471d578192506146d26146bf866144ea85866112f1565b610a9a8e61311c886144ea8860026112f1565b9150828211156146fb576001838303116146f65750975061069e9650505050505050565b614715565b6001828403116147155750975061069e9650505050505050565b6001016146a2565b50614729610142612a2a565b5050505050505050949350505050565b60008082806020019051810190614750919061576a565b909590945092505050565b60008061476a88886001612011565b9050600061478c8261478687614780818b611348565b90612e02565b906138d2565b9050600061479c8a8a848b614583565b905060006147b0828b8b8151811061445357fe5b90506000805b8b518110156147ef576147e58c82815181106147ce57fe5b602002602001015183611add90919063ffffffff16565b91506001016147b6565b506000614818828d8d8151811061480257fe5b602002602001015161206b90919063ffffffff16565b9050600061482582614f7f565b9050600061483385836138d2565b905060006148418683611348565b905061486261485b83670de0b6b3a76400008e9003612d73565b8290611add565b99505050505050505050509695505050505050565b6000818060200190518101906109c7919061573d565b6060600061489b848461206b565b90506060855167ffffffffffffffff811180156148b757600080fd5b506040519080825280602002602001820160405280156148e1578160200160208202803683370190505b50905060005b8651811015614935576149168388838151811061490057fe5b6020026020010151612d7390919063ffffffff16565b82828151811061492257fe5b60209081029190910101526001016148e7565b5095945050505050565b606060008280602001905181019061475091906156f6565b600080805b865181101561497e576149748782815181106147ce57fe5b915060010161495c565b506060855167ffffffffffffffff8111801561499957600080fd5b506040519080825280602002602001820160405280156149c3578160200160208202803683370190505b5090506000805b8851811015614a8a5760006149fb858b84815181106149e557fe5b6020026020010151612e0290919063ffffffff16565b9050614a378a8381518110614a0c57fe5b60200260200101516147808b8581518110614a2357fe5b60200260200101518d868151811061445357fe5b848381518110614a4357fe5b602002602001018181525050614a7f614a7882868581518110614a6257fe5b60200260200101516138d290919063ffffffff16565b8490611add565b9250506001016149ca565b506060885167ffffffffffffffff81118015614aa557600080fd5b50604051908082528060200260200182016040528015614acf578160200160208202803683370190505b50905060005b8951811015614b9a576000848281518110614aec57fe5b6020026020010151841115614b53576000614b15614b0986614f7f565b8d858151811061490057fe5b90506000614b29828d868151811061445357fe5b9050614b4a614b4382670de0b6b3a76400008d9003612e02565b8390611add565b92505050614b6a565b898281518110614b5f57fe5b602002602001015190505b614b7a818c848151811061445357fe5b838381518110614b8657fe5b602090810291909101015250600101614ad5565b506000614ba98b8b6001612011565b90506000614bb98c846000612011565b90506000614bc7828461206b565b9050614bdc614bd582614f7f565b8b906138d2565b9d9c50505050505050505050505050565b600080805b8651811015614c1457614c0a8782815181106147ce57fe5b9150600101614bf2565b506060855167ffffffffffffffff81118015614c2f57600080fd5b50604051908082528060200260200182016040528015614c59578160200160208202803683370190505b5090506000805b8851811015614cf3576000614c7b858b848151811061480257fe5b9050614cbd8a8381518110614c8c57fe5b6020026020010151614cb78b8581518110614ca357fe5b60200260200101518d868151811061450257fe5b9061206b565b848381518110614cc957fe5b602002602001018181525050614ce8614a788286858151811061490057fe5b925050600101614c60565b506060885167ffffffffffffffff81118015614d0e57600080fd5b50604051908082528060200260200182016040528015614d38578160200160208202803683370190505b50905060005b8951811015614df957600083858381518110614d5657fe5b60200260200101511115614db2576000614d7b614b0986670de0b6b3a7640000611348565b90506000614d8f828d868151811061445357fe5b9050614da9614b4382670de0b6b3a76400008d9003612d73565b92505050614dc9565b898281518110614dbe57fe5b602002602001015190505b614dd9818c848151811061450257fe5b838381518110614de557fe5b602090810291909101015250600101614d3e565b506000614e088b8b6001612011565b90506000614e188c846000612011565b90506000614e26828461206b565b9050670de0b6b3a7640000811115614e7257614e648a7ffffffffffffffffffffffffffffffffffffffffffffffffff21f494c589c00008301612d73565b975050505050505050612746565b6000975050505050505050612746565b600080614e9188886001612011565b90506000614ea78261478687614780818b611add565b90506000614eb78a8a848b614583565b90506000614ee18a8a81518110614eca57fe5b60200260200101518361134890919063ffffffff16565b90506000805b8b51811015614f0957614eff8c82815181106147ce57fe5b9150600101614ee7565b506000614f1c828d8d8151811061480257fe5b90506000614f2982614f7f565b90506000614f3785836138d2565b90506000614f458683611348565b905061486261485b83670de0b6b3a76400008e9003612e02565b6000614f6e82151560046116d3565b818381614f7757fe5b049392505050565b6000670de0b6b3a76400008210614f9757600061076c565b50670de0b6b3a76400000390565b604080518082019091526000808252602082015290565b803561076c81615dc7565b600082601f830112614fd7578081fd5b8135614fea614fe582615d9d565b615d76565b81815291506020808301908481018184028601820187101561500b57600080fd5b60005b8481101561502a5781358452928201929082019060010161500e565b505050505092915050565b600082601f830112615045578081fd5b8151615053614fe582615d9d565b81815291506020808301908481018184028601820187101561507457600080fd5b60005b8481101561502a57815184529282019290820190600101615077565b600082601f8301126150a3578081fd5b813567ffffffffffffffff8111156150b9578182fd5b6150cc6020601f19601f84011601615d76565b91508082528360208285010111156150e357600080fd5b8060208401602084013760009082016020015292915050565b80356002811061076c57600080fd5b803561076c81615dea565b6000610120808385031215615129578182fd5b61513281615d76565b91505061513f83836150fc565b815261514e8360208401614fbc565b60208201526151608360408401614fbc565b6040820152606082013560608201526080820135608082015260a082013560a08201526151908360c08401614fbc565b60c08201526151a28360e08401614fbc565b60e08201526101008083013567ffffffffffffffff8111156151c357600080fd5b6151cf85828601615093565b82840152505092915050565b6000602082840312156151ec578081fd5b81356109c781615dc7565b60008060408385031215615209578081fd5b823561521481615dc7565b9150602083013561522481615dc7565b809150509250929050565b600080600060608486031215615243578081fd5b833561524e81615dc7565b9250602084013561525e81615dc7565b929592945050506040919091013590565b600080600080600080600060e0888a031215615289578485fd5b873561529481615dc7565b965060208801356152a481615dc7565b95506040880135945060608801359350608088013560ff811681146152c7578384fd5b9699959850939692959460a0840135945060c09093013592915050565b600080604083850312156152f6578182fd5b823561530181615dc7565b946020939093013593505050565b600080600060608486031215615323578081fd5b835167ffffffffffffffff8082111561533a578283fd5b818601915086601f83011261534d578283fd5b815161535b614fe582615d9d565b80828252602080830192508086018b82838702890101111561537b578788fd5b8796505b848710156153a657805161539281615dc7565b84526001969096019592810192810161537f565b5089015190975093505050808211156153bd578283fd5b506153ca86828701615035565b925050604084015190509250925092565b600060208083850312156153ed578182fd5b823567ffffffffffffffff811115615403578283fd5b8301601f81018513615413578283fd5b8035615421614fe582615d9d565b818152838101908385016040808502860187018a101561543f578788fd5b8795505b8486101561548c5780828b031215615459578788fd5b61546281615d76565b61546c8b8461510b565b815282880135888201528452600195909501949286019290810190615443565b509098975050505050505050565b600060208083850312156154ac578182fd5b823567ffffffffffffffff8111156154c2578283fd5b8301601f810185136154d2578283fd5b80356154e0614fe582615d9d565b818152838101908385016060808502860187018a10156154fe578788fd5b8795505b8486101561548c5780828b031215615518578788fd5b61552181615d76565b61552b8b8461510b565b81528288013588820152604080840135908201528452600195909501949286019290810190615502565b600060208284031215615566578081fd5b81356109c781615ddc565b600060208284031215615582578081fd5b81516109c781615ddc565b600080600080600080600060e0888a0312156155a7578081fd5b8735965060208801356155b981615dc7565b955060408801356155c981615dc7565b9450606088013567ffffffffffffffff808211156155e5578283fd5b6155f18b838c01614fc7565b955060808a0135945060a08a0135935060c08a0135915080821115615614578283fd5b506156218a828b01615093565b91505092959891949750929550565b600060208284031215615641578081fd5b81357fffffffff00000000000000000000000000000000000000000000000000000000811681146109c7578182fd5b600060208284031215615681578081fd5b81516109c781615dc7565b6000806040838503121561569e578182fd5b82356156a981615dc7565b9150602083013567ffffffffffffffff8111156156c4578182fd5b6156d085828601615093565b9150509250929050565b6000602082840312156156eb578081fd5b81516109c781615dea565b60008060006060848603121561570a578081fd5b835161571581615dea565b602085015190935067ffffffffffffffff811115615731578182fd5b6153ca86828701615035565b6000806040838503121561574f578182fd5b825161575a81615dea565b6020939093015192949293505050565b60008060006060848603121561577e578081fd5b835161578981615dea565b602085015160409095015190969495509392505050565b600080604083850312156157b2578182fd5b82516157bd81615dea565b602084015190925067ffffffffffffffff8111156157d9578182fd5b6156d085828601615035565b6000602082840312156157f6578081fd5b81356109c781615dea565b600060208284031215615812578081fd5b5051919050565b6000806000806080858703121561582e578182fd5b843567ffffffffffffffff80821115615845578384fd5b61585188838901615116565b95506020870135915080821115615866578384fd5b5061587387828801614fc7565b949794965050505060408301359260600135919050565b60008060006060848603121561589e578081fd5b833567ffffffffffffffff8111156158b4578182fd5b6158c086828701615116565b9660208601359650604090950135949350505050565b6000602082840312156158e7578081fd5b5035919050565b60008060408385031215615900578182fd5b50508035926020909101359150565b600080600060608486031215615923578081fd5b505081359360208301359350604090920135919050565b6000806000806080858703121561594f578182fd5b845193506020850151925060408501519150606085015161596f81615dc7565b939692955090935050565b6000815180845260208085019450808401835b838110156159a95781518752958201959082019060010161598d565b509495945050505050565b60008151808452815b818110156159d9576020818501810151868301820152016159bd565b818111156159ea5782602083870101525b50601f01601f19169290920160200192915050565b9182527fffffffff0000000000000000000000000000000000000000000000000000000016602082015260240190565b6000828483379101908152919050565b7f190100000000000000000000000000000000000000000000000000000000000081526002810192909252602282015260420190565b6001600160a01b0391909116815260200190565b6020808252825182820181905260009190848201906040850190845b81811015615ac157835183529284019291840191600101615aa5565b50909695505050505050565b6000602082526109c7602083018461597a565b600060408252615af3604083018561597a565b8281036020840152612746818561597a565b901515815260200190565b92151583526020830191909152604082015260600190565b90815260200190565b9283526001600160a01b03918216602084015216604082015260600190565b9586526001600160a01b0394851660208701529290931660408501526060840152608083019190915260a082015260c00190565b9485526020850193909352604084019190915260608301526001600160a01b0316608082015260a00190565b60008382526040602083015261069e60408301846159b4565b9182526001600160a01b0316602082015260400190565b93845260ff9290921660208401526040830152606082015260800190565b918252602082015260400190565b968752602087019590955260408601939093526060850191909152608084015260a083015260c082015260e00190565b9485526020850193909352604084019190915260608301521515608082015260a00190565b83815260608101615c7184615dbd565b602082019390935260400152919050565b84815260808101615c9285615dbd565b84602083015283604083015282606083015295945050505050565b838152825160a0820190615cc081615dbd565b806020840152506020840151604083015260408401516060830152826080830152949350505050565b6000602082526109c760208301846159b4565b600060408252615d0f60408301856159b4565b90508260208301529392505050565b60008382526040602083015261069e604083018461597a565b9283529015156020830152604082015260600190565b93845260208401929092526040830152606082015260800190565b60ff91909116815260200190565b60405181810167ffffffffffffffff81118282101715615d9557600080fd5b604052919050565b600067ffffffffffffffff821115615db3578081fd5b5060209081020190565b6003811061078357fe5b6001600160a01b038116811461078357600080fd5b801515811461078357600080fd5b6003811061078357600080fdfe537461626c654f7261636c654d61746820616d706c696669636174696f6e506172616d657465722025736c6f67427074546f74616c537570706c79202573202c20616d706c696669636174696f6e506172616d65746572a2646970667358221220e61d16ab4130620d9efaf674e8a1ace58a3097c274cf87738e93b932edfb2f5c64736f6c63430007010033",
  "libraries": {
    "QueryProcessor": "0xAdcd9ccb1DEf8d98E14BBf0A7252B369dB2E9A15"
  },
  "devdoc": {
    "kind": "dev",
    "methods": {
      "_getCreationCodeWithArgs(bytes)": {
        "details": "Returns the creation code that will result in a contract being deployed with `constructorArgs`."
      },
      "create(string,string,address[],uint256,address[],uint256[],uint256,address)": {
        "details": "Deploys a new `MetaStablePool`."
      },
      "getCreationCode()": {
        "details": "Returns the creation code of the contract this factory creates."
      },
      "getCreationCodeContracts()": {
        "details": "Returns the two addresses where the creation code of the contract crated by this factory is stored."
      },
      "getPauseConfiguration()": {
        "details": "Returns the current `TemporarilyPausable` configuration that will be applied to Pools created by this factory. `pauseWindowDuration` will decrease over time until it reaches zero, at which point both it and `bufferPeriodDuration` will be zero forever, meaning deployed Pools will not be pausable."
      },
      "getVault()": {
        "details": "Returns the Vault's address."
      },
      "isPoolFromFactory(address)": {
        "details": "Returns true if `pool` was created by this factory."
      }
    },
    "version": 1
  },
  "userdoc": {
    "kind": "user",
    "methods": {},
    "version": 1
  },
  "storageLayout": {
    "storage": [
      {
        "astId": 2674,
        "contract": "contracts/StablePool/meta/MetaStablePoolLessThan24Factory.sol:MetaStablePoolLessThan24Factory",
        "label": "_isPoolFromFactory",
        "offset": 0,
        "slot": "0",
        "type": "t_mapping(t_address,t_bool)"
      }
    ],
    "types": {
      "t_address": {
        "encoding": "inplace",
        "label": "address",
        "numberOfBytes": "20"
      },
      "t_bool": {
        "encoding": "inplace",
        "label": "bool",
        "numberOfBytes": "1"
      },
      "t_mapping(t_address,t_bool)": {
        "encoding": "mapping",
        "key": "t_address",
        "label": "mapping(address => bool)",
        "numberOfBytes": "32",
        "value": "t_bool"
      }
    }
  }
}