{
  "address": "0x1b35d875d3b32ffCE91fe9189EA671f123B64a92",
  "abi": [
    {
      "inputs": [
        {
          "internalType": "contract IVault",
          "name": "vault",
          "type": "address"
        }
      ],
      "stateMutability": "nonpayable",
      "type": "constructor"
    },
    {
      "anonymous": false,
      "inputs": [
        {
          "indexed": true,
          "internalType": "address",
          "name": "pool",
          "type": "address"
        }
      ],
      "name": "PoolCreated",
      "type": "event"
    },
    {
      "inputs": [
        {
          "internalType": "bytes",
          "name": "constructorArgs",
          "type": "bytes"
        }
      ],
      "name": "_getCreationCodeWithArgs",
      "outputs": [
        {
          "internalType": "bytes",
          "name": "code",
          "type": "bytes"
        }
      ],
      "stateMutability": "view",
      "type": "function"
    },
    {
      "inputs": [
        {
          "internalType": "string",
          "name": "name",
          "type": "string"
        },
        {
          "internalType": "string",
          "name": "symbol",
          "type": "string"
        },
        {
          "internalType": "contract IERC20[]",
          "name": "tokens",
          "type": "address[]"
        },
        {
          "internalType": "uint256",
          "name": "amplificationParameter",
          "type": "uint256"
        },
        {
          "internalType": "contract IRateProvider[]",
          "name": "rateProviders",
          "type": "address[]"
        },
        {
          "internalType": "uint256[]",
          "name": "priceRateCacheDuration",
          "type": "uint256[]"
        },
        {
          "internalType": "uint256",
          "name": "swapFeePercentage",
          "type": "uint256"
        },
        {
          "internalType": "address",
          "name": "owner",
          "type": "address"
        }
      ],
      "name": "create",
      "outputs": [
        {
          "internalType": "address",
          "name": "",
          "type": "address"
        }
      ],
      "stateMutability": "nonpayable",
      "type": "function"
    },
    {
      "inputs": [],
      "name": "getCreationCode",
      "outputs": [
        {
          "internalType": "bytes",
          "name": "",
          "type": "bytes"
        }
      ],
      "stateMutability": "view",
      "type": "function"
    },
    {
      "inputs": [],
      "name": "getCreationCodeContracts",
      "outputs": [
        {
          "internalType": "address",
          "name": "contractA",
          "type": "address"
        },
        {
          "internalType": "address",
          "name": "contractB",
          "type": "address"
        }
      ],
      "stateMutability": "view",
      "type": "function"
    },
    {
      "inputs": [],
      "name": "getPauseConfiguration",
      "outputs": [
        {
          "internalType": "uint256",
          "name": "pauseWindowDuration",
          "type": "uint256"
        },
        {
          "internalType": "uint256",
          "name": "bufferPeriodDuration",
          "type": "uint256"
        }
      ],
      "stateMutability": "view",
      "type": "function"
    },
    {
      "inputs": [],
      "name": "getVault",
      "outputs": [
        {
          "internalType": "contract IVault",
          "name": "",
          "type": "address"
        }
      ],
      "stateMutability": "view",
      "type": "function"
    },
    {
      "inputs": [
        {
          "internalType": "address",
          "name": "pool",
          "type": "address"
        }
      ],
      "name": "isPoolFromFactory",
      "outputs": [
        {
          "internalType": "bool",
          "name": "",
          "type": "bool"
        }
      ],
      "stateMutability": "view",
      "type": "function"
    }
  ],
  "transactionHash": "0xdb3c02a35178479d0d61d134011e7e64125c3aa986336ee78a7d37ea68f27afd",
  "args": [
    "0xA569923c4a4c80d0f30DaC668bd3e14662598DCf"
  ],
  "numDeployments": 2,
  "solcInputHash": "df7775f67061d1917be1f399f1ecae92",
  "bytecode": "0x6101406040523480156200001257600080fd5b5060405162008137380380620081378339810160408190526200003591620001c3565b80604051806020016200004890620001b5565b601f1982820381018352601f909101166040528051819060006002820460a081905280830360e0819052818552909150836200009081620000f9602090811b620003b517901c565b60601b6001600160601b0319166080528285018051838252620000bf82620000f9602090811b620003b517901c565b6001600160601b0319606091821b811660c0529690935290529590951b90911661010052505050426276a700016101205250620001f39050565b80517f602038038060206000396000f3fefefefefefefefefefefefefefefefefefefe808352600091602081018484f09084529150620001476001600160a01b03831615156101ac6200014d565b50919050565b816200015e576200015e8162000162565b5050565b62461bcd60e51b6000908152602060045260076024526642414c23000030600a808404818106603090810160081b95839006959095019082900491820690940160101b939093010160c81b604452606490fd5b6173d88062000d5f83390190565b600060208284031215620001d5578081fd5b81516001600160a01b0381168114620001ec578182fd5b9392505050565b60805160601c60a05160c05160601c60e0516101005160601c61012051610b0a620002556000398061018152806101aa5250806103935250806102c0525080610158528061033c5250806102e152508061013752806103185250610b0a6000f3fe608060405234801561001057600080fd5b506004361061006c5760003560e01c8062c194db14610071578063174481fa1461008f5780632da47c40146100a55780634555fb8d146100bb5780636634b753146100db57806374cc23da146100fb5780638d928af81461010e575b600080fd5b610079610116565b6040516100869190610949565b60405180910390f35b610097610135565b604051610086929190610924565b6100ad61017b565b604051610086929190610a69565b6100ce6100c9366004610750565b6101e5565b6040516100869190610910565b6100ee6100e93660046106fa565b61029a565b604051610086919061093e565b610079610109366004610716565b6102b8565b6100ce610391565b6060610130604051806020016040528060008152506102b8565b905090565b7f00000000000000000000000000000000000000000000000000000000000000007f00000000000000000000000000000000000000000000000000000000000000009091565b600080427f00000000000000000000000000000000000000000000000000000000000000008110156101d757807f000000000000000000000000000000000000000000000000000000000000000003925062278d0091506101e0565b60009250600091505b509091565b60008060006101f261017b565b9150915061028b60405180610180016040528061020d610391565b6001600160a01b031681526020018d81526020018c81526020018b81526020018981526020018881526020018a8152602001878152602001848152602001838152602001600015158152602001866001600160a01b0316815250604051602001610277919061095c565b604051602081830303815290604052610407565b9b9a5050505050505050505050565b6001600160a01b031660009081526020819052604090205460ff1690565b8051604080517f00000000000000000000000000000000000000000000000000000000000000007f0000000000000000000000000000000000000000000000000000000000000000818101858101848101602090810190965280855293957f00000000000000000000000000000000000000000000000000000000000000009592947f000000000000000000000000000000000000000000000000000000000000000094938801866000828a3c846000888301883c5060208981019089850101610383818386610467565b505050505050505050919050565b7f000000000000000000000000000000000000000000000000000000000000000090565b80517f602038038060206000396000f3fefefefefefefefefefefefefefefefefefefe808352600091602081018484f090845291506104016001600160a01b03831615156101ac6104a5565b50919050565b600080610413836104b7565b6001600160a01b038116600081815260208190526040808220805460ff191660011790555192935090917f83a48fbcfc991335314e74d0496aab6a1987e992ddc85dddbcc4d6dd6ef2e9fc9190a292915050565b5b60208110610487578151835260209283019290910190601f1901610468565b905182516020929092036101000a6000190180199091169116179052565b816104b3576104b3816104f2565b5050565b600060606104c4836102b8565b905060008151602083016000f090506001600160a01b0381166104eb573d6000803e3d6000fd5b9392505050565b62461bcd60e51b6000908152602060045260076024526642414c23000030600a808404818106603090810160081b95839006959095019082900491820690940160101b939093010160c81b604452606490fd5b803561055081610abc565b92915050565b600082601f830112610566578081fd5b813561057961057482610a9d565b610a77565b81815291506020808301908481018184028601820187101561059a57600080fd5b60005b848110156105c25781356105b081610abc565b8452928201929082019060010161059d565b505050505092915050565b600082601f8301126105dd578081fd5b81356105eb61057482610a9d565b81815291506020808301908481018184028601820187101561060c57600080fd5b60005b848110156105c257813561062281610abc565b8452928201929082019060010161060f565b600082601f830112610644578081fd5b813561065261057482610a9d565b81815291506020808301908481018184028601820187101561067357600080fd5b60005b848110156105c257813584529282019290820190600101610676565b600082601f8301126106a2578081fd5b81356001600160401b038111156106b7578182fd5b6106ca601f8201601f1916602001610a77565b91508082528360208285010111156106e157600080fd5b8060208401602084013760009082016020015292915050565b60006020828403121561070b578081fd5b81356104eb81610abc565b600060208284031215610727578081fd5b81356001600160401b0381111561073c578182fd5b61074884828501610692565b949350505050565b600080600080600080600080610100898b03121561076c578384fd5b88356001600160401b0380821115610782578586fd5b61078e8c838d01610692565b995060208b01359150808211156107a3578586fd5b6107af8c838d01610692565b985060408b01359150808211156107c4578586fd5b6107d08c838d01610556565b975060608b0135965060808b01359150808211156107ec578586fd5b6107f88c838d016105cd565b955060a08b013591508082111561080d578485fd5b5061081a8b828c01610634565b93505060c089013591506108318a60e08b01610545565b90509295985092959890939650565b6001600160a01b03169052565b6000815180845260208085019450808401835b838110156108855781516001600160a01b031687529582019590820190600101610860565b509495945050505050565b6000815180845260208085019450808401835b83811015610885578151875295820195908201906001016108a3565b15159052565b60008151808452815b818110156108ea576020818501810151868301820152016108ce565b818111156108fb5782602083870101525b50601f01601f19169290920160200192915050565b6001600160a01b0391909116815260200190565b6001600160a01b0392831681529116602082015260400190565b901515815260200190565b6000602082526104eb60208301846108c5565b600060208252610970602083018451610840565b602083015161018080604085015261098c6101a08501836108c5565b91506040850151601f19808685030160608701526109aa84836108c5565b935060608701519150808685030160808701526109c7848361084d565b935060808701519150808685030160a08701526109e4848361084d565b935060a08701519150808685030160c087015250610a028382610890565b60c087015160e0878101919091528701516101008088019190915287015161012080880191909152870151610140808801919091528701519093509050610160610a4e818701836108bf565b8601519050610a5f85830182610840565b5090949350505050565b918252602082015260400190565b6040518181016001600160401b0381118282101715610a9557600080fd5b604052919050565b60006001600160401b03821115610ab2578081fd5b5060209081020190565b6001600160a01b0381168114610ad157600080fd5b5056fea26469706673582212202906fc86ea766e4a02eaf64d82594e2fb43d8aa1e2c995192a5a2a414664147d64736f6c634300070100336103606040527f6e71edae12b1b97f4d1f60370fef10105fa2faae0126114a169c64845d6126c9610120523480156200003757600080fd5b50604051620073d8380380620073d88339810160408190526200005a91620010a1565b805160208201516040830151606084015160c085015160e0860151610100870151610120880151610160890151855189906002146200009b5760006200009e565b60025b8989898a516001600160401b0381118015620000b957600080fd5b50604051908082528060200260200182016040528015620000e4578160200160208202803683370190505b5089898989828289898d8280604051806040016040528060018152602001603160f81b81525085858a336001600160a01b031660001b806080818152505050806001600160a01b031660a0816001600160a01b031660601b815250505081600390805190602001906200015992919062000de9565b5080516200016f90600490602084019062000de9565b505060058054601260ff1990911617905550815160209283012060c052805191012060e052507f8b73c3c69bb8fe3d512ecc4cf759cc79239f7b179b0ffacaa9a75d522b39400f6101005260601b6001600160601b0319166101405250620001e290506276a7008311156101946200084b565b620001f662278d008211156101956200084b565b429091016101608190520161018052855162000218906002111560c86200084b565b620002326200022662000860565b8751111560c96200084b565b62000248866200086560201b620014061760201c565b620002538462000871565b6040516309b2760f60e01b81526000906001600160a01b038c16906309b2760f9062000284908d90600401620012e7565b602060405180830381600087803b1580156200029f57600080fd5b505af1158015620002b4573d6000803e3d6000fd5b505050506040513d601f19601f82011682018060405250810190620002da919062001088565b604051633354e3e960e11b81529091506001600160a01b038c16906366a9c7d2906200030f9084908b908b906004016200124b565b600060405180830381600087803b1580156200032a57600080fd5b505af11580156200033f573d6000803e3d6000fd5b5050506101a091909152506200036a9950505060018d1015965061012c9550506200084b9350505050565b6200037d61138886111561012d6200084b565b85516101c0819052865187906000906200039357fe5b60200260200101516001600160a01b03166101e0816001600160a01b031660601b8152505086600181518110620003c657fe5b60200260200101516001600160a01b0316610200816001600160a01b031660601b8152505060028111620003fc57600062000413565b866002815181106200040a57fe5b60200260200101515b60601b6001600160601b0319166102205260038111620004355760006200044c565b866003815181106200044357fe5b60200260200101515b60601b6001600160601b03191661024052600481116200046e57600062000485565b866004815181106200047c57fe5b60200260200101515b6001600160a01b0316610260816001600160a01b031660601b81525050620004c887600081518110620004b457fe5b6020026020010151620008fd60201b60201c565b610280528651620004e19088906001908110620004b457fe5b6102a05260028111620004f657600062000508565b6200050887600281518110620004b457fe5b6102c052600381116200051d5760006200052f565b6200052f87600381518110620004b457fe5b6102e052600481116200054457600062000556565b6200055687600481518110620004b457fe5b6103008181525050600062000579876103e8620009d160201b620014101760201c565b9050620005868162000a02565b5050505050505050505050620005ac81606001515160021460d26200084b60201b60201c565b620005d38160600151518260800151518360a001515162000a4160201b620014341760201c565b60008160800151600081518110620005e757fe5b60209081029190910101516001600160601b0319606082901b166103205290506001600160a01b038116156200069e5760008062000645838560a001516000815181106200063157fe5b602002602001015162000a6160201b60201c565b9150915081600d8190555083606001516000815181106200066257fe5b60200260200101516001600160a01b03166000805160206200739883398151915282604051620006939190620012fc565b60405180910390a250505b806001600160a01b03168260600151600081518110620006ba57fe5b60200260200101516001600160a01b0316600080516020620073b88339815191528460a00151600081518110620006ed57fe5b6020026020010151604051620007049190620012fc565b60405180910390a3600082608001516001815181106200072057fe5b60209081029190910101516001600160601b0319606082901b166103405290506001600160a01b03811615620007c3576000806200076a838660a001516001815181106200063157fe5b9150915081600e8190555084606001516001815181106200078757fe5b60200260200101516001600160a01b03166000805160206200739883398151915282604051620007b89190620012fc565b60405180910390a250505b806001600160a01b03168360600151600181518110620007df57fe5b60200260200101516001600160a01b0316600080516020620073b88339815191528560a001516001815181106200081257fe5b6020026020010151604051620008299190620012fc565b60405180910390a3610140830151620008429062000b5f565b5050506200136e565b816200085c576200085c8162000bbd565b5050565b600590565b806200085c8162000c10565b6200088664e8d4a5100082101560cb6200084b565b6200089e67016345785d8a000082111560ca6200084b565b620008bd8160c060085462000c9a60201b62001451179092919060201c565b6008556040517fa9ba3ffe0b6c366b81232caab38605a0699ad5398d6cce76f91ee809e322dafc90620008f2908390620012fc565b60405180910390a150565b60006001600160a01b038216301415620009215750670de0b6b3a7640000620009cc565b6000826001600160a01b031663313ce5676040518163ffffffff1660e01b815260040160206040518083038186803b1580156200095d57600080fd5b505afa15801562000972573d6000803e3d6000fd5b505050506040513d601f19601f820116820180604052508101906200099891906200121d565b60ff1690506000620009b760128362000caf60201b620014661760201c565b905080600a0a670de0b6b3a764000002925050505b919050565b6000828202620009f9841580620009f1575083858381620009ee57fe5b04145b60036200084b565b90505b92915050565b62000a108180428062000cc7565b7fa0d01593e47e69d07e0ccd87bece09411e07dd1ed40ca8f2e7af2976542a023381604051620008f29190620012fc565b62000a5c828414801562000a5457508183145b60676200084b565b505050565b600080836001600160a01b031663679aefce6040518163ffffffff1660e01b815260040160206040518083038186803b15801562000a9e57600080fd5b505afa15801562000ab3573d6000803e3d6000fd5b505050506040513d601f19601f8201168201806040525081019062000ad9919062001088565b905062000aef600160801b82106101496200084b565b62000b128342016001600160401b031660c062000d5760201b6200147c1760201c565b62000b33846001600160401b0316608062000d5760201b6200147c1760201c565b62000b54836001600160801b0316600062000d5760201b6200147c1760201c565b171791509250929050565b62000b8c62000b868262000b7262000d5b565b62000d6160201b620014801790919060201c565b62000d80565b7f3e350b41e86a8e10f804ade6d35340d620be35569cc75ac943e8bb14ab80ead181604051620008f2919062001240565b62461bcd60e51b6000908152602060045260076024526642414c23000030600a808404818106603090810160081b95839006959095019082900491820690940160101b939093010160c81b604452606490fd5b60028151101562000c215762000c97565b60008160008151811062000c3157fe5b602002602001015190506000600190505b825181101562000a5c57600083828151811062000c5b57fe5b6020026020010151905062000c8c816001600160a01b0316846001600160a01b03161060656200084b60201b60201c565b915060010162000c42565b50565b6001600160401b03811b1992909216911b1790565b600062000cc18383111560016200084b565b50900390565b62000ce8816001600160401b031660c062000d5760201b6200147c1760201c565b62000d09836001600160401b0316608062000d5760201b6200147c1760201c565b62000d2a856001600160401b0316604062000d5760201b6200147c1760201c565b62000d4b876001600160401b0316600062000d5760201b6200147c1760201c565b17171760095550505050565b1b90565b60085490565b6000620009f98260558562000da560201b6200148a179092919060201c565b62000d9f81600060085462000dce60201b620014b1179092919060201c565b60085550565b60006001821b198416828462000dbd57600062000dc0565b60015b60ff16901b17949350505050565b6001600160c01b03828116821b90821b198416179392505050565b828054600181600116156101000203166002900490600052602060002090601f016020900481019282601f1062000e2c57805160ff191683800117855562000e5c565b8280016001018555821562000e5c579182015b8281111562000e5c57825182559160200191906001019062000e3f565b5062000e6a92915062000e6e565b5090565b5b8082111562000e6a576000815560010162000e6f565b8051620009fc8162001358565b600082601f83011262000ea3578081fd5b815162000eba62000eb4826200132c565b62001305565b81815291506020808301908481018184028601820187101562000edc57600080fd5b60005b8481101562000f0857815162000ef58162001358565b8452928201929082019060010162000edf565b505050505092915050565b600082601f83011262000f24578081fd5b815162000f3562000eb4826200132c565b81815291506020808301908481018184028601820187101562000f5757600080fd5b60005b8481101562000f0857815162000f708162001358565b8452928201929082019060010162000f5a565b600082601f83011262000f94578081fd5b815162000fa562000eb4826200132c565b81815291506020808301908481018184028601820187101562000fc757600080fd5b60005b8481101562000f085781518452928201929082019060010162000fca565b80518015158114620009fc57600080fd5b600082601f8301126200100a578081fd5b81516001600160401b0381111562001020578182fd5b602062001036601f8301601f1916820162001305565b925081835284818386010111156200104d57600080fd5b60005b828110156200106d57848101820151848201830152810162001050565b828111156200107f5760008284860101525b50505092915050565b6000602082840312156200109a578081fd5b5051919050565b600060208284031215620010b3578081fd5b81516001600160401b0380821115620010ca578283fd5b8184019150610180808387031215620010e1578384fd5b620010ec8162001305565b9050620010fa868462000e85565b81526020830151828111156200110e578485fd5b6200111c8782860162000ff9565b60208301525060408301518281111562001134578485fd5b620011428782860162000ff9565b6040830152506060830151828111156200115a578485fd5b620011688782860162000e92565b60608301525060808301518281111562001180578485fd5b6200118e8782860162000f13565b60808301525060a083015182811115620011a6578485fd5b620011b48782860162000f83565b60a08301525060c0838101519082015260e08084015190820152610100808401519082015261012080840151908201526101409150620011f78683850162000fe8565b8282015261016091506200120e8683850162000e85565b91810191909152949350505050565b6000602082840312156200122f578081fd5b815160ff81168114620009f9578182fd5b901515815260200190565b60006060820185835260206060818501528186518084526080860191508288019350845b8181101562001297576200128485516200134c565b835293830193918301916001016200126f565b505084810360408601528551808252908201925081860190845b81811015620012d957620012c683516200134c565b85529383019391830191600101620012b1565b509298975050505050505050565b6020810160038310620012f657fe5b91905290565b90815260200190565b6040518181016001600160401b03811182821017156200132457600080fd5b604052919050565b60006001600160401b0382111562001342578081fd5b5060209081020190565b6001600160a01b031690565b6001600160a01b038116811462000c9757600080fd5b60805160a05160601c60c05160e05161010051610120516101405160601c61016051610180516101a0516101c0516101e05160601c6102005160601c6102205160601c6102405160601c6102605160601c610280516102a0516102c0516102e051610300516103205160601c6103405160601c615f07620014916000398061183a52508061181652508061362a5250806136065250806135e25250806135be52508061359a525080613ad2525080613a90525080613a4e525080611781528061266a5280613310525080611719528061260f52806132b6525080611dfc525080610b7c5250806116d15250806116ad525080610f4d525080611249525080611b50525080611b92525080611b71525080610f29525080610eb35250615f076000f3fe608060405234801561001057600080fd5b50600436106102515760003560e01c806301ec954a1461025657806306fdde031461027f578063095ea7b31461029457806316c38b3c146102b457806318160ddd146102c95780631c0de051146102d15780631dccd830146102e85780631dd746ea146103085780631ed4eddc14610310578063238a2d591461032957806323b872dd1461033e578063292c914a146103515780632f1a0bc914610359578063313ce5671461036c5780633331bc36146103815780633644e5151461039457806338e9922e1461039c57806338fff2d0146103af57806339509351146103b757806340c10f19146103ca57806350dd6ed9146103dd57806355c67628146103f05780636028bfd4146103f857806360d1507c14610419578063679aefce1461043f5780636b843239146104475780636daccffa1461046757806370a082311461047e57806374f3b009146104915780637ecebe00146104b2578063851c1bb3146104c557806387ec6817146104d8578063893d20e8146104eb5780638d928af81461050057806395d89b41146105085780639b02cdde146105105780639d2c110c14610526578063a0daaed014610539578063a457c2d71461054c578063a9059cbb1461055f578063aaabadc514610572578063b10be7391461057a578063b48b5b401461058d578063b771025114610595578063b867ee5a146105a8578063d505accf146105ca578063d5c096c4146105dd578063dd62ed3e146105f0578063eb0f24d614610603578063f30d74a31461060b578063ffd088eb1461061e575b600080fd5b6102696102643660046158b5565b610626565b6040516102769190615bd0565b60405180910390f35b610287610647565b6040516102769190615d91565b6102a76102a236600461539f565b6106de565b6040516102769190615bad565b6102c76102c236600461560d565b6106f5565b005b610269610709565b6102d961070f565b60405161027693929190615bb8565b6102fb6102f6366004615553565b610738565b6040516102769190615b75565b6102fb61085b565b61031861086a565b604051610276959493929190615ce4565b6103316108bc565b6040516102769190615af0565b6102a761034c3660046152ea565b610949565b6102c76109bf565b6102c7610367366004615988565b6109f3565b610374610ad6565b6040516102769190615e04565b6102c761038f366004615988565b610adf565b610269610b57565b6102c76103aa366004615970565b610b61565b610269610b7a565b6102a76103c536600461539f565b610b9e565b6102c76103d836600461539f565b610bd9565b6102c76103eb36600461572b565b610be7565b610269610c01565b61040b610406366004615645565b610c12565b604051610276929190615da4565b61042c610427366004615970565b610c49565b6040516102769796959493929190615cb4565b610269610c92565b61045a610455366004615495565b610d70565b6040516102769190615b3d565b61046f610e26565b60405161027693929190615dbd565b61026961048c366004615296565b610e41565b6104a461049f366004615645565b610e60565b604051610276929190615b88565b6102696104c0366004615296565b610e94565b6102696104d33660046156e7565b610eaf565b61040b6104e6366004615645565b610f01565b6104f3610f27565b6040516102769190615adc565b6104f3610f4b565b610287610f6f565b610518610fd0565b604051610276929190615ca6565b610269610534366004615925565b610fda565b6102c7610547366004615296565b610fef565b6102a761055a36600461539f565b61102b565b6102a761056d36600461539f565b611069565b6104f3611076565b610269610588366004615881565b611080565b610269611115565b6102c76105a336600461539f565b61111b565b6105bb6105b6366004615296565b6111bb565b60405161027693929190615dd3565b6102c76105d836600461532a565b611214565b6104a46105eb366004615645565b61135d565b6102696105fe3660046152b2565b611384565b6102c7611390565b6105186106193660046159a9565b6113bc565b6102696113ff565b60006106306114cc565b61063c858585856114dc565b90505b949350505050565b60038054604080516020601f60026000196101006001881615020190951694909404938401819004810282018101909252828152606093909290918301828280156106d35780601f106106a8576101008083540402835291602001916106d3565b820191906000526020600020905b8154815290600101906020018083116106b657829003601f168201915b505050505090505b90565b60006106eb33848461157a565b5060015b92915050565b6106fd6115e2565b61070681611610565b50565b60025490565b600080600061071c61168e565b1592506107276116ab565b91506107316116cf565b9050909192565b606081516001600160401b038111801561075157600080fd5b5060405190808252806020026020018201604052801561077b578160200160208202803683370190505b50905060006107886116f3565b905060005b83518110156108545773D268a45eC914B3AC19e3fE34577c074B1D9Fbc1E6379eaef82600c8684815181106107be57fe5b6020026020010151856040518463ffffffff1660e01b81526004016107e593929190615d55565b60206040518083038186803b1580156107fd57600080fd5b505af4158015610811573d6000803e3d6000fd5b505050506040513d601f19601f82011682018060405250810190610835919061589d565b83828151811061084157fe5b602090810291909101015260010161078d565b5050919050565b6060610865611705565b905090565b60008060008060008061087b6117ce565b9050610886816117d4565b9550610891816117e0565b945061089c816117ed565b93506108a7816117fa565b92506108b281611807565b9150509091929394565b60408051600280825260608083018452926020830190803683370190505090506108e4611814565b816000815181106108f157fe5b60200260200101906001600160a01b031690816001600160a01b031681525050610919611838565b8160018151811061092657fe5b60200260200101906001600160a01b031690816001600160a01b03168152505090565b6000806109568533611384565b905061097a336001600160a01b03871614806109725750838210155b61019e61185c565b61098585858561186a565b336001600160a01b038616148015906109a057506000198114155b156109b2576109b2853385840361157a565b60019150505b9392505050565b6109c7611938565b6109cf6115e2565b6109d9600161194b565b60006109e3610709565b11156109f1576109f1611994565b565b6109fb6115e2565b610a0b600183101561012c61185c565b610a1c61138883111561012d61185c565b6000610a288242611466565b9050610a3c6201518082101561013d61185c565b600080610a476119ea565b91509150610a58811561013e61185c565b6000610a66866103e8611410565b90506000838211610a9557610a90610a816201518086611410565b610a8b8488611410565b611a5e565b610aaf565b610aaf610aa56201518084611410565b610a8b8688611410565b9050610ac1600282111561013f61185c565b610acd84834289611a91565b50505050505050565b60055460ff1690565b610afa8183108015610af357506104008211155b606461185c565b6000610b0f6001600080600080600080611ae0565b9050825b82811015610b51576000818152600c6020526040902054610b3390611b40565b610b49576000818152600c602052604090208290555b600101610b13565b50505050565b6000610865611b4c565b610b696115e2565b610b71611938565b61070681611be9565b7f000000000000000000000000000000000000000000000000000000000000000090565b3360008181526001602090815260408083206001600160a01b038716845290915281205490916106eb918590610bd49086611c54565b61157a565b610be38282611c66565b5050565b610bef6115e2565b610bf7611938565b610be38282611cee565b6008546000906108659060c0611ded565b60006060610c288651610c23611dfa565b611e1e565b610c3d89898989898989611e2b611e95611ef6565b97509795505050505050565b6000806000806000806000610c64610400891061013b61185c565b6000610c6f89612019565b9050610c7a8161202b565b959f949e50929c50909a509850965090945092505050565b60006060610c9e610f4b565b6001600160a01b031663f94d4668610cb4610b7a565b6040518263ffffffff1660e01b8152600401610cd09190615bd0565b60006040518083038186803b158015610ce857600080fd5b505afa158015610cfc573d6000803e3d6000fd5b505050506040513d6000823e601f3d908101601f19168201604052610d2491908101906153ca565b509150506000610d326119ea565b509050610d4682610d41611705565b61208e565b6000610d54828460006120ef565b9050610d68610d61610709565b8290612149565b935050505090565b606081516001600160401b0381118015610d8957600080fd5b50604051908082528060200260200182016040528015610db3578160200160208202803683370190505b5090506000610dc06116f3565b9050610dca615062565b60005b8451811015610e1e57848181518110610de257fe5b60200260200101519150610dff826000015184846020015161219a565b848281518110610e0b57fe5b6020908102919091010152600101610dcd565b505050919050565b6000806000610e336119ea565b90949093506103e892509050565b6001600160a01b0381166000908152602081905260409020545b919050565b606080610e6b6114cc565b610e7a8989898989898961222b565b9092509050610e8761168e565b15610c3d57610c3d611994565b6001600160a01b031660009081526006602052604090205490565b60007f000000000000000000000000000000000000000000000000000000000000000082604051602001610ee4929190615a99565b604051602081830303815290604052805190602001209050919050565b60006060610f128651610c23611dfa565b610c3d898989898989896122a96122cf611ef6565b7f000000000000000000000000000000000000000000000000000000000000000090565b7f000000000000000000000000000000000000000000000000000000000000000090565b60048054604080516020601f60026000196101006001881615020190951694909404938401819004810282018101909252828152606093909290918301828280156106d35780601f106106a8576101008083540402835291602001916106d3565b600a54600b549091565b6000610fe46114cc565b61063f848484612330565b610ff88161248e565b1561100a576110056124bb565b610706565b611013816124d3565b15611020576110056124ef565b610706610135612502565b6000806110383385611384565b90508083106110525761104d3385600061157a565b61105f565b61105f338585840361157a565b5060019392505050565b60006106eb33848461186a565b6000610865612555565b600073D268a45eC914B3AC19e3fE34577c074B1D9Fbc1E630397bee0600c846110a76116f3565b6040518463ffffffff1660e01b81526004016110c593929190615d09565b60206040518083038186803b1580156110dd57600080fd5b505af41580156110f1573d6000803e3d6000fd5b505050506040513d601f19601f820116820180604052508101906106ef919061589d565b61040090565b6111236115e2565b61112c8261248e565b156111915761113a816125cf565b611142611814565b6001600160a01b0316826001600160a01b03167fca6c2c5b6b44b5f3f0c08f0e28e5b6deda1cb38c3fe1113e8031d926c1e8c6d0836040516111849190615bd0565b60405180910390a3610be3565b61119a826124d3565b156111b0576111a8816125f1565b611142611838565b610be3610135612502565b60008060006111c98461260d565b156111e9576111de6111d961263f565b612645565b92509250925061120d565b6111f284612668565b15611202576111de6111d961269a565b61120d610135612502565b9193909250565b6112228442111560d161185c565b6001600160a01b0387166000908152600660209081526040808320549051909291611279917f0000000000000000000000000000000000000000000000000000000000000000918c918c918c9188918d9101615bf8565b604051602081830303815290604052805190602001209050600061129c826126a0565b90506000600182888888604051600081526020016040526040516112c39493929190615c88565b6020604051602081039080840390855afa1580156112e5573d6000803e3d6000fd5b5050604051601f190151915061132790506001600160a01b0382161580159061131f57508b6001600160a01b0316826001600160a01b0316145b6101f861185c565b6001600160a01b038b1660009081526006602052604090206001850190556113508b8b8b61157a565b5050505050505050505050565b6060806113686114cc565b611377898989898989896126bc565b9092509050610c3d611994565b60006109b883836127e7565b6113986115e2565b6000806113a36119ea565b915091506113b38161014061185c565b610be382612812565b60008060006113c96117ce565b905060006113d56119ea565b5090506000806113ef8389896113ea886117e0565b61284d565b9150915050505050935093915050565b6201de2090565b80610be381612882565b60008282026109b884158061142d57508385838161142a57fe5b04145b600361185c565b61144c828414801561144557508183145b606761185c565b505050565b6001600160401b03811b1992909216911b1790565b600061147683831115600161185c565b50900390565b1b90565b60006109b8838360555b60006001821b19841682846114a05760006114a3565b60015b60ff16901b17949350505050565b6001600160c01b03828116821b90821b198416179392505050565b6114d46128fb565b6109f161293b565b600084608001516115096114ee610f4b565b6001600160a01b0316336001600160a01b03161460cd61185c565b61151e611514610b7a565b82146101f461185c565b611530848461152b611dfa565b612976565b606061153a611705565b905060008751600181111561154b57fe5b146115625761155d878787878561298d565b61156f565b61156f8787878785612a04565b979650505050505050565b6001600160a01b0380841660008181526001602090815260408083209487168084529490915290819020849055517f8c5be1e5ebec7d5bd14f71427d1e84f3dd0314c0f7b2291e5b200ac8c7c3b925906115d5908590615bd0565b60405180910390a3505050565b60006115f96000356001600160e01b031916610eaf565b90506107066116088233612a68565b61019161185c565b80156116305761162b6116216116ab565b421061019361185c565b611645565b61164561163b6116cf565b42106101a961185c565b6007805460ff19168215151790556040517f9e3a5e37224532dea67b89face185703738a228a6e8a23dee546960180d3be6490611683908390615bad565b60405180910390a150565b60006116986116cf565b42118061086557505060075460ff161590565b7f000000000000000000000000000000000000000000000000000000000000000090565b7f000000000000000000000000000000000000000000000000000000000000000090565b60006108656117006117ce565b6117fa565b606061170f612b58565b905061176061173d7f0000000000000000000000000000000000000000000000000000000000000000612c7f565b8260008151811061174a57fe5b6020026020010151612cce90919063ffffffff16565b8160008151811061176d57fe5b6020026020010181815250506117b26117a57f0000000000000000000000000000000000000000000000000000000000000000612c7f565b8260018151811061174a57fe5b816001815181106117bf57fe5b60200260200101818152505090565b60085490565b60006106ef8282612cfa565b60006106ef826016612cfa565b60006106ef82602c612d21565b60006106ef82604b612d2b565b60006106ef826055612d33565b7f000000000000000000000000000000000000000000000000000000000000000090565b7f000000000000000000000000000000000000000000000000000000000000000090565b81610be357610be381612502565b6118816001600160a01b038416151561019861185c565b6118986001600160a01b038316151561019961185c565b6118a383838361144c565b6001600160a01b0383166000908152602081905260409020546118c990826101a0612d3d565b6001600160a01b0380851660009081526020819052604080822093909355908416815220546118f89082611c54565b6001600160a01b038084166000818152602081905260409081902093909355915190851690600080516020615eb2833981519152906115d5908590615bd0565b6109f161194361168e565b61019261185c565b6119656119608261195a6117ce565b90611480565b612d53565b7f3e350b41e86a8e10f804ade6d35340d620be35569cc75ac943e8bb14ab80ead1816040516116839190615bad565b600061199e6117ce565b90506119a981611807565b15610706576119c36119bc600a54612d68565b8290612da8565b90506119df6119d86119d3610709565b612d68565b8290612db5565b905061070681612d53565b6000806000806000806119fb612dc3565b935093509350935080421015611a4e576001945083831115611a32578181038242038585030281611a2857fe5b0484019550611a49565b8181038242038486030281611a4357fe5b04840395505b611a56565b600094508295505b505050509091565b6000611a6d821515600461185c565b82611a7a575060006106ef565b816001840381611a8657fe5b0460010190506106ef565b611a9d84848484612e1a565b7f1835882ee7a34ac194f717a35e09bb1d24c82a3b9d854ab6c9749525b714cdf284848484604051611ad29493929190615de9565b60405180910390a150505050565b6000611aec828261147c565b611af784601f612e76565b611b02866054612e87565b611b0d88606a612e76565b611b188a609f612e87565b611b238c60b5612e76565b611b2e8e60ea612e87565b17171717171798975050505050505050565b60006106ef8282612d21565b60007f00000000000000000000000000000000000000000000000000000000000000007f00000000000000000000000000000000000000000000000000000000000000007f0000000000000000000000000000000000000000000000000000000000000000611bb9612e94565b30604051602001611bce959493929190615c2c565b60405160208183030381529060405280519060200120905090565b611bfc64e8d4a5100082101560cb61185c565b611c1267016345785d8a000082111560ca61185c565b600854611c21908260c0611451565b6008556040517fa9ba3ffe0b6c366b81232caab38605a0699ad5398d6cce76f91ee809e322dafc90611683908390615bd0565b60008282016109b8848210158361185c565b611c726000838361144c565b600254611c7f9082611c54565b6002556001600160a01b038216600090815260208190526040902054611ca59082611c54565b6001600160a01b038316600081815260208190526040808220939093559151909190600080516020615eb283398151915290611ce2908590615bd0565b60405180910390a35050565b6000611cf8610b7a565b90506000611d04610f4b565b6001600160a01b031663b05f8e4883866040518363ffffffff1660e01b8152600401611d31929190615c71565b60806040518083038186803b158015611d4957600080fd5b505afa158015611d5d573d6000803e3d6000fd5b505050506040513d601f19601f82011682018060405250810190611d8191906159d4565b604051630639cdb560e21b81529094506001600160a01b03851693506318e736d49250611db5915085908790600401615c58565b600060405180830381600087803b158015611dcf57600080fd5b505af1158015611de3573d6000803e3d6000fd5b5050505050505050565b1c6001600160401b031690565b7f000000000000000000000000000000000000000000000000000000000000000090565b610be3818314606761185c565b6000606080611e3861168e565b15611e7057611e708789600081518110611e4e57fe5b60200260200101518a600181518110611e6357fe5b6020026020010151612e98565b611e808b8b8b8b8b8b8b8b612f31565b9250925092505b985098509895505050505050565b60005b611ea0611dfa565b81101561144c57611ed7838281518110611eb657fe5b6020026020010151838381518110611eca57fe5b6020026020010151612149565b838281518110611ee357fe5b6020908102919091010152600101611e98565b333014611fb4576000306001600160a01b0316600036604051611f1a929190615ab1565b6000604051808303816000865af19150503d8060008114611f57576040519150601f19603f3d011682016040523d82523d6000602084013e611f5c565b606091505b505090508060008114611f6b57fe5b60046000803e6000516001600160e01b0319166343adbafb60e01b8114611f96573d6000803e3d6000fd5b506020600460003e604060205260243d03602460403e601c3d016000f35b6060611fbe611705565b9050611fca878261208e565b60006060611fe28c8c8c8c8c8c898d8d63ffffffff16565b5091509150611ff581848663ffffffff16565b8051601f1982018390526343adbafb603f1983015260200260231982016044820181fd5b6000908152600c602052604090205490565b600080600080600080600061203f88612fc6565b965061204a88612fd3565b955061205588612fe0565b945061206088612fed565b935061206b88612ffa565b925061207688613007565b915061208188611b40565b9050919395979092949650565b60005b612099611dfa565b81101561144c576120d08382815181106120af57fe5b60200260200101518383815181106120c357fe5b6020026020010151612cce565b8382815181106120dc57fe5b6020908102919091010152600101612091565b81516000908190815b818110156121305761212686828151811061210f57fe5b602002602001015184611c5490919063ffffffff16565b92506001016120f8565b5081612141576000925050506109b8565b5090506109b8565b6000612158821515600461185c565b82612165575060006106ef565b670de0b6b3a7640000838102906121889085838161217f57fe5b0414600561185c565b82818161219157fe5b049150506106ef565b6040516334171a8560e01b815260009073D268a45eC914B3AC19e3fE34577c074B1D9Fbc1E906334171a85906121db90600c90889088908890600401615d2a565b60206040518083038186803b1580156121f357600080fd5b505af4158015612207573d6000803e3d6000fd5b505050506040513d601f19601f8201168201806040525081019061063f919061589d565b6060808861223a6114ee610f4b565b612245611514610b7a565b606061224f611705565b905061225b888261208e565b60006060806122708e8e8e8e8e8e8a8f611e2b565b9250925092506122808d84613014565b61228a8285611e95565b6122948185611e95565b909550935050505b5097509795505050505050565b60006060806122bf8789600081518110611e4e57fe5b611e808b8b8b8b8b8b8b8b61301e565b60005b6122da611dfa565b81101561144c576123118382815181106122f057fe5b602002602001015183838151811061230457fe5b6020026020010151613077565b83828151811061231d57fe5b60209081029190910101526001016122d2565b600083608001516123426114ee610f4b565b61234d611514610b7a565b600061235c86602001516130c5565b9050600061236d87604001516130c5565b905060008751600181111561237e57fe5b141561240e57600061239388606001516130ea565b905060008189606001510390506123b789602001516123b2838761310b565b613117565b606089018290526123c8888561310b565b97506123d4878461310b565b96506123e489606001518561310b565b60608a015260006123f68a8a8a613129565b90506124028185613162565b96505050505050612486565b612418868361310b565b9550612424858261310b565b945061243487606001518261310b565b6060880152600061244688888861316e565b9050612452818461319d565b9050600061245f826131a9565b90506000828203905061247a8a602001516123b2838861310b565b50945061248692505050565b509392505050565b60006124998261260d565b80156106ef575060006124aa611814565b6001600160a01b0316141592915050565b6109f16124ce6124c961263f565b6131cf565b6125cf565b60006124de82612668565b80156106ef575060006124aa611838565b6109f16124fd6124c961269a565b6125f1565b62461bcd60e51b6000908152602060045260076024526642414c23000030600a808404818106603090810160081b95839006959095019082900491820690940160101b939093010160c81b604452606490fd5b600061255f610f4b565b6001600160a01b031663aaabadc56040518163ffffffff1660e01b815260040160206040518083038186803b15801561259757600080fd5b505afa1580156125ab573d6000803e3d6000fd5b505050506040513d601f19601f82011682018060405250810190610865919061570f565b6000806125e36125dd611814565b846131dc565b9150915061144c82826132ad565b6000806125ff6125dd611838565b9150915061144c8282613307565b7f00000000000000000000000000000000000000000000000000000000000000006001600160a01b0390811691161490565b600d5490565b600080600061265384613355565b925061265e84613361565b9395909450915050565b7f00000000000000000000000000000000000000000000000000000000000000006001600160a01b0390811691161490565b600e5490565b60006126aa611b4c565b82604051602001610ee4929190615ac1565b606080886126cb6114ee610f4b565b6126d6611514610b7a565b60606126e0611705565b90506126ea610709565b61279757600060606126ff8d8d8d868b613381565b9150915061271861270e613410565b83101560cc61185c565b61272560006103d8613410565b6127388b612731613410565b8403610bd9565b61274281846122cf565b8061274b611dfa565b6001600160401b038111801561276057600080fd5b5060405190808252806020026020018201604052801561278a578160200160208202803683370190505b509550955050505061229c565b6127a1888261208e565b60006060806127b68e8e8e8e8e8e8a8f6122a9565b9250925092506127c68c84610bd9565b6127d082856122cf565b6127da8185611e95565b909550935061229c915050565b6001600160a01b03918216600090815260016020908152604080832093909416825291909152205490565b61281e81824242612e1a565b7fa0d01593e47e69d07e0ccd87bece09411e07dd1ed40ca8f2e7af2976542a0233816040516116839190615bd0565b600080600061285d878787613417565b905061286b818787876134d6565b915061287681612d68565b92505094509492505050565b60028151101561289157610706565b6000816000815181106128a057fe5b602002602001015190506000600190505b825181101561144c5760008382815181106128c857fe5b602002602001015190506128f1816001600160a01b0316846001600160a01b031610606561185c565b91506001016128b1565b6000612905611814565b6001600160a01b0316146109f15760008061292661292161263f565b613361565b9150915080421115610be357610be3826125cf565b6000612945611838565b6001600160a01b0316146109f15760008061296161292161269a565b9150915080421115610be357610be3826125f1565b61144c8184108015610af35750818310606461185c565b6000612999858361208e565b6129ba86606001518385815181106129ad57fe5b602002602001015161310b565b606087015260006129cd87878787613501565b90506129ec818487815181106129df57fe5b602002602001015161319d565b90506129f7816131a9565b9150505b95945050505050565b6000612a1386606001516130ea565b6060870152612a22858361208e565b612a3686606001518386815181106129ad57fe5b60608701526000612a4987878787613539565b90506129f781848681518110612a5b57fe5b6020026020010151613162565b600073ba1ba1ba1ba1ba1ba1ba1ba1ba1ba1ba1ba1ba1b612a87610f27565b6001600160a01b031614158015612aa25750612aa28361355c565b15612aca57612aaf610f27565b6001600160a01b0316336001600160a01b03161490506106ef565b612ad2612555565b6001600160a01b0316639be2a8848484306040518463ffffffff1660e01b8152600401612b0193929190615bd9565b60206040518083038186803b158015612b1957600080fd5b505afa158015612b2d573d6000803e3d6000fd5b505050506040513d601f19601f82011682018060405250810190612b519190615629565b90506106ef565b60606000612b64611dfa565b90506060816001600160401b0381118015612b7e57600080fd5b50604051908082528060200260200182016040528015612ba8578160200160208202803683370190505b509050612bb3613598565b81600081518110612bc057fe5b602002602001018181525050612bd46135bc565b81600181518110612be157fe5b6020026020010181815250506002821115612c1c57612bfe6135e0565b81600281518110612c0b57fe5b602002602001018181525050612c25565b91506106db9050565b6003821115612c1c57612c36613604565b81600381518110612c4357fe5b6020026020010181815250506004821115612c1c57612c60613628565b81600481518110612c6d57fe5b60200260200101818152505091505090565b6000612c8a8261248e565b15612ca657612c9f612c9a61263f565b613355565b9050610e5b565b612caf826124d3565b15612cbf57612c9f612c9a61269a565b50670de0b6b3a7640000610e5b565b6000828202612ce884158061142d57508385838161142a57fe5b670de0b6b3a764000090049392505050565b600082821c623fffff16621fffff8113612d14578061063f565b623fffff19179392505050565b1c637fffffff1690565b1c6103ff1690565b1c60019081161490565b6000612d4c848411158361185c565b5050900390565b600854612d62908260006114b1565b60085550565b600080612d748361364c565b90506000808213612d8d57652d79883d20008203612d97565b652d79883d200082015b655af3107a40009005949350505050565b60006109b88383836136a9565b60006109b8838360166136a9565b600080600080612ddf6000600954611ded90919063ffffffff16565b600954909450612df0906040611ded565b600954909350612e01906080611ded565b600954909250612e129060c0611ded565b905090919293565b612e2e816001600160401b031660c061147c565b612e42836001600160401b0316608061147c565b612e56856001600160401b0316604061147c565b612e6a876001600160401b0316600061147c565b17171760095550505050565b661fffffffffffff91909116901b90565b623fffff91909116901b90565b4690565b6000612ea26117ce565b90506000612eae6119ea565b509050612eba82611807565b8015612ec557508443115b15612f2a57600080612edc8387876113ea886117e0565b915091506000612eeb856117fa565b90506000612ef8866117ed565b90506001828114612f2457612f0d87826136c0565b9650612f1987426136ce565b9650612f2487612d53565b50505050505b5050505050565b6000606080612f3e61168e565b15612f6157612f4d88876136dc565b9050612f5c88826114666137c8565b612fac565b612f69611dfa565b6001600160401b0381118015612f7e57600080fd5b50604051908082528060200260200182016040528015612fa8578160200160208202803683370190505b5090505b612fb788868661382d565b9093509150611e8788836138b8565b60006106ef8260ea612cfa565b60006106ef8260b56138e7565b60006106ef82609f612cfa565b60006106ef82606a6138e7565b60006106ef826054612cfa565b60006106ef82601f6138e7565b610be3828261391a565b600060608061302b611938565b606061303789886136dc565b905061304689826114666137c8565b600060606130558b89896139b8565b915091506130638b82613a11565b909d909c50909a5098505050505050505050565b6000613086821515600461185c565b82613093575060006106ef565b670de0b6b3a7640000838102906130ad9085838161217f57fe5b8260018203816130b957fe5b046001019150506106ef565b6000806130d183613a1e565b905060006130de84612c7f565b905061063f8282612cce565b6000806130ff6130f8610c01565b8490613b1d565b90506109b88382611466565b60006109b88383612cce565b610be361312383613b59565b82610be3565b6000613140613136611dfa565b60021460d261185c565b6060600080613150878787613b5f565b92509250925061156f87848484613539565b60006109b88383612149565b600061317b613136611dfa565b606060008061318b878787613b5f565b92509250925061156f87848484613501565b60006109b88383613077565b60006106ef6131c86131b9610c01565b670de0b6b3a764000090611466565b8390613077565b60006106ef826080611ded565b600080836001600160a01b031663679aefce6040518163ffffffff1660e01b815260040160206040518083038186803b15801561321857600080fd5b505afa15801561322c573d6000803e3d6000fd5b505050506040513d601f19601f82011682018060405250810190613250919061589d565b9050613264600160801b821061014961185c565b61327a8342016001600160401b031660c061147c565b61328e846001600160401b0316608061147c565b6132a2836001600160801b0316600061147c565b171791509250929050565b81600d819055507f00000000000000000000000000000000000000000000000000000000000000006001600160a01b0316600080516020615e92833981519152826040516132fb9190615bd0565b60405180910390a25050565b81600e819055507f00000000000000000000000000000000000000000000000000000000000000006001600160a01b0316600080516020615e92833981519152826040516132fb9190615bd0565b60006106ef8282613c20565b60008061336d836131cf565b915061337a8360c0611ded565b9050915091565b6000606061338d611938565b600061339884613c2d565b90506133b360008260028111156133ab57fe5b1460ce61185c565b60606133be85613c43565b90506133cd8151610c23611dfa565b6133d7818761208e565b60006133e16119ea565b50905060006133f2828460016120ef565b9050806133ff8184613c59565b9b929a509198505050505050505050565b620f424090565b60008061342f856134288686613c64565b60016120ef565b90506103e86002860204600061344f836134498185611410565b90611466565b9050600061346a86613464856002028a611410565b90612cce565b9050600061349361347b8489612cce565b61344961348c8a613464898d611410565b8590611c54565b905060006134bc6134a4858b612cce565b6134496134b58c6134648a8f611410565b8690611c54565b90506134c88282613077565b9a9950505050505050505050565b6000806134e66134b58786613b1d565b905060006134f382612d68565b939093039695505050505050565b600061352d8560a001518560008151811061351857fe5b602002602001015186600181518110611e6357fe5b61063c85858585613cbe565b60006135508560a001518560008151811061351857fe5b61063c85858585613d05565b600061356e632f1a0bc960e01b610eaf565b8214806135895750613586637587926b60e11b610eaf565b82145b806106ef57506106ef82613d40565b7f000000000000000000000000000000000000000000000000000000000000000090565b7f000000000000000000000000000000000000000000000000000000000000000090565b7f000000000000000000000000000000000000000000000000000000000000000090565b7f000000000000000000000000000000000000000000000000000000000000000090565b7f000000000000000000000000000000000000000000000000000000000000000090565b600061365c60008313606461185c565b670c7d713b49da00008213801561367a5750670f43fc2c04ee000082125b156136a057670de0b6b3a764000061369183613d72565b8161369857fe5b059050610e5b565b612c9f82613e90565b623fffff828116821b90821b198416179392505050565b60006109b88383604b614228565b60006109b88383602c614238565b6060806136e7611dfa565b6001600160401b03811180156136fc57600080fd5b50604051908082528060200260200182016040528015613726578160200160208202803683370190505b509050826137355790506106ef565b6000808560008151811061374557fe5b602002602001015190506000600190505b61375e611dfa565b81101561379557600087828151811061377357fe5b602002602001015190508281111561378c578193508092505b50600101613756565b506137a7600b5487600a54858961424a565b8383815181106137b357fe5b60209081029190910101525090949350505050565b60005b6137d3611dfa565b811015610b515761380e8482815181106137e957fe5b60200260200101518483815181106137fd57fe5b60200260200101518463ffffffff16565b84828151811061381a57fe5b60209081029190910101526001016137cb565b60006060600061383c84613c2d565b9050600081600281111561384c57fe5b14156138665761385c86856142ac565b92509250506138b0565b600181600281111561387457fe5b14156138845761385c8685614376565b600281600281111561389257fe5b14156138a35761385c8686866143a8565b6138ae610150612502565b505b935093915050565b6138c582826114666137c8565b60006138cf6119ea565b50905061144c6138e1828560016120ef565b82613c59565b600082821c661fffffffffffff16660fffffffffffff8113613909578061063f565b661fffffffffffff19179392505050565b6139316001600160a01b038316151561019b61185c565b61393d8260008361144c565b6001600160a01b03821660009081526020819052604090205461396390826101a1612d3d565b6001600160a01b0383166000908152602081905260409020556002546139899082614424565b6002556040516000906001600160a01b03841690600080516020615eb283398151915290611ce2908590615bd0565b6000606060006139c784613c2d565b905060018160028111156139d757fe5b14156139e85761385c868686614432565b60028160028111156139f657fe5b1415613a065761385c868561449c565b6138ae610136612502565b6138c58282611c546137c8565b6000613a298261260d565b15613a3657612c9f613598565b613a3f82612668565b15613a4c57612c9f6135bc565b7f00000000000000000000000000000000000000000000000000000000000000006001600160a01b0316826001600160a01b03161415613a8e57612c9f6135e0565b7f00000000000000000000000000000000000000000000000000000000000000006001600160a01b0316826001600160a01b03161415613ad057612c9f613604565b7f00000000000000000000000000000000000000000000000000000000000000006001600160a01b0316826001600160a01b03161415613b1257612c9f613628565b610e5b610135612502565b6000828202613b3784158061142d57508385838161142a57fe5b80613b465760009150506106ef565b670de0b6b3a764000060001982016130b9565b50600090565b60408051600280825260608281019093526000918291816020016020820280368337019050509250613b94866020015161260d565b15613bda5760009150600190508483600081518110613baf57fe5b6020026020010181815250508383600181518110613bc957fe5b602002602001018181525050613c17565b60009050600191508383600081518110613bf057fe5b6020026020010181815250508483600181518110613c0a57fe5b6020026020010181815250505b93509350939050565b1c6001600160801b031690565b6000818060200190518101906106ef9190615778565b6060818060200190518101906109b8919061583d565b600a91909155600b55565b60408051600280825260608083018452926020830190803683370190505090508281600081518110613c9257fe5b6020026020010181815250508181600181518110613cac57fe5b60200260200101818152505092915050565b6000613cc8611938565b6000613cd26119ea565b5090506000613ce3828760016120ef565b90506000613cf9838888888c6060015187614530565b98975050505050505050565b6000613d0f611938565b6000613d196119ea565b5090506000613d2a828760016120ef565b90506000613cf9838888888c60600151876145df565b6000613d52631c74c91760e11b610eaf565b8214806106ef5750613d6a6350dd6ed960e01b610eaf565b909114919050565b670de0b6b3a7640000026000806a0c097ce7bc90715b34b9f160241b808401906ec097ce7bc90715b34b9f0fffffffff1985010281613dad57fe5b05905060006a0c097ce7bc90715b34b9f160241b82800205905081806a0c097ce7bc90715b34b9f160241b81840205915060038205016a0c097ce7bc90715b34b9f160241b82840205915060058205016a0c097ce7bc90715b34b9f160241b82840205915060078205016a0c097ce7bc90715b34b9f160241b82840205915060098205016a0c097ce7bc90715b34b9f160241b828402059150600b8205016a0c097ce7bc90715b34b9f160241b828402059150600d8205016a0c097ce7bc90715b34b9f160241b828402059150600f826002919005919091010295945050505050565b6000670de0b6b3a7640000821215613ecc57613ec2826a0c097ce7bc90715b34b9f160241b81613ebc57fe5b05613e90565b6000039050610e5b565b6000775803bcc5cb9634ba4cfb2213f784019318ed4dcb6017880f60361b8312613f175772195e54c5dd42177f53a27172fa9ec63026282760241b830592506806f05b59d3b2000000015b6f8bcc0026baae9e45e470190267a230cf60191b8312613f4e576b1425982cf597cd205cef7380830592506803782dace9d9000000015b606492830292026e01855144814a7ff805980ff00840008312613f96576e01855144814a7ff805980ff008400068056bc75e2d63100000840205925068ad78ebc5ac62000000015b6b02df0ab5a80a22c61ab5a7008312613fd1576b02df0ab5a80a22c61ab5a70068056bc75e2d6310000084020592506856bc75e2d631000000015b693f1fce3da636ea5cf850831261400857693f1fce3da636ea5cf85068056bc75e2d631000008402059250682b5e3af16b18800000015b690127fa27722cc06cc5e2831261403f57690127fa27722cc06cc5e268056bc75e2d6310000084020592506815af1d78b58c400000015b68280e60114edb805d0383126140745768280e60114edb805d0368056bc75e2d631000008402059250680ad78ebc5ac6200000015b680ebc5fb41746121110831261409f57680ebc5fb4174612111068056bc75e2d631000009384020592015b6808f00f760a4b2db55d83126140d4576808f00f760a4b2db55d68056bc75e2d6310000084020592506802b5e3af16b1880000015b6806f5f17757889379378312614109576806f5f177578893793768056bc75e2d63100000840205925068015af1d78b58c40000015b6806248f33704b286603831261413d576806248f33704b28660368056bc75e2d63100000840205925067ad78ebc5ac620000015b6805c548670b9510e7ac8312614171576805c548670b9510e7ac68056bc75e2d6310000084020592506756bc75e2d6310000015b600068056bc75e2d63100000840168056bc75e2d63100000808603028161419457fe5b059050600068056bc75e2d63100000828002059050818068056bc75e2d63100000818402059150600382050168056bc75e2d63100000828402059150600582050168056bc75e2d63100000828402059150600782050168056bc75e2d63100000828402059150600982050168056bc75e2d63100000828402059150600b820501600202606485820105979650505050505050565b6103ff811b1992909216911b1790565b637fffffff811b1992909216911b1790565b60008061425987878787614672565b90508086858151811061426857fe5b60200260200101511161427f5760009150506129fb565b60008187868151811061428e57fe5b6020026020010151039050613cf98482612cce90919063ffffffff16565b600060606142b8611938565b6000806142c485614828565b915091506142dc6142d3611dfa565b8210606461185c565b60606142e6611dfa565b6001600160401b03811180156142fb57600080fd5b50604051908082528060200260200182016040528015614325578160200160208202803683370190505b50905060006143326119ea565b50905061435181898587614344610709565b61434c610c01565b61484a565b82848151811061435d57fe5b6020908102919091010152509196919550909350505050565b60006060600061438584614966565b9050606061439b8683614396610709565b61497c565b9196919550909350505050565b600060606143b4611938565b606060006143c185614a17565b915091506143d28251610c23611dfa565b6143dc828761208e565b60006143e66119ea565b5090506000614406828a866143f9610709565b614401610c01565b614a2f565b90506144168382111560cf61185c565b989297509195505050505050565b60006109b883836001612d3d565b6000606080600061444285614a17565b91509150614458614451611dfa565b8351611e1e565b614462828761208e565b600061446c6119ea565b509050600061448c828a8661447f610709565b614487610c01565b614cc3565b90506144168382101560d061185c565b600060606000806144ac85614828565b915091506144bb6142d3611dfa565b60606144c5611dfa565b6001600160401b03811180156144da57600080fd5b50604051908082528060200260200182016040528015614504578160200160208202803683370190505b50905060006145116119ea565b50905061435181898587614523610709565b61452b610c01565b614f3f565b60006145588387868151811061454257fe5b602002602001015161146690919063ffffffff16565b86858151811061456457fe5b602002602001018181525050600061457e88888589614672565b90508387868151811061458d57fe5b6020026020010151018786815181106145a257fe5b602002602001018181525050613cf960016145d98989815181106145c257fe5b60200260200101518461146690919063ffffffff16565b90611c54565b6000614607838787815181106145f157fe5b6020026020010151611c5490919063ffffffff16565b86868151811061461357fe5b602002602001018181525050600061462d88888588614672565b90508387878151811061463c57fe5b60200260200101510387878151811061465157fe5b602002602001018181525050613cf96001613449838a898151811061454257fe5b60008084518602905060008560008151811061468a57fe5b6020026020010151905060008651876000815181106146a557fe5b60200260200101510290506000600190505b875181101561470b576146f06146ea6146e3848b85815181106146d657fe5b6020026020010151611410565b8a51611410565b8861501c565b915061470188828151811061210f57fe5b92506001016146b7565b5086858151811061471857fe5b60200260200101518203915060006147308788611410565b9050600061475c61475061474884610a8b8988611410565b6103e8611410565b8a89815181106146d657fe5b905060006147706134b56147488b8961501c565b905060008061478c6147828686611c54565b610a8b8d86611c54565b905060005b60ff81101561480c578192506147c16147ae866145d98586611410565b610a8b8e613449886145d9886002611410565b9150828211156147ea576001838303116147e55750975061063f9650505050505050565b614804565b6001828403116148045750975061063f9650505050505050565b600101614791565b50614818610142612502565b5050505050505050949350505050565b6000808280602001905181019061483f9190615807565b909590945092505050565b600080614859888860016120ef565b9050600061487b826148758761486f818b611466565b90613077565b90613b1d565b9050600061488b8a8a848b614672565b9050600061489f828b8b8151811061454257fe5b90506000805b8b518110156148de576148d48c82815181106148bd57fe5b602002602001015183611c5490919063ffffffff16565b91506001016148a5565b506000614907828d8d815181106148f157fe5b602002602001015161214990919063ffffffff16565b905060006149148261503c565b905060006149228583613b1d565b905060006149308683611466565b905061495161494a83670de0b6b3a76400008e9003612cce565b8290611c54565b99505050505050505050509695505050505050565b6000818060200190518101906109b891906157da565b6060600061498a8484612149565b9050606085516001600160401b03811180156149a557600080fd5b506040519080825280602002602001820160405280156149cf578160200160208202803683370190505b50905060005b8651811015614a0d576149ee8388838151811061174a57fe5b8282815181106149fa57fe5b60209081029190910101526001016149d5565b5095945050505050565b606060008280602001905181019061483f9190615794565b600080805b8651811015614a5657614a4c8782815181106148bd57fe5b9150600101614a34565b50606085516001600160401b0381118015614a7057600080fd5b50604051908082528060200260200182016040528015614a9a578160200160208202803683370190505b5090506000805b8851811015614b61576000614ad2858b8481518110614abc57fe5b602002602001015161307790919063ffffffff16565b9050614b0e8a8381518110614ae357fe5b602002602001015161486f8b8581518110614afa57fe5b60200260200101518d868151811061454257fe5b848381518110614b1a57fe5b602002602001018181525050614b56614b4f82868581518110614b3957fe5b6020026020010151613b1d90919063ffffffff16565b8490611c54565b925050600101614aa1565b50606088516001600160401b0381118015614b7b57600080fd5b50604051908082528060200260200182016040528015614ba5578160200160208202803683370190505b50905060005b8951811015614c70576000848281518110614bc257fe5b6020026020010151841115614c29576000614beb614bdf8661503c565b8d858151811061174a57fe5b90506000614bff828d868151811061454257fe5b9050614c20614c1982670de0b6b3a76400008d9003613077565b8390611c54565b92505050614c40565b898281518110614c3557fe5b602002602001015190505b614c50818c848151811061454257fe5b838381518110614c5c57fe5b602090810291909101015250600101614bab565b506000614c7f8b8b60016120ef565b90506000614c8f8c8460006120ef565b90506000614c9d8284612149565b9050614cb2614cab8261503c565b8b90613b1d565b9d9c50505050505050505050505050565b600080805b8651811015614cea57614ce08782815181106148bd57fe5b9150600101614cc8565b50606085516001600160401b0381118015614d0457600080fd5b50604051908082528060200260200182016040528015614d2e578160200160208202803683370190505b5090506000805b8851811015614dc8576000614d50858b84815181106148f157fe5b9050614d928a8381518110614d6157fe5b6020026020010151614d8c8b8581518110614d7857fe5b60200260200101518d86815181106145f157fe5b90612149565b848381518110614d9e57fe5b602002602001018181525050614dbd614b4f8286858151811061174a57fe5b925050600101614d35565b50606088516001600160401b0381118015614de257600080fd5b50604051908082528060200260200182016040528015614e0c578160200160208202803683370190505b50905060005b8951811015614ecd57600083858381518110614e2a57fe5b60200260200101511115614e86576000614e4f614bdf86670de0b6b3a7640000611466565b90506000614e63828d868151811061454257fe5b9050614e7d614c1982670de0b6b3a76400008d9003612cce565b92505050614e9d565b898281518110614e9257fe5b602002602001015190505b614ead818c84815181106145f157fe5b838381518110614eb957fe5b602090810291909101015250600101614e12565b506000614edc8b8b60016120ef565b90506000614eec8c8460006120ef565b90506000614efa8284612149565b9050670de0b6b3a7640000811115614f2f57614f218a670de0b6b3a763ffff198301612cce565b9750505050505050506129fb565b60009750505050505050506129fb565b600080614f4e888860016120ef565b90506000614f64826148758761486f818b611c54565b90506000614f748a8a848b614672565b90506000614f9e8a8a81518110614f8757fe5b60200260200101518361146690919063ffffffff16565b90506000805b8b51811015614fc657614fbc8c82815181106148bd57fe5b9150600101614fa4565b506000614fd9828d8d815181106148f157fe5b90506000614fe68261503c565b90506000614ff48583613b1d565b905060006150028683611466565b905061495161494a83670de0b6b3a76400008e9003613077565b600061502b821515600461185c565b81838161503457fe5b049392505050565b6000670de0b6b3a764000082106150545760006106ef565b50670de0b6b3a76400000390565b604080518082019091526000808252602082015290565b80356106ef81615e61565b600082601f830112615094578081fd5b81356150a76150a282615e38565b615e12565b8181529150602080830190848101818402860182018710156150c857600080fd5b60005b848110156150e7578135845292820192908201906001016150cb565b505050505092915050565b600082601f830112615102578081fd5b81516151106150a282615e38565b81815291506020808301908481018184028601820187101561513157600080fd5b60005b848110156150e757815184529282019290820190600101615134565b600082601f830112615160578081fd5b81356001600160401b03811115615175578182fd5b615188601f8201601f1916602001615e12565b915080825283602082850101111561519f57600080fd5b8060208401602084013760009082016020015292915050565b8035600281106106ef57600080fd5b80356106ef81615e84565b60006101208083850312156151e5578182fd5b6151ee81615e12565b9150506151fb83836151b8565b815261520a8360208401615079565b602082015261521c8360408401615079565b6040820152606082013560608201526080820135608082015260a082013560a082015261524c8360c08401615079565b60c082015261525e8360e08401615079565b60e0820152610100828101356001600160401b0381111561527e57600080fd5b61528a85828601615150565b82840152505092915050565b6000602082840312156152a7578081fd5b81356109b881615e61565b600080604083850312156152c4578081fd5b82356152cf81615e61565b915060208301356152df81615e61565b809150509250929050565b6000806000606084860312156152fe578081fd5b833561530981615e61565b9250602084013561531981615e61565b929592945050506040919091013590565b600080600080600080600060e0888a031215615344578485fd5b873561534f81615e61565b9650602088013561535f81615e61565b95506040880135945060608801359350608088013560ff81168114615382578384fd5b9699959850939692959460a0840135945060c09093013592915050565b600080604083850312156153b1578182fd5b82356153bc81615e61565b946020939093013593505050565b6000806000606084860312156153de578081fd5b83516001600160401b03808211156153f4578283fd5b818601915086601f830112615407578283fd5b81516154156150a282615e38565b80828252602080830192508086018b828387028901011115615435578788fd5b8796505b8487101561546057805161544c81615e61565b845260019690960195928101928101615439565b508901519097509350505080821115615477578283fd5b50615484868287016150f2565b925050604084015190509250925092565b600060208083850312156154a7578182fd5b82356001600160401b038111156154bc578283fd5b8301601f810185136154cc578283fd5b80356154da6150a282615e38565b818152838101908385016040808502860187018a10156154f8578788fd5b8795505b848610156155455780828b031215615512578788fd5b61551b81615e12565b6155258b846151c7565b8152828801358882015284526001959095019492860192908101906154fc565b509098975050505050505050565b60006020808385031215615565578182fd5b82356001600160401b0381111561557a578283fd5b8301601f8101851361558a578283fd5b80356155986150a282615e38565b818152838101908385016060808502860187018a10156155b6578788fd5b8795505b848610156155455780828b0312156155d0578788fd5b6155d981615e12565b6155e38b846151c7565b815282880135888201526040808401359082015284526001959095019492860192908101906155ba565b60006020828403121561561e578081fd5b81356109b881615e76565b60006020828403121561563a578081fd5b81516109b881615e76565b600080600080600080600060e0888a03121561565f578081fd5b87359650602088013561567181615e61565b9550604088013561568181615e61565b945060608801356001600160401b038082111561569c578283fd5b6156a88b838c01615084565b955060808a0135945060a08a0135935060c08a01359150808211156156cb578283fd5b506156d88a828b01615150565b91505092959891949750929550565b6000602082840312156156f8578081fd5b81356001600160e01b0319811681146109b8578182fd5b600060208284031215615720578081fd5b81516109b881615e61565b6000806040838503121561573d578182fd5b823561574881615e61565b915060208301356001600160401b03811115615762578182fd5b61576e85828601615150565b9150509250929050565b600060208284031215615789578081fd5b81516109b881615e84565b6000806000606084860312156157a8578081fd5b83516157b381615e84565b60208501519093506001600160401b038111156157ce578182fd5b615484868287016150f2565b600080604083850312156157ec578182fd5b82516157f781615e84565b6020939093015192949293505050565b60008060006060848603121561581b578081fd5b835161582681615e84565b602085015160409095015190969495509392505050565b6000806040838503121561584f578182fd5b825161585a81615e84565b60208401519092506001600160401b03811115615875578182fd5b61576e858286016150f2565b600060208284031215615892578081fd5b81356109b881615e84565b6000602082840312156158ae578081fd5b5051919050565b600080600080608085870312156158ca578182fd5b84356001600160401b03808211156158e0578384fd5b6158ec888389016151d2565b95506020870135915080821115615901578384fd5b5061590e87828801615084565b949794965050505060408301359260600135919050565b600080600060608486031215615939578081fd5b83356001600160401b0381111561594e578182fd5b61595a868287016151d2565b9660208601359650604090950135949350505050565b600060208284031215615981578081fd5b5035919050565b6000806040838503121561599a578182fd5b50508035926020909101359150565b6000806000606084860312156159bd578081fd5b505081359360208301359350604090920135919050565b600080600080608085870312156159e9578182fd5b8451935060208501519250604085015191506060850151615a0981615e61565b939692955090935050565b6000815180845260208085019450808401835b83811015615a4357815187529582019590820190600101615a27565b509495945050505050565b60008151808452815b81811015615a7357602081850181015186830182015201615a57565b81811115615a845782602083870101525b50601f01601f19169290920160200192915050565b9182526001600160e01b031916602082015260240190565b6000828483379101908152919050565b61190160f01b81526002810192909252602282015260420190565b6001600160a01b0391909116815260200190565b6020808252825182820181905260009190848201906040850190845b81811015615b315783516001600160a01b031683529284019291840191600101615b0c565b50909695505050505050565b6020808252825182820181905260009190848201906040850190845b81811015615b3157835183529284019291840191600101615b59565b6000602082526109b86020830184615a14565b600060408252615b9b6040830185615a14565b82810360208401526129fb8185615a14565b901515815260200190565b92151583526020830191909152604082015260600190565b90815260200190565b9283526001600160a01b03918216602084015216604082015260600190565b9586526001600160a01b0394851660208701529290931660408501526060840152608083019190915260a082015260c00190565b9485526020850193909352604084019190915260608301526001600160a01b0316608082015260a00190565b60008382526040602083015261063f6040830184615a4e565b9182526001600160a01b0316602082015260400190565b93845260ff9290921660208401526040830152606082015260800190565b918252602082015260400190565b968752602087019590955260408601939093526060850191909152608084015260a083015260c082015260e00190565b9485526020850193909352604084019190915260608301521515608082015260a00190565b83815260608101615d1984615e57565b602082019390935260400152919050565b84815260808101615d3a85615e57565b84602083015283604083015282606083015295945050505050565b838152825160a0820190615d6881615e57565b806020840152506020840151604083015260408401516060830152826080830152949350505050565b6000602082526109b86020830184615a4e565b60008382526040602083015261063f6040830184615a14565b9283529015156020830152604082015260600190565b9283526020830191909152604082015260600190565b93845260208401929092526040830152606082015260800190565b60ff91909116815260200190565b6040518181016001600160401b0381118282101715615e3057600080fd5b604052919050565b60006001600160401b03821115615e4d578081fd5b5060209081020190565b6003811061070657fe5b6001600160a01b038116811461070657600080fd5b801515811461070657600080fd5b6003811061070657600080fdfec1a224b14823b63c7711127f125fbf592434682f38881ebb61408747a303affcddf252ad1be2c89b69c2b068fc378daa952ba7f163c4a11628f55a4df523b3efa26469706673582212203e66a7a62b7a5e2e7bc8598533ffdd90444125c14ddefc15637b41caf087184064736f6c63430007010033c1a224b14823b63c7711127f125fbf592434682f38881ebb61408747a303affcca6c2c5b6b44b5f3f0c08f0e28e5b6deda1cb38c3fe1113e8031d926c1e8c6d0",
  "libraries": {
    "QueryProcessor": "0xD268a45eC914B3AC19e3fE34577c074B1D9Fbc1E"
  },
  "devdoc": {
    "kind": "dev",
    "methods": {
      "_getCreationCodeWithArgs(bytes)": {
        "details": "Returns the creation code that will result in a contract being deployed with `constructorArgs`."
      },
      "create(string,string,address[],uint256,address[],uint256[],uint256,address)": {
        "details": "Deploys a new `MetaStablePool`."
      },
      "getCreationCode()": {
        "details": "Returns the creation code of the contract this factory creates."
      },
      "getCreationCodeContracts()": {
        "details": "Returns the two addresses where the creation code of the contract crated by this factory is stored."
      },
      "getPauseConfiguration()": {
        "details": "Returns the current `TemporarilyPausable` configuration that will be applied to Pools created by this factory. `pauseWindowDuration` will decrease over time until it reaches zero, at which point both it and `bufferPeriodDuration` will be zero forever, meaning deployed Pools will not be pausable."
      },
      "getVault()": {
        "details": "Returns the Vault's address."
      },
      "isPoolFromFactory(address)": {
        "details": "Returns true if `pool` was created by this factory."
      }
    },
    "version": 1
  },
  "userdoc": {
    "kind": "user",
    "methods": {},
    "version": 1
  },
  "storageLayout": {
    "storage": [
      {
        "astId": 2674,
        "contract": "contracts/StablePool/meta/MetaStablePoolFactory.sol:MetaStablePoolFactory",
        "label": "_isPoolFromFactory",
        "offset": 0,
        "slot": "0",
        "type": "t_mapping(t_address,t_bool)"
      }
    ],
    "types": {
      "t_address": {
        "encoding": "inplace",
        "label": "address",
        "numberOfBytes": "20"
      },
      "t_bool": {
        "encoding": "inplace",
        "label": "bool",
        "numberOfBytes": "1"
      },
      "t_mapping(t_address,t_bool)": {
        "encoding": "mapping",
        "key": "t_address",
        "label": "mapping(address => bool)",
        "numberOfBytes": "32",
        "value": "t_bool"
      }
    }
  }
}